:100000000C9462000C948A000C948A000C948A0070
:100010000C94A2020C948A000C948A000C948A001E
:100020000C948A000C948A000C948A000C948A0028
:100030000C948A000C948A000C948A000C948A0018
:100040000C94E91A0C948A000C948A000C948A008F
:100050000C948A000C948A000C948A000C948A00F8
:100060000C948A000C948A0000000009000302002E
:10007000000405080000000000000000000000016E
:10008000020408102040800102040810200102042C
:100090000810204080400404040404040404020204
:1000A000020202020303030303030202030000002F
:1000B00000250028002B0000000000240027002A53
:1000C0000000490411241FBECFEFD8E0DEBFCDBF32
:1000D00011E0A0E0B1E0ECEBFCE302C005900D9272
:1000E000A235B107D9F724E0A2E5B1E001C01D9225
:1000F000AA33B207E1F710E0C2E6D0E004C02197CE
:10010000FE010E94061CC136D107C9F70E94D61A0B
:100110000C945C1E0C94000090E080E00895FC01BB
:10012000848583FF17C084A195A1A6A1B7A1448DA2
:10013000558D668D778D841B950BA60BB70B81159E
:1001400020E89207A105B10520F08FEF9FE7A0E01E
:10015000B0E0089580E090E0DC01F1CF0C960C94C3
:10016000D3060C960C9411090C960C94170ACF9395
:10017000DF931F92CDB7DEB7698341E050E0BE0147
:100180006F5F7F4F0C960E94170A0F90DF91CF91FF
:100190000895CF93DF931F92CDB7DEB730E020E014
:1001A00041E050E0BE016F5F7F4F0E949E050197C6
:1001B00031F4898190E00F90DF91CF9108958FEF16
:1001C0009FEFF9CF0C960C94C900FC0113821282A8
:1001D00088EE93E0A0E0B0E084839583A683B783A4
:1001E00014861586168682E291E0918380830895B5
:1001F000CF93DF93EC01611109C066E071E0CE019D
:100200000E94C01ACE01DF91CF91089560E171E0A4
:10021000F6CFCF93DF93CDB7DEB7C855D1090FB670
:10022000F894DEBF0FBECDBFCE018D960E94E500D3
:1002300020E04CE151E064EC71E0CE01C9960E94EF
:100240000E0ACE0101960E94E50040E0BE01675C07
:100250007F4FCE010D960E94A2088D85882329F03C
:10026000CE010D960E948609ECCFCE01C9960E9460
:100270008609C85ADF4F0FB6F894DEBF0FBECDBF58
:10028000DF91CF910895CF93DF93EB012A813B81DA
:10029000FC01338322834C815D816E817F814483A5
:1002A000558366837783488559856A857B85408732
:1002B0005187628773878C179D0751F020E2FE01FA
:1002C0003C96DC011C9601900D922A95E1F71C8664
:1002D000DF91CF9108950F931F93CF93DF93CDB705
:1002E000DEB7E2970FB6F894DEBF0FBECDBF909198
:1002F0009701992369F010929701E2960FB6F8944E
:10030000DEBF0FBECDBFDF91CF911F910F9108953A
:1003100090919501905F923080F7E0919401E531E2
:1003200060F7682FF0E0E956FE4F0C94061CAC0114
:10033000B201B601C201C601BA01BE017D017D0153
:100340007D017D017D017D017D017D017D017D01BD
:100350007D017D017D015D0280938E0181E08093AE
:100360009401CBCF80938D0182E0F9CF80938C01F3
:1003700085E0F5CF8093890186E0F1CF80938801F5
:1003800083E0EDCF80938B0184E0E9CF80938A01F5
:1003900080918B0190918A018927982789279093D2
:1003A0008701809386018091890190918801892736
:1003B00098278927909385018093840180918601F5
:1003C00090918701B0E0A0E029E0880F991FAA1F53
:1003D000BB1F2A95D1F78093800190938101A09350
:1003E0008201B093830180918D0190E0B0E0A0E0A4
:1003F00039E0880F991FAA1FBB1F3A95D1F7809348
:100400008F0190939001A0939101B093920110926B
:100410007F0110927E018091950160918E01813F54
:1004200069F5CE018D960E94F8000DA51EA5CE019E
:1004300001960E94E50020E0A80164EC71E0CE0185
:100440000D960E940E0ABE016F5F7F4F88E991E012
:100450000E944301CE018D960E944E1A8AE080933D
:1004600094014091800150918101609182017091CD
:10047000830184EA91E00E942F073FCFCE018D9641
:100480000E94F8000DA51EA5CE0101960E94E50070
:1004900022E0A80164EC71E0CE010D960E940E0AE4
:1004A000BE016F5F7F4F88E991E00E944301CE015A
:1004B0008D960E944E1A84E1D2CF88E991E00E9485
:1004C000B70080918F0190919001A0919101B0911E
:1004D00092010197A109B10980938F019093900136
:1004E000A0939101B093920180918F01909190011E
:1004F000A0919101B0919201892B8A2B8B2B41F411
:10050000109295011092940184EA91E00E9486096C
:1005100080917E0190917F01019690937F0180935D
:100520007E0180917E0190917F018115924009F0BA
:10053000E4CE10927F0110927E0184EA91E00E9445
:100540001109DBCE1F920F920FB60F9211242F9339
:100550003F934F935F936F937F938F939F93AF934B
:10056000BF93CF93EF93FF9386B180FF17C01AB864
:1005700028E22A95F1F7439AFF91EF91CF91BF912D
:10058000AF919F918F917F916F915F914F913F912B
:100590002F910F900FBE0F901F901895982F947069
:1005A00081FD5CC0911156C08FEF8AB98091950191
:1005B000813F09F04DC0809194018A3009F048C014
:1005C00084EA91E00E94C900C82F809193018C2792
:1005D0008093930180918F0190919001A09191015E
:1005E000B09192010197A109B10980938F01909375
:1005F0009001A0939101B093920180918F0190910D
:100600009001A0919101B0919201892B8A2B8B2BA3
:1006100031F41092950184EA91E00E94860980915C
:100620007E0190917F01019690937F0180937E01DE
:1006300080917E0190917F018115924031F410925A
:100640007F0110927E0110929301CBB9439894CF11
:10065000C0E0FBCF89B10E946B01F8CF911106C0B9
:100660008FEF8AB9809196018BB9F0CF89B1803D27
:1006700021F481E080939701E9CF809395018091E7
:100680009501803F39F0813F29F0813EF9F60E94C3
:100690000901DCCF10929401D9CF0895CF92DF9257
:1006A000EF92FF920F931F93CF93DF93EC017C01A6
:1006B00080EBE81A8DEFF80AF701C080D18000E0E6
:1006C00010E0980141E0B601CE010E94D6128823C5
:1006D00099F16E01F0EDCF1AFDEFDF0AC6010E941D
:1006E0008609BE01C6010E94810581113BC0F70148
:1006F000E080F18000E010E0980141E0B701CE0118
:100700000E94D612882319F17E01F0EDEF1AFDEF59
:10071000FF0AC7010E948609BE01C7010E94810528
:10072000811120C080E0DF91CF911F910F91FF9048
:10073000EF90DF90CF90089500E010E0980140E046
:10074000B601CE010E94D6128111C3CFD0CF00E0F6
:1007500010E0980140E0B701CE010E94D61281114D
:10076000D3CFE0CFD0932904C0932804DCCFBF922D
:10077000CF92DF92EF92FF920F931F93CF93DF936D
:10078000CDB7DEB7E4970FB6F894DEBF0FBECDBF8E
:1007900062E088E00E94881B62E089E00E94881B7A
:1007A00060E08EE00E94881B60E08FE00E94881B62
:1007B00060E080E10E94881B61E081E10E94881B6B
:1007C00061E08AE00E94881B1AB88AE0E82E90E86F
:1007D000F92E20EFD22E3AEFC32E42E0B42EEDA632
:1007E0001EA62F2DFFA6D8AAC9AABAAA1CAA1BAA60
:1007F0000AE010E03D2D4C2D5B2D60E07CA986E1E8
:1008000094E00E94BD1586E194E0909315048093D6
:100810001404809123048111E2CF84EC91E00E94C2
:100820004E038823E1F2CE0101960E94E50020E00C
:100830004CE151E064EC71E0CE010D960E940E0A8D
:10084000BE016F5F7F4F82E591E00E94430160E04F
:1008500081E10E94C41B81E080936C0082E08BBB2D
:100860008091680082608093680061E081E10E946D
:10087000C41BE4960FB6F894DEBF0FBECDBFDF9168
:10088000CF911F910F91FF90EF90DF90CF90BF908D
:100890000895E4ECF1E0158216A215A214A28FEFE0
:1008A0009FEFDC0187A390A7A1A7B2A71092F40342
:1008B0001092F5031092F60310921504109214048E
:1008C00084E391E090931704809316041092190426
:1008D0001092180481E580931A0481E080931B0430
:1008E00010921C0410921D0410921E0410921F04FA
:1008F0001092200410922104109222048AE2809324
:1009000023041092240410922504109226041092BD
:10091000270488E991E00E94E50082E591E00C94CB
:10092000E500CF93DF93EC0184960E946C19882335
:1009300059F088819981DC01ED91FC910684F7855D
:10094000E02DDF91CF91099480E0DF91CF91089560
:10095000DC016817790731F090E2FB0101900D92FC
:100960009A95E1F70895CF92DF92EF92FF92CF939D
:10097000DF93EC01CC84DD84EE84FF849C01245F52
:100980003F4FB701A6018E819F810E94EC11882301
:1009900059F09A81C114D104E104F10461F4906426
:1009A0009A839A8190689A83DF91CF91FF90EF901C
:1009B000DF90CF9008952FEFC21AD20AE20AF20A0E
:1009C0004C855D856E857F854C155D056E057F05C3
:1009D00041F39F7BE5CFAF92BF92CF92DF92EF9230
:1009E000FF920F931F93CF93DF93EC01888186FFD3
:1009F0000DC010E0812FDF91CF911F910F91FF90DB
:100A0000EF90DF90CF90BF90AF900895888999893B
:100A1000AA89BB8981159E4FAF41B10550F7CE0120
:100A20000E94B304182F882321F3EE81FF81CC8428
:100A3000DD84EE84FF8432E0C31AD108E108F108B6
:100A4000848104C0CC0CDD1CEE1CFF1C8A95D2F7FF
:100A500081899289A389B489C80ED91EEA1EFB1E1A
:100A600000E0A12C82E0B82EEE81FF818281081780
:100A7000B0F425E0B701A601400F511D611D711DA5
:100A8000CF0184960E94BC19009709F4B2CFFC01F3
:100A90009501119221503040E1F70F5FE5CF84813D
:100AA00020E032E002C0220F331F8A95E2F78889E6
:100AB0009989AA89BB89820F931FA11DB11D888BBB
:100AC000998BAA8BBB8B96CFCF93DF93EC01262F0C
:100AD0004C895D896E897F898E819F8184960E9471
:100AE000BC19009759F02C813D812F70332745E0C8
:100AF000220F331F4A95E1F7820F931FDF91CF91A9
:100B00000895FC018081811117C080E2DF011D92F0
:100B10008A95E9F777836683DB0115968C9180319E
:100B200021F0803239F08C3039F480E4808381E028
:100B30008283089580E8FACF80E008952F923F9253
:100B40004F925F926F927F928F929F92AF92BF92DD
:100B5000CF92DF92EF92FF920F931F93CF93DF9389
:100B6000EC015B018A0139018A8180FFD2C0888152
:100B700083FF16C0888D998DAA8DBB8D48895989B0
:100B80006A897B89841B950BA60BB70BA80170E0C3
:100B900060E0481759076A077B07A0F08C0112C074
:100BA00086FF10C0EE81FF818781908555E0880F18
:100BB000991F5A95E1F728893989821B930B801771
:100BC000910760F378011E012CE0220E311C412CAC
:100BD00042E0542EE114F10409F4CFC088899989C8
:100BE000AA89BB89EE81FF814C0121E092222881F4
:100BF000AC01BD0139E076956795579547953A95D3
:100C0000D1F726FF2EC0858D968DA78DB0A1480FF8
:100C1000591F6A1F7B1FEE81FF818114910409F027
:100C20007EC0E11482E0F80608F479C087A190A59F
:100C3000A1A5B2A5481759076A077B0709F46FC039
:100C400085A196A1DC01ED91FC910084F185E02D58
:100C500095010995882309F45CC0C12C82E0D82E47
:100C600076C0D380D4228114910481F4D1100EC0B7
:100C7000892B8A2B8B2B81F527FF29C0858D968D9B
:100C8000A78DB0A18C879D87AE87BF87EE81FF813E
:100C90004C855D856E857F854250510961097109DA
:100CA000848104C0440F551F661F771F8A95D2F7B1
:100CB00081899289A389B489840F951FA61FB71FC4
:100CC000AC01BD014D0D511D611D711DA4CF8C8D59
:100CD0009D8DAE8DBF8DD6CF4C855D856E857F8514
:100CE00023FF0CC08A8186FF09C04F5F5F4F6F4FA3
:100CF0007F4F4C875D876E877F87C8CF9101CF017B
:100D00000E94291087FD05C08111C0CF8881807D98
:100D1000A1F58981826089838FEF9FEF31C0C20185
:100D20008819990967018E159F0508F46C0120E068
:100D3000CF0184960E94BC19009759F3BC01680D3D
:100D4000791D61147104A1F0F30171836083AC0C0F
:100D5000BD1C88899989AA89BB898C0D9D1DA11DFF
:100D6000B11D888B998BAA8BBB8BEC18FD0832CFF9
:100D7000A601C5010E94151EEACFC8018E199F0960
:100D8000DF91CF911F910F91FF90EF90DF90CF9067
:100D9000BF90AF909F908F907F906F905F904F909B
:100DA0003F902F9008958F929F92AF92BF92CF92D3
:100DB000DF92EF92FF920F931F93CF93DF931F92D7
:100DC000CDB7DEB78C01FC0180889188A288B388FA
:100DD000C484D584E684F78430E020E041E050E02C
:100DE000BE016F5F7F4F0E949E050197C9F4898104
:100DF00090E0F801808A918AA28AB38AC486D58657
:100E0000E686F7860F90DF91CF911F910F91FF90AB
:100E1000EF90DF90CF90BF90AF909F908F9008950C
:100E20008FEF9FEFE6CFCF93DF9300D0CDB7DEB744
:100E30001A8219829E012F5F3F4F40E250E070E01E
:100E400060E00E949E05809739F489819A810F9015
:100E50000F90DF91CF91089590E080E0F8CF4F920E
:100E60005F926F927F928F929F92AF92BF92CF923A
:100E7000DF92EF92FF920F931F93CF93DF93EC01DA
:100E80004A015B014C845D846E847F842881222327
:100E900009F45CC0488959896A897B8948155905D4
:100EA0006A057B0581F081149104A104B10469F401
:100EB0001C861D861E861F86888A998AAA8ABB8AF6
:100EC0008A818F7D8A8381E046C023FF2CC0888D74
:100ED000998DAA8DBB8D88159905AA05BB05B0F122
:100EE000EE81FF813481375F7501640181E0C81AAA
:100EF000D108E108F108032E04C0F694E794D794D2
:100F0000C7940A94D2F78A8186FF36C08C8D9D8D56
:100F1000AE8DBF8D8C0D9D1DAE1DBF1D8C879D8719
:100F2000AE87BF87C9CF26FFDBCFEE81FF818781E8
:100F3000908525E0880F991F2A95E1F7B0E0A0E0A1
:100F400088159905AA05BB0508F0B6CF4C865D86C5
:100F50006E867F8680E0DF91CF911F910F91FF9089
:100F6000EF90DF90CF90BF90AF909F908F907F9049
:100F70006F905F904F900895DB01CA010197A1091E
:100F8000B10904C0B695A795979587953A95D2F77C
:100F9000C816D906EA06FB0620F0452B462B472B40
:100FA00049F527FF22C0858D968DA78DB0A18C872E
:100FB0009D87AE87BF878E01045F1F4FC114D10488
:100FC000E104F10409F478CF4C855D856E857F8559
:100FD00098018E819F810E94291091E0C91AD10841
:100FE000E108F108181654F3B1CF8C8D9D8DAE8DAC
:100FF000BF8DDDCFC81AD90AEA0AFB0ADCCFCF922F
:10100000DF92EF92FF920F931F93CF93DF93EC0148
:10101000122F80E2DE011D928A95E9F7FB0186819D
:1010200097819F838E835D834C83C48CD58CE68CA3
:10103000F78CC886D986EA86FB86FC01F0964F704D
:10104000552735E0440F551F3A95E1F7E40FF51F9A
:10105000238523FD11C0277328833385387111F44C
:10106000286028830B83212F2370213009F44BC083
:1010700038F0223009F445C018821A8280E038C066
:1010800021E015FDF9CF2A833A8131FF06C028817E
:10109000422F417189F720622883212F2870232B4A
:1010A0002A83DC0197964D915D916D917C919A9781
:1010B0004C8B5D8B6E8B7F8B4489558970E060E033
:1010C000BA0155274427C28CD38CF12CE12C4C2932
:1010D0005D296E297F2915FF1DC041155105610548
:1010E000710599F48A8180688A8312FD20C081E0AD
:1010F000DF91CF911F910F91FF90EF90DF90CF90F4
:10110000089523E0C0CF22E0BECF0E948312811158
:10111000E9CFB2CF4C8F5D8F6E8F7F8F848D958D91
:10112000A68DB78D888F998FAA8FBB8FDECF488D04
:10113000598D6A8D7B8DCE010E942F07882309F47B
:101140009BCFD5CF8F929F92AF92BF92DF92EF92BB
:10115000FF920F931F93CF93DF93EB01FC0120814C
:1011600021115DC02881207D09F459C008891989A1
:101170002A893B890F71112722273327012B022B44
:10118000032B09F04CC0142F7C0100E0D12C88887F
:101190009988AA88BB88CE010E941307FC01892B7D
:1011A000F1F180818823D9F18E3279F1853E69F1A0
:1011B000938593FD2CC0002371F09F01255F3F4F65
:1011C00080E080FB879587F99191890FE217F307FB
:1011D000C1F7D81224C0B501A40185E076956795C2
:1011E000579547958A95D1F7212FBE01C7010E94D7
:1011F000FF07DF91CF911F910F91FF90EF90DF904C
:10120000BF90AF909F908F90089500E0C0CF9F3027
:10121000E1F786FFBCCF082F0F71D584B8CF80E0EF
:10122000E8CFEF92FF920F931F93CF93DF9300D0FD
:1012300000D01F92CDB7DEB7FC012081222309F434
:1012400063C08C01828187FF56C061E0CF010E949C
:1012500064057C01009789F4F801818181608183B4
:1012600080E00F900F900F900F900F90DF91CF9133
:101270001F910F91FF90EF900895FC018081853EB2
:1012800059F3F80180818773F7018387F801808122
:1012900083FF09C0808D918DA28DB38DF701848F5E
:1012A000958FA68FB78FF801848D958DA68DB78DFC
:1012B000F701938F828FB58BA48BE0912A04F09174
:1012C0002B043097A1F0AE014B5F5F4FBE016F5F03
:1012D0007F4FCE01039609958B819C81F701918FF9
:1012E000808F938B828B89819A81978B868BF80173
:1012F00082818F778283F801868197810E94910491
:10130000882309F4A9CFADCF81E0ABCFCF93DF9392
:10131000EC010E94110918821A82DF91CF91089581
:10132000DF92EF92FF920F931F93CF93DF93CDB78E
:10133000DEB7E7970FB6F894DEBF0FBECDBF7C01D6
:101340008B015FAB4EABD22E19821A821B82FC013D
:101350008081882379F080E0E7960FB6F894DEBFAD
:101360000FBECDBFDF91CF911F910F91FF90EF90F6
:10137000DF900895FB018081807D69F3EEA9FFA9CC
:1013800080818F32D9F4EEA9FFA980818F3221F4B8
:101390003196FFABEEABF7CFF80166817781811113
:1013A00004C0C7010E948105D7CFCE0101960E94DB
:1013B0008105882381F28E010F5F1F4F6EA97FA9DF
:1013C0009E012A5C3F4FAE014F5D5F4FC7010E94F7
:1013D000A00F882309F4BFCFEEA9FFA9808188233D
:1013E000A1F020E0AE014F5D5F4FB801C7010E9440
:1013F000230E882309F4AFCFB701CE0101960E94D6
:10140000A804C7010E948609D6CF2D2DAE014F5DDD
:101410005F4FB801C7010E94230E9ECF6115710571
:1014200021F0605D7D4F0C94900980E008952F922B
:101430003F924F925F926F927F928F929F92AF9264
:10144000BF92CF92DF92EF92FF920F931F93CF93B1
:10145000DF93CDB7DEB728970FB6F894DEBF0FBE87
:10146000CDBF9E838D834B015A01DC0112968C9176
:1014700081FF1AC083FD23C0A50170E060E0ED810B
:10148000FE8180899189A289B38980959095A095E4
:10149000B09565011F01FCE02F0E311C84179507E4
:1014A000A607B70708F0EFC0AD81BE8111968C91F9
:1014B0001197816011968C93B12CA12C53C0AD81F2
:1014C000BE8158964D915D916D917C915B97CD0158
:1014D0000E942F078111D0CFE7CF91018F8198858E
:1014E0000E94291087FDE0CF81110FC18D819E815F
:1014F0000E94B304811109C1D7CFED81FE81848D93
:10150000958DA68DB78D0097A105B10581F4CF010A
:101510000E94B304882341F2ED81FE818485958584
:10152000A685B785848F958FA68FB78FEEC0ED8186
:10153000FE8184879587A687B787E7C021E075C0BD
:10154000ED81FE81808D918DA28DB38D84159505E1
:10155000A605B70508F5408E518E628E738E828186
:1015600080688283C50128960FB6F894DEBF0FBE4F
:10157000CDBFDF91CF911F910F91FF90EF90DF9042
:10158000CF90BF90AF909F908F907F906F905F9023
:101590004F903F902F90089580912A0490912B04B2
:1015A000892B01F3ED81FE81828180688283DACF0D
:1015B000EF81F8854250510961097109848104C0A5
:1015C000440F551F661F771F8A95D2F7818992892C
:1015D000A389B489480F591F6A1F7B1F80E092E0DE
:1015E000801B910B76018C159D0508F47C0101157B
:1015F000110509F0A3CFAD81BE8150964D905D904D
:101600006D907C90539758968D919D910D90BC91C3
:10161000A02D481659066A067B0630F4AD81BE81BE
:1016200012968C9185FF8ACF25E0CF0184960E9487
:10163000BC19009709F438CFA701B401800F911F9E
:101640000E94151E0E0D1F1D0115124051F4ED8153
:10165000FE818681978184960E946C19882309F403
:1016600023CFED81FE8180899189A289B3898E0D76
:101670009F1DA11DB11D808B918BA28BB38B8E0CF6
:101680009F1CCE18DF08ED81FE814088518862885A
:101690007388C114D10409F453CF86819781988748
:1016A0008F83DC011396FC90B301A20199E076953B
:1016B0006795579547959A95D1F7F4228201117055
:1016C000F11023C044855585668577850115110580
:1016D00009F06ECF411551056105710509F40DCF73
:1016E000228126FFFACE808D918DA28DB38D481672
:1016F00059066A067B0608F0F0CE4F5F5F4F6F4FCA
:101700007F4F4487558766877787AD81BE81169660
:10171000ED91FC9117971C964D915D916D917C9187
:101720001F974250510961097109848104C0440F17
:10173000551F661F771F8A95D2F781899289A389E1
:10174000B489840F951FA61FB71FAC01BD014F0DB3
:10175000511D611D711D0115110509F03FCFC11407
:10176000B2E0DB0608F43ACF87A190A5A1A5B2A507
:10177000481759076A077B0741F414A28FEF9FEFC0
:10178000DC0187A390A7A1A7B2A785A196A1DC0140
:10179000ED91FC910088F189E02D94010995882351
:1017A00009F482CEE12C82E0F82E5BCFFC019C0193
:1017B000255F3F4F80E080FB879587F99191890FE6
:1017C000E217F307C1F70895CF93DF93EC01AB0164
:1017D00070E060E085E0440F551F661F771F8A9513
:1017E000D1F7CE010E942F07882329F0CE01DF9187
:1017F000CF910C94130790E080E0DF91CF91089592
:101800007F928F929F92AF92BF92CF92DF92EF9290
:10181000FF920F931F93CF93DF93CDB7DEB7A097BF
:101820000FB6F894DEBF0FBECDBF7C015B018A010D
:10183000722E80E2F701DE01119601900D928A95D9
:10184000E1F7DA018D919C91119713969C938E93F9
:10185000129799249394791408F453C0B501691927
:101860007109CE0101960E94E40B6C01892B11F4E1
:1018700020E014C0812C482DB601C7010E94FB0F47
:10188000D8011296ED91FC91139714962D913C91ED
:101890002E173F07C1F421E0892B51F7822FA09624
:1018A0000FB6F894DEBF0FBECDBFDF91CF911F9171
:1018B0000F91FF90EF90DF90CF90BF90AF909F90EF
:1018C0008F907F9008958038910590F62FE9280F2A
:1018D0002A3108F480529F012F5F3F4FD8011396A1
:1018E0003C932E93129790812FE9290F2A3108F407
:1018F00090529813BDCF8394BDE08B12BCCF9394CC
:10190000AACF21E0CBCF9F92AF92BF92CF92DF922E
:10191000EF92FF920F931F93CF93DF93CDB7DEB774
:10192000A0970FB6F894DEBF0FBECDBFFC016B01D0
:101930007A01B22E90E2DE01119601900D929A95F5
:10194000E1F7CA010A960E94D60BA82ED7018D9105
:101950009C91119713969C938E93129711E000E03F
:101960008FE0982EB11608F451C0B601611B7109C1
:10197000CE0101960E94E40BFC01892B09F459C0A9
:10198000AF81B88594968C919497816094968C934E
:10199000812F1B1101C08064808393861486A586E5
:1019A000138E128ED70114964D915C9160E0D70191
:1019B00012962D913C9113972417350779F4002343
:1019C000C9F00F5F2FEF3FEF6530C0F43283218302
:1019D0006F5F32966D3059F71F5FC4CFC901019612
:1019E00013969C938E931297D9012C91022E000C82
:1019F000330BEACF30E020E001E0E6CF6B3018F4A3
:101A000035832483E5CF37832683E2CF81E0A09618
:101A10000FB6F894DEBF0FBECDBFDF91CF911F91FF
:101A20000F91FF90EF90DF90CF90BF90AF909F907D
:101A3000089580E0ECCFFF920F931F93CF93DF9335
:101A4000FC010481158120813181DC011A964596C3
:101A500040E24D93A817B907E1F781E0D9019C91C5
:101A60009E3209F480E0E9012F5F3F4F98819E325A
:101A7000D1F3980121503109C217D30720F4D901BD
:101A80009C919E32B9F750E067E0A0E040E078E03A
:101A9000C017D10708F045C098819E3241F42C1739
:101AA0003D0769F46AE0A8E070E12196F1CF923237
:101AB000A1F09C3791F0B5EAB90FB33070F0B6EDF4
:101AC000B90FB63010F49D3241F4B6ECB90FB63010
:101AD00020F0BFEDB90FBE3528F0907C9038E9F5C5
:101AE00080E0E3CF6A1740F46A30D1F02C173D074D
:101AF000B8F0E9012197F4CFBFE9B90FBA3188F501
:101B00009052572BFF24F394FA0EAE0FBF2FB11D46
:101B10001A969C93B6E0BF1508F0F086AF2DC5CF9E
:101B200080E092859032B9F0882351F0452309F086
:101B300052E05187DF91CF911F910F91FF9008954F
:101B400081E081878085E80FF11D8EE7828781E340
:101B5000838781E0EFCF80E0EDCF9FE580E06A17DB
:101B600018F2BFEBB90FBA3168F6472BCBCF9F9273
:101B7000AF92BF92CF92DF92EF92FF920F931F939B
:101B8000CF93DF937C018B01FB01B08422E6A22E70
:101B9000D0E0C0E03EE7932E6B01FAE0CF0ED11CFF
:101BA0000E942B1BC60FD71F83E08B1510F493E008
:101BB000B92E94E09B0D8C2F8F708A3068F5805D74
:101BC000F801E90FF11D828784E0D695C7958A95C3
:101BD000E1F79150B91678F3F801EB0DF11D9286FB
:101BE00040E050E0BA01C7010E942F07C7010E94E0
:101BF0001307009799F481E0F7019181911180E03A
:101C0000DF91CF911F910F91FF90EF90DF90CF90D8
:101C1000BF90AF909F900895895CD2CFFC01208146
:101C2000222379F0238523FDE1CF4BE050E0BC0176
:101C3000C6010E94081E892BC9F6AA94A110B0CF34
:101C4000DECF81E0DDCF2F923F924F925F926F9275
:101C50007F928F929F92AF92BF92CF92DF92EF923C
:101C6000FF920F931F93CF93DF93CDB7DEB72F97DC
:101C70000FB6F894DEBF0FBECDBF8C017B01FA0119
:101C8000DB018C91807DD1F480E02F960FB6F89423
:101C9000DEBF0FBECDBFDF91CF911F910F91FF909F
:101CA000EF90DF90CF90BF90AF909F908F907F90FC
:101CB0006F905F904F903F902F900895D8018C9136
:101CC0008111E2CF868197810C966DE070E00E94D1
:101CD000F21B6B8781858370772473948111760E54
:101CE0002E836F011F870E87F7010680F781E02D95
:101CF000F987E88740E050E0BA01C7010E942F074A
:101D0000912C812C1F82612C10E000E01A86C60104
:101D10000A969D878C87D70150962D903D904D90C7
:101D20005C90539785E056944794379427948A950E
:101D3000D1F75101C7010E941307FC01892BA9F5B6
:101D4000F70181818111A0CFEE81E4FF9DCF8E2F1D
:101D500083708150823008F097CF111101C0450186
:101D6000171558F4C7010E941307892B09F083C087
:101D7000D70111968C91811187CF012F10E0A72CEC
:101D8000B12C0A151B0508F078C0C7010E94EB04AE
:101D9000882309F479CFE885F9858281F0E18F9F66
:101DA000C0011124080F191FECCF9081953E11F04E
:101DB00091110CC0111101C04101171508F41F5FEA
:101DC000992311F2953E29F400E0A5CF171508F4E8
:101DD00010E09E32C9F383858F3019F5011119C0C7
:101DE000292F2F71622E8B85821395CF96FF93CF6B
:101DF00095859F83082FB1E06B128DCFB1016F5F86
:101E00007F4F202FA601C7010E94000C811183CFB4
:101E1000DBCF6A949611D8CF8585AF818A1759F3A5
:101E2000D3CF83FDD1CF0023A1F021E062122CCFCC
:101E3000CF010E94D60B9F81891326CFBE81B6FDAC
:101E400023CF2E81A501B7018E859F850E94FF07B4
:101E50001CCF4BE050E06C857D85CF010E94081EB1
:101E6000892B09F058CFD60119968C9180FFE6CFC7
:101E700091E09A8750CF1F5F73CF2A8521114AC006
:101E80000FEF070D5401A00EB11C202FA601B501C4
:101E9000C7010E94830C882309F4F6CEB501C7015F
:101EA0000E94E40B4C01892B09F4EECE80E2D401B0
:101EB0001D928A95E9F7F6013A968BE0D4010190DC
:101EC0000D928A95E1F7F60181858871D4011C96FF
:101ED0008C931C97E0912A04F0912B04309709F120
:101EE000AE014B5F5F4FBE016F5F7F4FCE01039628
:101EF00009958B819C81F401918B808B89819A81DA
:101F0000978786878D818587E885F98584A181609B
:101F100084A397CFB601C7010E94B70D8111B0CF3E
:101F2000B3CE81E29CE551969C938E93509759963F
:101F30009C938E93589753969C938E935297E4CF8D
:101F4000CF93DF93DA01FB01AF014F5F5F4F8081D9
:101F5000803291F11196FC93EE9317961C921E928B
:101F60001697BF01EB019991AE01992339F19F3288
:101F700029F19032E4F1892F877F8232C1F19A33BF
:101F8000B1F1892F8F7B8C3391F182EC890F8230F4
:101F900070F19C3561F1BE016E1B7F0B9E3251F0DA
:101FA000903241F017967C936E9316971596DC93BA
:101FB000CE931497BA01D6CFFA01C6CF16968D915B
:101FC0009C91179701978F3F910588F4462F972F83
:101FD000FB018191BF018032C9F38F32B9F3E9016E
:101FE00048839983CD01DF91CF910C941B0D80E044
:101FF000DF91CF910895453048F450E0440F551FCC
:10200000460F571FFA018181928108954B3050F499
:102010004550550B440F551F460F571FFA01868533
:10202000978508954D3050F44B50550B440F551F74
:10203000460F571FFA01848D958D089590E080E03A
:102040000895FC013681323009F4226084960C94A4
:10205000BC196F927F928F929F92AF92BF92CF9254
:10206000DF92EF92FF920F931F93CF93DF93423053
:1020700051056105710580F48FEFDF91CF911F91BC
:102080000F91FF90EF90DF90CF90BF90AF909F9017
:102090008F907F906F900895FC01C18CD28CE38C5F
:1020A000F48CC416D506E606F70630F339016A014A
:1020B0008C0185818032A1F585899689A789B08DAB
:1020C000E7E07695679557954795EA95D1F7480FDC
:1020D000591F6A1F7B1F20E0C8010E942110009732
:1020E00059F2CC0CDD1CCC0CDD1CF1E0DF228C0D98
:1020F0009D1DFC0180819181A281B381F801418DF8
:10210000528D638D748D481759076A077B0708F451
:102110006DC0F30180839183A283B38381E0ADCF4F
:102120008031D9F4458956896789708D4D0D511DCF
:10213000611D711D20E0CF010E942110009709F45C
:102140009BCFCC0CDD1CF1E0DF228C0D9D1DFC0132
:1021500080819181B0E0A0E0D1CF8C3009F08CCFAC
:10216000EA01D695C795C40FD51FCE01892F9927AF
:10217000869585889688A788B08C880E991EA11CA4
:10218000B11C20E0B501A401CF010E9421100097ED
:1021900009F472CF9E013170FC01E20FF31FC08180
:1021A000D0E02F5F3F4F2115F2E03F0779F4B501F2
:1021B000A4014F5F5F4F6F4F7F4F20E0C8010E9427
:1021C0002110009709F458CF30E020E0820F931FD0
:1021D000FC018081D82BC0FE07C084E0D695C7954E
:1021E0008A95E1F7CE01B6CFDF70FCCF80E045CF16
:1021F0004F925F926F927F928F929F92AF92BF9217
:10220000CF92DF92EF92FF920F931F93CF93DF93C2
:1022100000D000D000D0CDB7DEB742305105610507
:102220007105C0F480E026960FB6F894DEBF0FBEAD
:10223000CDBFDF91CF911F910F91FF90EF90DF9075
:10224000CF90BF90AF909F908F907F906F905F9056
:102250004F900895DC015996CD90DD90ED90FC9063
:102260005C97C416D506E606F706E0F24801590168
:102270006A017B019E838D83FC018581803231F56B
:1022800085899689A789B08D17E0769567955795CA
:1022900047951A95D1F7480F591F6A1F7B1F21E0F8
:1022A000CF010E942110009709F4BCCFCC0CDD1C9B
:1022B000CC0CDD1CF1E0DF228C0D9D1DDC018D922C
:1022C0009D92AD92BC92139781E0ADCF8031D9F44D
:1022D000ED81FE81458956896789708D4D0D511DAF
:1022E000611D711D21E0CF010E942110009709F4AA
:1022F00099CFCC0CDD1CF1E0DF228C0D9D1DDC01A3
:102300000D931C93E1CF8C3009F08CCF8A01169588
:102310000795040F151FC801892F99278695ED8110
:10232000FE81458856886788708C480E591E611C4E
:10233000711C21E0B301A201CF010E94211000977E
:1023400009F470CF1170382DFC01E00FF11FB701B7
:10235000A601417055276627772749835A836B83E7
:102360007C83C0FE08C040814F7050E1859E900183
:102370001124342F322B3083F8013196E11562E0BD
:10238000F60781F4B301A2014F5F5F4F6F4F7F4F9C
:1023900021E08D819E810E942110009709F442CF97
:1023A000F0E0E0E024E0B694A794979487942A950F
:1023B000D1F7082DE80FF91F89819A81AB81BC8183
:1023C000892B8A2B8B2B31F40081007F82948FE044
:1023D00088220829008378CF3F924F925F926F92B4
:1023E0007F928F929F92AF92BF92CF92DF92EF92A5
:1023F000FF920F931F93CF93DF9300D000D0CDB700
:10240000DEB75C012A013B014901FC01C184D28491
:10241000E384F484C414D504E604F70410F011E056
:1024200003C07B016A0110E0FFEFCF1ADF0AEF0A59
:10243000FF0AF501818D928DA38DB48D8C159D05BC
:10244000AE05BF0538F4111131C0C184D284E384D4
:10245000F484E5CF4C145D046E047F0439F19E01D1
:102460002F5F3F4FB701A601C5010E94291087FDCC
:102470001DC08823C9F289819A81AB81BC81892BD7
:102480008A2B8B2B89F6112329F0F501C186D28680
:10249000E386F4860FEF1FEF2FEF3FE0B701A601B1
:1024A000C5010E94F810382E811118C0312C832DDF
:1024B0000F900F900F900F90DF91CF911F910F9180
:1024C000FF90EF90DF90CF90BF90AF909F908F9054
:1024D0007F906F905F904F903F900895411451040A
:1024E0006104710431F4F401C082D182E282F3828A
:1024F000DECF97018601B301A201C5010E94F81049
:102500008111F1CFD3CF9F92AF92BF92CF92DF9242
:10251000EF92FF920F931F93CF93DF9300D000D0E1
:10252000CDB7DEB75C016A017B019E012F5F3F4F93
:10253000B701A601C5010E942910982E87FD34C05D
:1025400000E010E09801B701A601C5010E94F81053
:10255000882351F1F5014185528563857485C41640
:10256000D506E606F70650F4F1E0CF1AD108E108E7
:10257000F108F501C186D286E386F486C980DA8047
:10258000EB80FC809110D1CF0F900F900F900F90A7
:10259000DF91CF911F910F91FF90EF90DF90CF903F
:1025A000BF90AF909F90089580E0EECF4F925F92E2
:1025B0006F927F928F929F92AF92BF92CF92DF9253
:1025C000EF92FF920F931F93CF93DF93EC01B42E02
:1025D00068017901798368831D8281E090E0A0E041
:1025E000B0E089879A87AB87BC878E010C5D1F4F4F
:1025F0007EA36DA31CA28FEF9FEFDC018FA398A792
:10260000A9A7BAA74423B1F124E0241790F480E0ED
:10261000DF91CF911F910F91FF90EF90DF90CF90BE
:10262000BF90AF909F908F907F906F905F904F90F2
:10263000089520E040E050E0BA01C8010E94BC19B2
:10264000009729F382549E4F2B2D30E02150304FBC
:1026500044E0220F331F4A95E1F7FC01E20FF31F1C
:1026600084818823A1F280818F7789F6C084D18408
:10267000E284F38420E0B701A601C8010E94BC19DE
:10268000FC01892B21F2838594858115924009F004
:10269000BECF20898FEF820F823008F0B8CF2E8313
:1026A00035853A838FEF830F8B831C8249E050E09E
:1026B00081E0381749F04150510909F4A8CF9C81B5
:1026C0009F5F9C83880FF5CF86899789B0E0A0E053
:1026D0008D879E87AF87B88B892B8A2B8B2B41F4F4
:1026E00084A195A1A6A1B7A18D879E87AF87B88B3E
:1026F0008685978526013701480E591E611C711C7D
:102700004D8A5E8A6F8A788E0189128918870F83B5
:102710008D849E84AF84B888A22FB0E0A501940177
:102720000E941B1C460E571E681E791E4D8E5E8E23
:102730006F8E78A285E0000F111F8A95E1F7015096
:102740001E4F012F11270695400E511E611C711C52
:10275000498A5A8A6B8A7C8A83899489B0E0A0E08E
:102760000097A105B10521F480A191A1A2A1B3A177
:10277000C418D508E608F7088C0D9D1DAE1DBF1DB9
:102780002C816C017D0104C0F694E794D794C79422
:102790002A95D2F7D701C6010196A11DB11D898FD7
:1027A0009A8FAB8FBC8F85EFC8168FE0D806E104F7
:1027B000F10440F48CE08D838BA69CA6ADA6BEA64A
:1027C00081E026CF80E125EFC2162FEFD206E1048B
:1027D000F10488F384A595A5A6A5B7A58D8F9E8F36
:1027E000AF8FB8A380E2E7CFDC01ED91FC910684C6
:1027F000F785E02D0994DC01ED91FC910084F185D1
:10280000E02D09940F931F93DC01ED91FC9102845C
:10281000F385E02D09951F910F910895DC01ED914D
:10282000FC910088F189E02D09940F931F93DC013E
:10283000ED91FC910288F389E02D09951F910F918C
:1028400008950F931F93DC01ED91FC910284F385B1
:10285000E02D01E010E009951F910F910895089572
:1028600062E170E00C94E71ACF93DF93FC01C08122
:10287000D1810E942B1BC61BD70B8D2F881F882749
:10288000881FDF91CF910895CF93DF93FC012385BB
:10289000222359F0EC010190F081E02D0684F785A8
:1028A000E02D09950E943A1A1B86DF91CF91089579
:1028B0008EBD00000DB407FEFDCF8EB508958FEFDD
:1028C0000C945814FC018685811124C03481258123
:1028D00080912E04882381F09FB7F89480912E0474
:1028E0008130A9F48DB380932C044DB380912D04D5
:1028F000809584238DBB9FBF3CBD2DBD81E0868725
:1029000060E084850E946A198FEF0C9458149093AC
:102910002C04F2CF0895CF93DF93FC012685222368
:10292000B9F0EC0161E084850E946A198FEF0E9482
:10293000581480912E04882351F09FB7F894209169
:102940002E0480912C04213031F48DBB9FBF1E8654
:10295000DF91CF9108958FBFFACF0F931F93CF933D
:10296000DF93FC01278510E0213089F0EC0106851A
:10297000011102C00E9462140E945F1411E08F3F97
:1029800009F410E0011103C0CE010E948B14812FC5
:10299000DF91CF911F910F910895CF92DF92EF9227
:1029A000FF920F931F93CF93DF9300D0CDB7DEB785
:1029B0008C016B017A010E942B1B645D7E4F7A8330
:1029C00069830E945F14F801808B8F3FC1F4CE01B0
:1029D00001960E9434148823A1F38EE1F8018587C3
:1029E000C8010E948B1480E00F900F90DF91CF916F
:1029F0001F910F91FF90EF90DF90CF9008958E3F41
:102A000011F089E1EBCFE114F104D9F08FEF8EBD25
:102A1000F601C7013FEF019749F0000000000DB437
:102A200007FEFDCF2EB53EBD2193F5CFF1E0EF1AA5
:102A3000F108EC0CFD1C0DB407FEFDCF8EB5F701BF
:102A40008083F801108A0E945F140E945F1481E065
:102A5000CBCF40E052E00C94CD140F931F93CF9353
:102A6000DF9300D0CDB7DEB78B010E942B1B600F28
:102A7000711F7A8369830E945F148F3F71F0CE01CA
:102A800001960E9434148823B1F380E00F900F90D8
:102A9000DF91CF911F910F91089581E0F7CFDF92E1
:102AA000EF92FF920F931F93CF93DF93EC01162FBA
:102AB000022FF32EE42ED52EE881F9810684F785C6
:102AC000E02D09958823C9F18E85811103C0CE01BF
:102AD0000E946214111128C0812F80640E94581432
:102AE0008D2D0E9458148E2D0E9458148F2D0E94F7
:102AF0005814802F0E94581487E8111101C085E9ED
:102B00000E9458140E945F141AE00E945F14888B80
:102B100087FF02C01150C9F7DF91CF911F910F912C
:102B2000FF90EF90DF9008951C30B1F26CE271E0FD
:102B3000CE010E942D158111CFCF8FEFEDCFCF9217
:102B4000DF92EF92FF921F93CF93DF93EC01162F4A
:102B500069017A0120E030E0A90167E30E944F1586
:102B6000A7019601612FCE01DF91CF911F91FF90B8
:102B7000EF90DF90CF900C944F158F929F92AF9271
:102B8000BF92DF92EF92FF920F931F93CF93DF9349
:102B9000CDB7DEB72A970FB6F894DEBF0FBECDBF14
:102BA0007C011C832D833E834F835887FC01138651
:102BB00016861786108A118A1586802F04870E9430
:102BC000671961E0F70184850E946A1982E5F701BF
:102BD000848315820E94041A81E0F7018387C7016C
:102BE0000E94621461E0F70184850E946A191AE06C
:102BF0000E945F141150E1F760E0F70184850E94A4
:102C00006A190E942B1B6053784F7A83698320E0F6
:102C100030E0A90160E0C7010E944F15D82EF1E015
:102C20008F17F9F0CE0101960E943414882379F3AE
:102C300081E0F7018587C7010E948B1480E02A9606
:102C40000FB6F894DEBF0FBECDBFDF91CF911F91BD
:102C50000F91FF90EF90DF90BF90AF909F908F907B
:102C600008952AEA31E040E050E068E0C7010E94A0
:102C70004F1582FD11C014E00E945F14F701808B94
:102C80001150D1F78A3AE9F0CE0101960E9434142E
:102C9000882339F386E0CDCF01E0812C912C5401BB
:102CA000A501940169E2C7010E949F15182F88238E
:102CB00079F0CE0101960E943414882389F387E1CC
:102CC000B8CF02E0812C912CA12C30E4B32EE8CFB8
:102CD0000230C1F420E030E0A9016AE3C7010E949C
:102CE0004F15882311F082E1A4CF0E945F14807CED
:102CF000803C09F403E00E945F140E945F140E946C
:102D00005F14D02EC7010E948B144D815E816F81AC
:102D1000788580E896E9A8E9B0E0481759076A077E
:102D20007B0740F4B695A795979587951F5F16305A
:102D3000A1F717E0812F806A8695F70184831095AB
:102D400011701583D18A8C818170828781E077CF61
:102D50000F931F93CF93DF93EC018A0120E030E0C3
:102D6000A9010E944F15882339F08CE18D87CE018F
:102D70000E948B1410E00CC040E150E0B801CE017D
:102D80000E94CD14182F882391F3CE010E948B143A
:102D9000812FDF91CF911F910F9108950F931F9372
:102DA000CF93DF93CDB7DEB760970FB6F894DEBF51
:102DB0000FBECDBFAE014F5F5F4F69E00E94A81606
:102DC000882309F483C089818295869586958370CE
:102DD00009F055C06F8170E090E080E03AE0660F46
:102DE000771F881F991F3A95D1F766277C7088272F
:102DF0009927098510E046E0159507954A95E1F772
:102E0000012E000C220B330B062B172B282B392BF2
:102E1000888590E0B0E0A0E0BC01CD0152E0660FF3
:102E2000771F881F991F5A95D1F7602B712B822B22
:102E3000932B6F5F7F4F8F4F9F4F2A85220F322F2B
:102E400036702B85221F2227221F232B3E813F70A5
:102E5000230F3327331F2750310904C0660F771F14
:102E6000881F991F2A95D2F760960FB6F894DEBF97
:102E70000FBECDBFDF91CF911F910F91089581308B
:102E800029F56885062F10E030E020E09801112731
:102E90000027002711272F73332789859A859827C4
:102EA00089279827B0E0A0E0BC01CD01602B712BF1
:102EB000822B932B6F5F7F4F8F4F9F4F2AE0660FC0
:102EC000771F881F991F2A95D1F7CECF60E070E059
:102ED000CB01CACFCF93DF93EC018989833039F0DE
:102EE00089E0440F551F661F771F8A95D1F79A0115
:102EF000AB0162E1CE010E944F15882349F08CE0BE
:102F00008D87CE010E948B1480E0DF91CF910895D0
:102F100081E08F87FACFCF93DF93EC011F8620E00B
:102F200030E0A9016CE00E944F15882349F089E048
:102F30008D87CE010E948B1480E0DF91CF910895A0
:102F4000CE010E948B1481E0F8CF8F929F92AF92B6
:102F5000BF92CF92DF92EF92FF920F931F93CF9386
:102F6000DF93EC014A015B0169018F85813049F4EF
:102F70008E819F81A885B98588159905AA05BB050D
:102F8000C9F0B501A401CE010E946A1781110EC0DB
:102F900080E0DF91CF911F910F91FF90EF90DF9034
:102FA000CF90BF90AF909F908F9008958E829F8218
:102FB000A886B986F12CE12CE016F10661F0B60185
:102FC000CE010E942915882319F38FEFE81AF80A19
:102FD0008EEFD81AF1CF8E819F81A885B9858E0D8D
:102FE0009F1DA11DB11D8E839F83A887B9878A85E8
:102FF0008111CFCFCE01DF91CF911F910F91FF9023
:10300000EF90DF90CF90BF90AF909F908F900C94F7
:103010008B170F931F93CF93DF938C01862FEA01B9
:103020000E945814FE0181918EBDDE5FEC17FD07F2
:1030300041F08191000000000DB407FEFDCF8EBD70
:10304000F5CF0DB407FEFDCF8FEF0E9458148FEF20
:103050000E9458140E945F14F801808B8F71853094
:1030600059F081E28587C8010E948B1480E0DF91CE
:10307000CF911F910F91089581E0F9CF0F931F9386
:10308000CF93DF93EC018B0168E572E00E942D1570
:10309000811107C085E28D87CE010E948B1480E0EC
:1030A00007C0A8016CEFCE010E9409188823A1F384
:1030B000DF91CF911F910F910895EF92FF920F939F
:1030C0001F93CF93DF93EC0179011A85112389F0C7
:1030D000E881F9810288F389E02D01E010E009958B
:1030E000182F812FDF91CF911F910F91FF90EF90BB
:1030F00008958989833039F089E0440F551F661F90
:10310000771F8A95D1F79A01AB0168E1CE010E9441
:103110004F15882331F08DE08D87CE010E948B14EE
:10312000E0CFA7016EEFCE010E9409188823A9F312
:1031300068E572E0CE010E942D15082F84E200237D
:1031400059F320E030E0A9016DE0CE010E944F1557
:10315000882311F08AE0E0CF0E945F148111FACF3A
:10316000CE010E948B14102FBCCFCF93DF93EC01C4
:103170008989833039F089E0440F551F661F771F16
:103180008A95D1F79A01AB0169E1CE010E944F15F2
:10319000882349F08EE08D87CE010E948B1480E059
:1031A000DF91CF91089582E08F8781E0F9CF1F935F
:1031B000CF93DF93EC0168E572E00E942D15182F84
:1031C000882361F08DEF0E945814CE010E948B1469
:1031D0001F86812FDF91CF911F9108958FE18D87F9
:1031E000CE010E948B14F5CFFC012785223011F40B
:1031F0000C94D718213011F40C948B1781E00895AA
:103200008F929F92AF92BF92CF92DF92EF92FF92F6
:103210000F931F93CF93DF93EC014A015B01690188
:103220008F85823049F48E819F81A885B985881564
:103230009905AA05BB0559F0B501A401CE010E946C
:10324000B518882399F18E829F82A886B986F12CC1
:10325000E12CE016F10661F0B601CE010E943E18A5
:10326000882321F18FEFE81AF80A8EEFD81AF1CFF0
:103270008E819F81A885B9858E0D9F1DA11DB11DD1
:103280008E839F83A887B9878A85811113C0CE0159
:10329000DF91CF911F910F91FF90EF90DF90CF9032
:1032A000BF90AF909F908F900C94D718CE010E9442
:1032B0008B1480E0DF91CF911F910F91FF90EF90E1
:1032C000DF90CF90BF90AF909F908F90089561E076
:1032D0000C94881B0C94C41B8F929F92AF92BF9248
:1032E000EF92FF921F93CF93DF93DC012C9111E0BB
:1032F00020FF17C0EC0189819A817D01BCE0EB0EB3
:10330000F11C4B815C816D817E81DC01ED91FC9132
:103310000088F189E02D97010995182F81110CC0C3
:1033200010E0812FDF91CF911F91FF90EF90BF9020
:10333000AF909F908F900895888181FD04C088810F
:103340008E7F8883EECF89819A814B815C816D81EC
:103350007E818F809884A984BA84480D591D6A1D86
:103360007B1DDC01ED91FC910088F189E02D970136
:1033700009958111E4CFD4CFCF92DF92EF92FF92E3
:103380001F93CF93DF93DC011196ED91FC91EF2B0E
:1033900051F490E080E0DF91CF911F91FF90EF908A
:1033A000DF90CF900895122F6A017B01EC018B8191
:1033B0009C81AD81BE818C159D05AE05BF0561F078
:1033C000CE010E946C19882321F312FF0CC01882D1
:1033D000CB82DC82ED82FE8213702881122B18834F
:1033E000CE010C96D8CF89819A81DC01ED91FC91B8
:1033F0000084F185E02D9E01245F3F4FB701A601B7
:1034000009958111E4CFC5CFCF93CFB7F8948091C0
:103410002F04811127C0E0EAF0E08491E9E8F0E0B0
:103420009491E82FF0E0EE0FFF1FE954FF4FA591B4
:10343000B491EC91E92321F461E08AE00E94C41B7D
:1034400061E08AE00E94881B8CB580618CBD8CB5E0
:1034500080648CBD61E08DE00E94881B61E08BE0A0
:103460000E94881B80912F048F5F80932F04CFBF11
:10347000CF9108959FB7F89480912F04882319F075
:10348000815080932F0480912F04811105C08CB549
:103490008F7B8CBD10922E049FBF0895FC0180810C
:1034A0009181009711F00C94C21C0895CF93DF9383
:1034B000EC0188819981009711F00E94C21C198249
:1034C00018821D821C821B821A82DF91CF9108957F
:1034D0000F931F93CF93DF93EC018B016F5F7F4FAF
:1034E000888199810E944B1D009751F099838883B0
:1034F0001B830A8381E0DF91CF911F910F91089583
:1035000080E0F9CFCF93DF93EC0188819981892BFB
:1035100049F08A819B818617970720F081E0DF912F
:10352000CF910895CE010E94681A8823C1F38C813F
:103530009D81892B99F7E881F9811082EFCFEF9275
:10354000FF920F931F93CF93DF93EC017B018A01CE
:10355000BA010E94821A81110BC0CE010E94561A34
:10356000CE01DF91CF911F910F91FF90EF900895C1
:103570001D830C83B701888199810E941E1EF0CFA4
:10358000FC0111821082138212821582148261154D
:10359000710551F0FB0101900020E9F73197AF016F
:1035A000461B570B0C949F1A089508950E94371BD1
:1035B0000E94D51A0E94B703C0E0D0E00E944D03DC
:1035C0002097E1F30E940000F9CF0C94C21C0C94E8
:1035D000E51A1F920F920FB60F9211244F935F932B
:1035E0006F937F938F939F93409132045091330454
:1035F00060913404709135048091310490913004CD
:10360000943019F5109230049091300490FD21C04F
:103610008A598D3728F08D574F5F5F4F6F4F7F4F1F
:103620008093310440933204509333046093340404
:10363000709335049F918F917F916F915F914F911E
:103640000F900FBE0F901F9018959F5F90933004BE
:10365000DBCF8959DECF2FB7F89460913204709197
:10366000330480913404909135042FBF08957894E9
:1036700084B5836084BD85B5836085BDEEE6F0E0EA
:10368000808181608083E1E8F0E082E08083808156
:1036900081608083E0E8F0E0808181608083E1EBFD
:1036A000F0E0808184608083E0EBF0E080818160E5
:1036B000808387E880937A001092C1000895843057
:1036C00081F028F48230E9F08330F9F008958830F1
:1036D00071F0893091F08530B9F4809180008F7D50
:1036E00003C0809180008F7780938000089580913F
:1036F000B0008F778093B00008958091B0008F7DE7
:10370000F9CF84B58F7784BD089584B58F7DFBCFC5
:10371000CF93DF9390E0FC01E158FF4F24918A564C
:103720009F4FFC0184918823C9F090E0880F991F76
:10373000FC01E954FF4FA591B491FC01E355FF4F03
:10374000C591D49161110DC09FB7F8948C912095CB
:1037500082238C938881282328839FBFDF91CF9178
:103760000895623051F49FB7F8943C91822F809570
:1037700083238C93E8812E2BEFCF8FB7F894EC91B5
:103780002E2B2C938FBFEACF1F93CF93DF93282F3D
:1037900030E0F901E859FF4F8491F901E158FF4FFA
:1037A000D491F901EA56FF4FC491CC23A9F0162F0A
:1037B00081110E945F1BEC2FF0E0EE0FFF1FE3551D
:1037C000FF4FA591B4918FB7F894EC91111108C0F7
:1037D000D095DE23DC938FBFDF91CF911F910895A9
:1037E000DE2BF8CFAA1BBB1B51E107C0AA1FBB1FD2
:1037F000A617B70710F0A61BB70B881F991F5A957D
:10380000A9F780959095BC01CD010895EE0FFF1F9B
:103810000590F491E02D0994A29FB001B39FC001DF
:10382000A39F700D811D1124911DB29F700D811DEC
:103830001124911D08950E940C1CA59F900DB49F0A
:10384000900DA49F800D911D112408950F931F9337
:10385000CF93DF938230910510F482E090E0E09105
:103860003804F091390430E020E0B0E0A0E0309777
:1038700099F42115310509F44AC0281B390B24306D
:103880003105D8F58A819B816115710589F1FB01AC
:1038900093838283FE0111C0408151810281138193
:1038A00048175907E0F04817590799F4109761F045
:1038B00012960C93129713961C933296CF01DF91B8
:1038C000CF911F910F9108950093380410933904FC
:1038D000F4CF2115310551F04217530738F0A901F3
:1038E000DB019A01BD01DF01F801C1CFEF01F9CF82
:1038F0009093390480933804CDCFFE01E20FF31F7B
:10390000819391932250310939832883D7CF209115
:10391000360430913704232B41F420910201309179
:103920000301309337042093360420910001309135
:1039300001012115310541F42DB73EB74091040135
:1039400050910501241B350BE0913604F0913704AA
:10395000E217F307A0F42E1B3F0B2817390778F066
:10396000AC014E5F5F4F2417350748F04E0F5F1FC5
:103970005093370440933604819391939FCFF0E0A6
:10398000E0E09CCFCF93DF930097E9F0FC01329702
:1039900013821282A0913804B0913904ED0130E015
:1039A00020E01097A1F420813181820F931F209194
:1039B0003604309137042817390709F061C0F093B5
:1039C0003704E0933604DF91CF910895EA01CE17D2
:1039D000DF07E8F54A815B819E0141155105B1F78A
:1039E000E901FB83EA8349915991C40FD51FEC1774
:1039F000FD0761F4808191810296840F951FE90192
:103A000099838883828193819B838A83F0E0E0E0BD
:103A100012968D919C9113970097B9F52D913C9139
:103A20001197CD010296820F931F20913604309199
:103A300037042817390739F6309751F510923904B1
:103A400010923804B0933704A0933604BCCFD383CC
:103A5000C28340815181840F951FC817D90761F433
:103A60004E5F5F4F88819981480F591F5183408372
:103A70008A819B81938382832115310509F0B0CF20
:103A8000F0933904E09338049ECFFD01DC01C0CFF0
:103A900013821282D7CFB0E0A0E0E1E5FDE10C9403
:103AA000271E8C01009751F4CB010E94261C8C012B
:103AB000C801CDB7DEB7E0E10C94431EFC01E60F70
:103AC000F71F9C0122503109E217F30708F49DC04B
:103AD000D901CD91DC911197C617D70798F0C53061
:103AE000D10530F3CE0104978617970708F3C61B5C
:103AF000D70B2297C193D1936D937C93CF010E94F2
:103B0000C21CD6CF5B01AC1ABD0A4C018C0E9D1EA7
:103B1000A0913804B0913904512C412CF12CE12CA6
:103B2000109731F5809136049091370488159905E6
:103B300009F05CC04616570608F058C08091000195
:103B400090910101009741F48DB79EB74091040117
:103B500050910501841B950BE817F90708F055C033
:103B6000F0933704E0933604F90171836083A0CFAA
:103B70008D919C91119712966C90129713967C9050
:103B80001397A815B90559F56C0142E0C40ED11C74
:103B9000CA14DB0420F1AC014A195B09DA01129660
:103BA000159780F06282738251834083D9016D93AF
:103BB0007C93E114F10471F0D7011396FC93EE931A
:103BC000129776CF22968C0F9D1FF90191838083E7
:103BD000F301EFCFF0933904E093380469CF48162E
:103BE000590608F42C017D01D3019ACFCB010E9424
:103BF000261C7C01009749F0AE01B8010E94151EF9
:103C0000C8010E94C21C870153CF10E000E050CFD2
:103C1000FB01DC0104C08D910190801921F4415019
:103C20005040C8F7881B990B0895FB01DC0102C0C6
:103C300001900D9241505040D8F70895FB01DC01EE
:103C400001900D920020E1F708952F923F924F923C
:103C50005F926F927F928F929F92AF92BF92CF921C
:103C6000DF92EF92FF920F931F93CF93DF93CDB725
:103C7000DEB7CA1BDB0B0FB6F894DEBF0FBECDBF9D
:103C800009942A88398848885F846E847D848C846E
:103C90009B84AA84B984C884DF80EE80FD800C8177
:103CA0001B81AA81B981CE0FD11D0FB6F894DEBF5A
:0C3CB0000FBECDBFED010895F894FFCFCA
:103CBC0000003A048000344B3732302E44534B0012
:103CCC005450415343414C2E44534B002F000000A1
:103CDC000000B700B4008C00B1008F00E200AE0011
:103CEC00000000002F1430144414AD142114A51737
:103CFC00CE16F4185D180019F413FB1302140E14ED
:023D0C0015148C
:00000001FF
