:100000000C94B5000C94DD000C94DD000C94DD0024
:100010000C9430130C94DD000C94DD000C94DD0086
:100020000C94DD000C94DD000C94DD000C94DD00DC
:100030000C94DD000C94DD000C94DD000C94DD00CC
:100040000C94952F0C94DD000C94DD000C94DD00D5
:100050000C94DD000C94DD000C94DD000C94DD00AC
:100060000C94DD000C94DD007364662D3120302E7D
:10007000332D302D343164616563330D0A5365705F
:1000800020323620323032362031353A35343A306B
:10009000330D0A0053443A2066616C6C6F20756E14
:1000A00061207472616E73666572656E636961204A
:1000B000646972656374610D0A000D0A006D730056
:1000C00020636572720020666C757368006D730D35
:1000D0000A65736372200020006D7320626C7100EA
:1000E0000D0A6C65657220006D73206D6178000DDE
:1000F0000A616272697220002070696C610020736D
:1001000065630020450044534B494F204C000000DC
:1001100000090003020000040508000000000000C0
:1001200000000000000102040810204080010204C9
:100130000810200102040810204080400404040438
:100140000404040402020202020203030303030381
:1001500002020300000000250028002B0000000020
:1001600000240027002A0000951611241FBECFEF9F
:10017000D8E0DEBFCDBF12E0A0E0B1E0E0EBF6E6F4
:1001800002C005900D92A031B107D9F727E0A0E198
:10019000B2E001C01D92A230B207E1F710E0C5EB5A
:1001A000D0E004C02197FE010E946D31C43BD1070D
:1001B000C9F70E94822F0C9456330C94000090E0F3
:1001C00080E0089580E197E22091BC0027FD04C003
:1001D0000197D1F780E0089581E0089581110AC068
:1001E00084E88093BC000E94E200882329F080917B
:1001F000BB00089584ECF5CF8FEF0895FC01848552
:1002000083FF17C084A195A1A6A1B7A1448D558DE8
:10021000668D778D841B950BA60BB70B811520E897
:100220009207A105B10520F08FEF9FE7A0E0B0E0B5
:10023000089580E090E0DC01F1CF0C960C94021A56
:10024000CF93DF931F92CDB7DEB730E020E041E0DF
:1002500050E0BE016F5F7F4F0C960E94CD18019752
:1002600031F4898190E00F90DF91CF9108958FEF65
:100270009FEFF9CF0C960C94401C0C960C94931D98
:10028000CF93DF931F92CDB7DEB7698341E050E093
:10029000BE016F5F7F4F0C960E94931D0F90DF9100
:1002A000CF910895CF93C82F84EA8093BC000E9419
:1002B000E200811102C080E011C0C093BB0084E85D
:1002C0008093BC000E94E2008823A9F39091B900BA
:1002D000987F983119F081E0903469F7CF910895B3
:1002E0008093BB0084E88093BC000E94E2008823D6
:1002F00039F09091B900987F81E0983209F080E060
:100300000895FC011382128288EE93E0A0E0B0E031
:1003100084839583A683B7831486158616868CE618
:1003200091E0918380830895FF920F931F93CF9361
:10033000DF93EC01F62E08811981C8010E94403339
:10034000F81621F06F2DC8010E944833CE01DF91CD
:10035000CF911F910F91FF90089580910A01909184
:100360000B018E55944021F48AE694E00C94B51C60
:10037000089580914403882351F0809133038111C3
:1003800005C08091F30391E08927089580E00895E6
:10039000823079F021E030E0811102C030E020E0CD
:1003A0004DE0429FC001439F900D112485579C4F03
:1003B000089587E393E00895EF92FF921F93CF9300
:1003C000DF93CDB7DEB7AC970FB6F894DEBF0FBEA4
:1003D000CDBFCE0101960E94810140E06BEC73E03D
:1003E000CE010D960E94D11B8D858823D1F1827D8F
:1003F00059F44DE050E069E673E0CE010D960E949D
:10040000332411E0892B09F410E0CE010D960E94EF
:10041000B51C1123F1F289E693E0FC010190002064
:10042000E9F7CF018A5693408530910590F26CE050
:1004300071E08B599C4F0E94D032892B51F689E68E
:10044000E82E83E0F82EF70181917F01882351F097
:10045000082E000C990B0E94B232F701319780836D
:10046000F2CF10E0812FAC960FB6F894DEBF0FBE2E
:10047000CDBFDF91CF911F91FF90EF9008950F9323
:100480001F93CF93DF93CDB7DEB7AC970FB6F89439
:10049000DEBF0FBECDBFFC01208118E32223A9F0EF
:1004A0008C01CE0101960E94810120E0A8016CE838
:1004B00074E0CE010D960E943D1D8D85811111C005
:1004C00015E3CE010D960E94B51C812FAC960FB698
:1004D000F894DEBF0FBECDBFDF91CF911F910F917A
:1004E0000895807D69F74DE050E0B801CE010D968A
:1004F0000E943324892B21F38DA19EA1AFA1B8A521
:100500008115F0E49F07FBE0AF07B10531F01DE373
:100510008115904AA540B105A1F610E0D2CFEF9227
:10052000FF921F93CF93DF9390E080E00E944033CF
:10053000182FD0E0C0E0CE0101967C011D3591F569
:100540000E944033C557DC4F8883E701CD30D10589
:1005500091F7109297038BE893E00E943F0281117C
:1005600010928B03D0E0C0E080E01D3521F4CE0175
:100570000E960E944033FE01E856FC4F8083219680
:10058000CD30D10589F71092A40388E993E00E9449
:100590003F02811110929803DF91CF911F91FF903C
:1005A000EF90089580E0CECF81E28093BB038091ED
:1005B0007A03823020F08EE38093770308950E94BF
:1005C000B901811102C086E4F7CF809179038D30A3
:1005D00010F088E3F1CFE0917903F0E0E558FC4FAB
:1005E00010828FEFE9CF8BE793E00E943F02809368
:1005F00077038091770381111BC080917A032DE0EE
:10060000829FC00111246BE773E085579C4F0E94C5
:10061000F932E0917A03F0E0EC5FFB4F81E08083F8
:10062000E0917A03F0E0E757FC4F808380938803E2
:10063000089593E29093BB03823020F08EE3809381
:100640007703089590914403911102C086E4F7CF97
:10065000282F30E09DE0899FF0011124E557FC4FE1
:100660001082F901EC5FFB4F81E0808327573C4FFC
:10067000F901808380938803109277030895DC0149
:100680009D91992379F08091B0028F3758F4E091D1
:10069000B00281E08E0F8093B002F0E0EF54FD4F86
:1006A0009083EECFE091B002F0E0EF54FD4F108266
:1006B0000895FC012491222381F03091B00201962B
:1006C0003F3758F4A091B00231E03A0F3093B002B6
:1006D000B0E0AF54BD4F2C93ECCFE091B002F0E00E
:1006E000EF54FD4F10820895CF93DF93CDB7DEB75F
:1006F0002B970FB6F894DEBF0FBECDBF2AE0AE0138
:100700004F5F5F4F0E940E330E943F032B960FB640
:10071000F894DEBF0FBECDBFDF91CF9108958DB7A6
:100720009EB7E2E0F7E040972AEAE817F90710F4ED
:100730002193FBCF089582E097E0FC0120812A3AC3
:1007400031F48F3FF8E09F0710F40196F6CF825006
:1007500097400895CF92DF92EF92FF9286E091E06A
:100760000E94590360918D0270918E0290E080E0AA
:100770000E94740383E091E00E94590360918F020C
:100780007091900290E080E00E9474038EEF90E000
:100790000E945903609191027091920290E080E072
:1007A0000E94740388EF90E00E9459030E949B030B
:1007B000BC0190E080E00E94740380918D029091D2
:1007C0008E02892B39F480918F0290919002892BAF
:1007D00009F4EDC08FEE90E00E94590360919702FA
:1007E000709198028091990290919A0224E0660F8C
:1007F000771F881F991F2A95D1F76C53764F8F4F1B
:100800009F4F38E8C32E33E1D32EE12CF12CA70102
:1008100096010E944B31CA01B9010E94740388EE0F
:1008200090E00E945903609195027091960290E0C9
:1008300080E044E0660F771F881F991F4A95D1F723
:100840006C53764F8F4F9F4FA70196010E944B31FB
:10085000CA01B9010E94740380EE90E00E9459031E
:1008600060919B0270919C0280919D0290919E02EA
:1008700054E0660F771F881F991F5A95D1F76C5364
:10088000764F8F4F9F4FA70196010E944B31CA01AF
:10089000B9010E94740389ED90E00E9459036091B0
:1008A00093027091940290E080E00E94740387EDBF
:1008B00090E00E94590360919F027091A002809184
:1008C000A1029091A202E4E0660F771F881F991F92
:1008D000EA95D1F76C53764F8F4F9F4FA701960142
:1008E0000E944B31CA01B9010E9474038DEC90E063
:1008F0000E9459036091A3027091A4028091A50205
:100900009091A602F4E0660F771F881F991FFA9551
:10091000D1F76C53764F8F4F9F4FA70196010E94DE
:100920004B31CA01B9010E94740386EC90E00E9429
:1009300059036091A7027091A8028091A902909139
:10094000AA02A4E0660F771F881F991FAA95D1F706
:100950006C53764F8F4F9F4FA70196010E944B31EA
:10096000CA01B9010E94740380EC90E00E9459030F
:100970006091AB027091AC028091AD029091AE0299
:10098000B4E0660F771F881F991FBA95D1F76C5393
:10099000764F8F4F9F4FA70196010E944B31CA019E
:1009A000B9010E9474038DEB90E00E9459038AEB19
:1009B00090E00E945903EDE8F2E082E2DF011D922F
:1009C0008A95E9F7FF90EF90DF90CF900895CF934D
:1009D000DF93CDB7DEB72B970FB6F894DEBF0FBE0F
:1009E000CDBF61E171E085E493E00E94F93280912E
:1009F000440364E271E0811112C08091090167E251
:100A000071E08F3F61F08091090161E371E0813015
:100A100031F08091090181110EC06DE371E085E430
:100A200093E02B960FB6F894DEBF0FBECDBFDF91DB
:100A3000CF910C94E3328BE0E7E4F1E0DE01119614
:100A400001900D928A95E1F7E0910901F0E084E0D0
:100A5000F595E7958A95E1F7E452FE4F8081898705
:100A6000E0910901EF70F0E0E452FE4F80818A8747
:100A7000BE016F5F7F4F85E493E00E94E3322B96C7
:100A80000FB6F894DEBF0FBECDBFDF91CF910895B2
:100A9000AF92BF92CF92DF92EF92FF920F931F938C
:100AA000CF93DF938A015C016A01C60ED11CC0E0BE
:100AB000F12CD0E0C016D10679F1F50181915F01EA
:100AC000082E000C990B0E94B232E82EFEE28F1322
:100AD00009C0C1111BC0DD2359F1C1E0F801E19249
:100AE0008F01E8CF8FED8E0D8E3580F46E2D0E2C9C
:100AF000000C770B82E591E00E94EE32892B31F4F5
:100B0000CC2331F0F39483E08F1540F7C0E010C0A0
:100B1000DF5FD930D8F7E2CFDD23C1F3CC23A1F0DA
:100B200063E271E0FF2091F3C8010E94F932C1E055
:100B30008C2FDF91CF911F910F91FF90EF90DF905D
:100B4000CF90BF90AF9008956CE071E0EDCF87E259
:100B50008093BB030E94B901811104C086E4809395
:100B60003503089580913603893F31F08091360333
:100B7000883F11F08DE3F3CF809179038D3098F4A5
:100B80006091790347E353E08BE793E00E944805C7
:100B9000882349F081E0809333039EEF90933503DF
:100BA0008093340308951092370388E3D8CF8F924F
:100BB0009F92AF92BF92CF92DF92EF92FF920F93EC
:100BC0001F93CF93DF93CDB7DEB7CC54D1090FB6C7
:100BD000F894DEBF0FBECDBF80913603C12C20E458
:100BE000D22E2BE0E22EF12C883F31F4C12C90EA7A
:100BF000D92E95E0E92EF12C19821A821B8220E071
:100C000047E353E06CE874E0CE0101960E943D1D7D
:100C100011E481114FC0CE0101960E94810122E5AD
:100C200047E353E06CE874E0CE010D960E943D1D51
:100C30008D8515E4882309F43DC0B701A601CE01D6
:100C40000D960E94461D4601570181E4C816D10445
:100C5000E104F10428F080E4882E912CA12CB12C21
:100C6000A4016CE971E0CE010D960E94931D8816D7
:100C70009906D1F112E4C818D908EA08FB0811F066
:100C8000112309F3CE010D960E94B51C1123A1F08A
:100C90001DA61EA61FA621E047E353E06CE874E002
:100CA000CE018D960E943D1D882321F0CE018D96A8
:100CB0000E94772310923703109233031093350369
:100CC000C45BDF4F0FB6F894DEBF0FBECDBFDF9120
:100CD000CF911F910F91FF90EF90DF90CF90BF9039
:100CE000AF909F908F90089510E0C5CFCF93833041
:100CF00018F080E0CF910895C82F0E94B901882391
:100D0000C1F38C2F0E94C801FC018081882389F3E4
:100D1000C0938B028FEFEECFCF92DF92EF92FF92D4
:100D20001F93CF93DF93CDB7DEB7AC970FB6F89490
:100D3000DEBF0FBECDBF182F0E94C8017C01CE01BF
:100D400001960E94810120E0A7016CE874E0CE01C9
:100D50000D960E943D1D8D85882389F1CDA0DEA0D2
:100D6000EFA0F8A4CE010D960E94B51C123030F40D
:100D7000E12FF0E0E757FC4F81E08083C11480E46D
:100D8000D8068BE0E806F104B1F0C11480EAD80679
:100D900085E0E806F10489F080E0AC960FB6F8949F
:100DA000DEBF0FBECDBFDF91CF911F91FF90EF90BF
:100DB000DF90CF90089589EFF0CF88EFEECF12301B
:100DC00058F7E12FF0E0E757FC4F81E08083E4CF54
:100DD000CF93DF93EB012A813B81FC013383228394
:100DE0004C815D816E817F814483558366837783E7
:100DF000488559856A857B854087518762877387D7
:100E00008C179D0751F020E2FE013C96DC011C96F8
:100E100001900D922A95E1F71C86DF91CF910895FC
:100E2000982F92959F708F702AE0929F800D1124C9
:100E300008956AE00E942B31292F30E1839FC00181
:100E40001124822B089588B1806388B91092B9006B
:100E50008CE58093B80084E08093BC000895CF9225
:100E6000DF92EF92FF920F931F93CF93DF930E9435
:100E7000D72F00917602109177022091780230915D
:100E80007902601B710B820B930B97FD18C00E94B7
:100E9000D72F66507F4F8F4F9F4F6093760270938E
:100EA0007702809378029093790280ED0E9452013C
:100EB00081110EC084E98093BC0010927B02DF9107
:100EC000CF911F910F91FF90EF90DF90CF900895F9
:100ED00080E00E947001882369F381ED0E94520135
:100EE000882341F380917C02D1E0D81BCD2ED12CF8
:100EF00081E00E94EE00C82F27E02C9DC0012D9DAF
:100F0000900D11249C0123583D4F79018C2F8F7730
:100F1000F901808381E00E94EE008F77F7018183E1
:100F200081E00E94EE00182F86FF43C08F710E945F
:100F300010076CE00E942B3180E015FD8CE0890FDA
:100F40000E94190797E09C9DF0019D9DF00D1124D2
:100F5000E358FD4F828381E00E94EE0097E09C9D64
:100F600080019D9D100D112403581D4F8770F801BD
:100F7000838381E00E94EE008F73F801848381E017
:100F80000E94EE008F71F801858380E00E94EE00E0
:100F9000F801868384E98093BC00D0937C0281E0D1
:100FA00080937B02C095CC1FCC27CC1FC0937A02C4
:100FB00086CF1F73F7011283CECFE82FF0E0E05306
:100FC000F84F633008F43197A62FB0E0A157BE4F19
:100FD0002C91240F3327331F2E0F3F1FBF0176950F
:100FE000679576956795260F371FCF0160E971E009
:100FF0000E943731260F371FCF0164E670E00E9450
:101000003731C901861B970B67E070E00E943731CA
:101010008F5F0895CF92DF92EF92FF920F931F930D
:10102000CF93DF93F894D0906F02E0907002F0902D
:10103000710210917302D0917402C09175021092E6
:101040006E027894812F0E941007C82E8D2F0E9467
:101050001007082F8C2F0E9410074C2D602F0E9424
:10106000DD07082F80ED0E945201882309F43FC05C
:1010700080E00E9470018823D1F18D2D0E947001C3
:101080008823A9F18E2D0E947001882381F18F2D74
:101090000E947001882359F1802F0E9470018823DB
:1010A00031F1812F0E947001882309F18D2F0E9458
:1010B00070018823E1F08C2F0E9470018823B9F021
:1010C00084E98093BC0080E080931F021092760236
:1010D000109277021092780210927902DF91CF91EC
:1010E0001F910F91FF90EF90DF90CF90089584E9CA
:1010F0008093BC0083E1E8CFCF92DF92EF92FF9222
:101100000F931F93CF93DF93E0917C0287E0E89FDA
:10111000F0011124E358FD4F0081F180E28013813A
:10112000D480C58086810E9410078C5EC7E6D2E01D
:1011300088838C2D0E94100789838D2D0E941007B3
:101140008A838E2D0E9410078B838F2D0E9410079B
:101150008C83802F0E9410078D831E83DF91CF9197
:101160001F910F91FF90EF90DF90CF9008950F9314
:101170001F93CF93DF9300D000D000D01F92CDB744
:10118000DEB780916E02811130C0E0917C0287E071
:101190008E9FF0011124E358FD4FDE01119601905E
:1011A0000D928A95E1F780916302843148F1809134
:1011B000630284510E941907182F809164020E94D3
:1011C0001907082F809165020E9419078D830E83ED
:1011D0001F8387E0FE013196AFE6B2E001900D92E9
:1011E0008A95E1F781E080936E0227960FB6F89416
:1011F000DEBF0FBECDBFDF91CF911F910F9108953C
:1012000080E0D8CFFF920F931F93CF93DF9300D04E
:1012100000D000D01F92CDB7DEB780916E02811151
:101220002BC0E0917C0217E01E9FF0011124E358CF
:10123000FD4FDE011196812F01900D928A95E1F705
:10124000809163020E941907082F809164020E9416
:101250001907F82E809165020E9419078983FA8286
:101260000B83FE013196AFE6B2E001900D921A9524
:10127000E1F781E080936E0227960FB6F894DEBF07
:101280000FBECDBFDF91CF911F910F91FF900895B9
:10129000262F30E044E0359527954A95E1F7211552
:1012A000310521F0205DFC01208301966F70605DA7
:1012B000FC016193CF010895EF92FF920F931F936A
:1012C000CF93DF93FC01962FA0917C0287E0A89F2B
:1012D000D0011124A358BD4FDC9111961C91119798
:1012E00012960C9112971396CC9113971496FC902A
:1012F000149715966C91159716968C919330E9F585
:1013000092E3908390E39183982F92959F70905DE4
:1013100092838F70805D83838CE2E82EE482CF011C
:1013200005960E944809FC01E0826F2D01960E94FB
:101330004809FC01E082602F01960E944809FC01E7
:10134000E082612F01960E944809FC01E0826D2F26
:1013500001960E944809FC01E0823296AC2FA770EA
:10136000A05DEC01A9838DE080831182DF91CF9194
:101370001F910F91FF90EF9008959430A9F4C15000
:10138000C73008F0C0E0D3E0CD9FD0011124A658AB
:10139000BE4F8C91808311968C9111978183129608
:1013A0008C9182833396DFCF923031F122E3208318
:1013B00020E32183282F22952F70205D22838F70B8
:1013C000805D83832DE22483862F82958F70805DDC
:1013D0008583862F8F70805D868327838F2D8295EE
:1013E0008F70805D80878F2D8F70805D81879111D8
:1013F00020C080E282873B96802F82958F70805D2F
:1014000080830F70005D01839AE39283812F829520
:101410008F70805D83831F70105D148395838D2F83
:1014200082958F70805D8683DF70D05DD78338961C
:101430009ACF3A96913009F496CFDECFFC018081A5
:101440008735C9F06CF4843481F024F48823B9F032
:101450008FEF08958E3489F08435D1F782E00895B6
:101460008E3659F024F4843699F781E00895843754
:10147000A9F3873769F784E0089583E0089580E051
:10148000089543E050E062E671E086E192E00E9458
:101490000033892B51F489E192E00E941E0A8F3FAC
:1014A00029F08093100280E008958FEF089587E37C
:1014B0008093BB0380911402882311F083E105C05F
:1014C0008091130282FF04C08DE38093110208957E
:1014D00080917B02882391F380911602882341F04A
:1014E00086E192E00E941E0A8F3F29F488E3EDCF47
:1014F00080911002F9CF909113029A7049F01092E6
:1015000007011092200210921F02109211020895FA
:1015100010920801809361028FEF80930601F5CF4E
:1015200080910801811117C0809106018F3F41F41D
:101530006091610281E492E00E945C0910920601D0
:10154000E0910601F0E0EF5BFD4F8081811105C065
:101550008FEF8093060180E00895909106019F5FD0
:10156000909306018D30C1F79FEF90930601089587
:1015700080917B02882331F080917A0291E0892763
:10158000819508958FEF08958F929F92AF92BF92A9
:10159000CF92DF92EF92FF920F931F93CF93DF933F
:1015A000CDB7DEB72C970FB6F894DEBF0FBECDBF18
:1015B000A1E2B2E080E06AE09C91992379F1863063
:1015C00078F59053FD0130E020E011969A30A0F7B5
:1015D000DF01919140ED490F4A3090F4629FA001E4
:1015E000639F500D11249A0120533109290F311D99
:1015F00097FD3A95203147E2340750F385E05FC00C
:10160000E82FF0E0EE0FFF1F41E050E04C0F5D1FB0
:10161000E40FF51F318320838F5FCECF863070F3C8
:1016200089819A81803D57E0950710F0805D974051
:101630008436910518F78B809C80940121503109E4
:101640002C303105D8F6AD80BE809501215031098E
:101650002F31310598F6CF80D88428E1C216D10405
:1016600068F6E984FA844CE3E416F10438F60B8555
:101670001C850C33110510F60E9419078093750222
:10168000882D0E941907809374028A2D0E941907E1
:10169000809373028C2D0E941907809371028E2D06
:1016A0000E94190780937002802F0E94190780936F
:1016B0006F0281E08093720280936E028EEF2C960F
:1016C0000FB6F894DEBF0FBECDBFDF91CF911F9153
:1016D0000F91FF90EF90DF90CF90BF90AF909F90D1
:1016E0008F900895803D21F481E08093BE0308959A
:1016F0009091F303992329F091E09093F2031092D3
:10170000BB038093BC038091BC03823DC9F1E0F42C
:10171000843909F45BC070F4813909F453C082390B
:1017200009F452C08039D9F51092150210921602B0
:1017300082E333C0843A28F4823AF8F4813AC1F063
:101740000895813D19F10895843E99F130F4823E67
:1017500039F168F5813E01F10895813F61F118F496
:10176000803F49F10895853F49F1873F49F1089548
:101770000E947C08109266020895109262020895F9
:101780001092AF0281E080938C0208950E94E704DA
:101790008FEF8093660308958EE18093BB030895D5
:1017A00081E0809367038FEF80936803089582E25E
:1017B000F4CF84E2F2CF1092BB03089588E2EDCF1C
:1017C0008AE2EBCF83E3E9CF88E3E7CF89E3E5CF94
:1017D0000F931F93CF930091840010918500809107
:1017E0000A0190910B01DC01ED91FC910284F385DB
:1017F000E02D0995C82F2091840030918500201B91
:10180000310B40919B0250919C0260919D0270911E
:101810009E02C901B0E0A0E0480F591F6A1F7B1F5C
:1018200040939B0250939C0260939D0270939E0292
:101830002D333105F0F020919302309194022F5F07
:101840003F4F309394022093930240919F02509116
:10185000A0026091A1027091A202840F951FA61FA1
:10186000B71F80939F029093A002A093A102B09310
:10187000A2028091BA038C278093BA038091B603A9
:101880009091B703A091B803B091B9030197A10952
:10189000B1098093B6039093B703A093B803B093B4
:1018A000B9038091B6039091B703A091B803B091AA
:1018B000B903892B8A2B8B2B11F51092BC03009155
:1018C0008400109185000E94AD0120918400309128
:1018D00085008091AB029091AC02A091AD02B091D5
:1018E000AE02201B310B820F931FA11DB11D8093EF
:1018F000AB029093AC02A093AD02B093AE02809184
:10190000A5039091A60301969093A6038093A50347
:101910008115924031F41092A6031092A503109203
:10192000BA038C2FCF911F910F910895CF93DF931E
:10193000C0918400D0918500A0910A01B0910B0163
:10194000ED91FC9111970190F081E02D682FCD0170
:10195000099520918400309185008091A302909197
:10196000A402A091A502B091A6022C1B3D0B820FF0
:10197000931FA11DB11D8093A3029093A402A09375
:10198000A502B093A6028091B6039091B703A091EF
:10199000B803B091B9030197A109B1098093B603C7
:1019A0009093B703A093B803B093B9038091B603A3
:1019B0009091B703A091B803B091B903892B8A2BFA
:1019C0008B2B21F51092BC031092BB03C0918400B5
:1019D000D09185000E94AD01209184003091850056
:1019E0008091AB029091AC02A091AD02B091AE0299
:1019F0002C1B3D0B820F931FA11DB11D8093AB02C9
:101A00009093AC02A093AD02B093AE028091A50377
:101A10009091A60301969093A6038093A503811548
:101A2000924069F51092A6031092A503C09184001C
:101A3000D091850080910A0190910B01DC01ED911C
:101A4000FC910680F781E02D09952091840030916A
:101A500085008091A7029091A802A091A902B0915F
:101A6000AA022C1B3D0B820F931FA11DB11D809359
:101A7000A7029093A802A093A902B093AA02DF91B3
:101A8000CF9108959091BE03992319F01092BE034F
:101A900008959091BB03953109F52091EC033091A5
:101AA000ED03232BA9F02091EC033091ED032F3FA0
:101AB000314071F08EBD0DB407FEFDCF8091EC0377
:101AC0009091ED0301969093ED038093EC030895BC
:101AD0008093EB0384E080933103B1C09091BC0309
:101AE000913E09F4F2C0D8F4923909F4A9C038F44F
:101AF000903909F451C0913909F463C00895923ABC
:101B000009F1933AA1F1943909F099C09091070134
:101B10009F3F09F0BCC083E180931F020895923F6C
:101B200050F4903F08F04AC1933E09F4FDC0943E42
:101B300009F401C10895953F09F437C1973F09F4AD
:101B400029C1089590916202933050F4E0916202AD
:101B500091E09E0F90936202F0E0ED59FD4F80837B
:101B600080916202833009F06AC00C94B7089091AA
:101B70006202933050F4E091620291E09E0F9093E4
:101B80006202F0E0ED59FD4F808380916202833064
:101B900009F055C00C94020990911502983050F448
:101BA000E091150291E09E0F90931502F0E0EA5E3D
:101BB000FD4F8083E0911502F0E0EA5EFD4F108258
:101BC00008959091BB03943379F018F4933331F076
:101BD0000895953369F09633B9F00895809314020F
:101BE00084E38093BB0308958093130285E3F9CFC8
:101BF000109215021092160280931202811102C0F7
:101C00000C94570A86E3EDCF90911502983050F46A
:101C1000E091150291E09E0F90931502F0E0EA5ECC
:101C2000FD4F8083E0911502F0E0EA5EFD4F1082E7
:101C300080911202815080931202882309F3089543
:101C40009091BB03983321F4809314028AE3C9CFA7
:101C50009091BB039A3399F78A709091140288236C
:101C600061F080910701981305C08FEF8093070101
:101C7000109220021092BB030895809108019813DE
:101C8000F9CF8FEF8093080180930601F3CF8A305C
:101C9000B1F28D3079F0909120029F3180F6E09181
:101CA000200291E09E0F90932002F0E0EF5DFD4F47
:101CB00080830895E0912002F0E0EF5DFD4F1082F7
:101CC000109220020E94C40A27CF9091BB039F313B
:101CD00049F0903299F09E3109F0B1CF80937A03A8
:101CE0008FE17FCF809379031092780380917903FD
:101CF000811102C00C94D40280E273CF90917803DA
:101D00009C3030F4E0917803F0E0E558FC4F80839C
:101D1000809178038F5F809378039091780380910E
:101D2000790398138CCFE6CF9091BB03923209F0E0
:101D300086CF0C9419039091BB03953249F09632EB
:101D400099F0943209F07BCF8093360385E249CF36
:101D5000809379031092780380917903811102C0F6
:101D60000C94A70586E23DCF909178039C3030F427
:101D7000E0917803F0E0E558FC4F80838091780390
:101D80008F5F809378039091780380917903981303
:101D900056CFE6CF9091BB039A3209F050CF0E9404
:101DA0007606809332038BE21CCF9091BB0398326E
:101DB00009F045CF8093B50389E213CFE091BB03CF
:101DC000E53108F03CCFF0E0E851F14F0C946D3173
:101DD000FD0E010F050F110F150F090F0D0F1F0E2F
:101DE0001F0E1F0E1F0E1F0E1F0E1F0E1F0E1F0E8B
:101DF0001F0E1F0E1F0E1F0E730F8093B50381E081
:101E0000F0CE8093B40382E0ECCE8093B30385E000
:101E1000E8CE8093B00386E0E4CE8093AF0383E006
:101E2000E0CE8093B20384E0DCCE8093B103809156
:101E3000B2039091B1038927982789279093AE0325
:101E40008093AD038091B0039091AF0389279827C9
:101E500089279093AC038093AB038091AD0390915D
:101E6000AE03B0E0A0E029E0880F991FAA1FBB1FB6
:101E70002A95D1F78093A7039093A803A093A90371
:101E8000B093AA038091B40390E0B0E0A0E039E001
:101E9000880F991FAA1FBB1F3A95D1F78093B603ED
:101EA0009093B703A093B803B093B9031092A6031D
:101EB0001092A5038CE08093BB0380914403882398
:101EC00081F08091330381110CC08091B5030E9491
:101ED000C801FC018081882321F08FEF8093760375
:101EE000089582E0FBCF2091A5033091A603232B18
:101EF00049F02091A5033091A6032F3F314011F006
:101F00000C94960C8093EB0389E0E5CD8EBD0DB467
:101F100007FEFDCF8EB50895CF93DF930E94D72F94
:101F2000EB018FEF0E94860F982F8F3F39F081E0F1
:101F30009E3F09F080E0DF91CF9108950E94D72F56
:101F40006C1B7D0B6C32714060F3F4CFCF93DF9349
:101F50000E94D72FEB018FEF0E94860F8F3F59F021
:101F60000E94D72F6C1B7D0B68357240A0F380E078
:101F7000DF91CF91089581E0FBCF2091F103809113
:101F8000DC069091DD06222389F00E94BE2C882376
:101F900021F08091EF03882321F084E990E00E94F2
:101FA00059031092F3031092F20308950E940A2E2F
:101FB000EECF0E94BD0F1092BC031092BB03089598
:101FC000CF92DF92EF92FF92823030F080E0FF906C
:101FD000EF90DF90CF90089524E0829FC0011124FC
:101FE000FC01E450FC4F40815181628173814115B5
:101FF00051056105710551F32091B403222331F39A
:102000002091BC03203F11F32091AD033091AE032A
:102010006A017B01C20ED31EE11CF11CC416D50659
:10202000E606F70698F24091B40350E070E060E0F5
:1020300041505109610971094C0D5D1D6E1D7F1DD7
:102040008C509C4FFC0180819181A281B3818417C7
:102050009507A607B70708F4B9CF8091B00480FDB3
:1020600034C01092B0048FEF9FEFDC018093B30473
:102070009093B404A093B504B093B6042091BC032C
:102080008091DC069091DD06B701A601213F21F584
:102090000E949D2C882309F499CF91E09093F3033B
:1020A0002091BC03213F09F090E09093F10391E06F
:1020B0009093F0031092EF039091B4039093EE038A
:1020C0001092ED031092EC0382CF80EB94E00E941B
:1020D0009F2E8111C6CFD2CF0E94E82DDBCF8F92E9
:1020E0009F92AF92BF92CF92DF92FF920F931F9376
:1020F000CF93DF93CDB7DEB7AC970FB6F894DEBFC2
:102100000FBECDBFF090B50321E02F1508F48EC0AF
:102110000F2D10E0F801EC5FFB4F80813CE2F39E55
:102120006001112496012E5E3B4F5901882321F056
:102130001082C9010E94B51CC6018A5F9B4F6C01C9
:10214000F501808181113BC08F2D0E94C8014C0197
:10215000CE0101960E94810122E0A4016CE874E0A6
:10216000CE010D960E943D1DBE016F5F7F4FC601DF
:102170000E94E806F5018081811112C0CE0101960E
:102180000E94810120E0A4016CE874E0CE010D966C
:102190000E943D1DBE016F5F7F4FC6010E94E80691
:1021A000F5018081811131C0000F111F000F111F37
:1021B000F801E450FC4F1082118212821382D092F7
:1021C0000B01C0920A0100910A0110910B01F80164
:1021D000848581114FC082E08093760380917603DD
:1021E00081110E94AD01AC960FB6F894DEBF0FBE10
:1021F000CDBFDF91CF911F910F91FF90DF90CF90D6
:10220000BF90AF909F908F900895B801660F771F91
:10221000660F771FAB014C505C4F64507C4FC5017B
:102220000E94D517882309F4BFCFC9CF8091BC0382
:1022300010E0813F09F012E08F2D0E94C8016C016F
:10224000CE0101960E948101212FA6016CE874E065
:10225000CE010D960E943D1DBE016F5F7F4F8EE542
:1022600094E00E94E8068EE594E090930B01809341
:102270000A01A9CF8091BC03803F19F4868581FFB4
:10228000AACF8091A7039091A803A091A903B09130
:10229000AA038090B6039090B703A090B803B090C3
:1022A000B903F80144A155A166A177A1880D991D34
:1022B000AA1DBB1D481759076A077B07E8F18091E3
:1022C000BC03803F59F48091B303893F39F48AE01D
:1022D000411550446B40710509F07ECF1092760392
:1022E0008F2D0E94E00F81110CC04091A7035091E7
:1022F000A8036091A9037091AA03C8010C960E94DB
:102300005E1A8091BC03813FC9F480918D02909147
:102310008E02019690938E0280938D028091B40379
:102320002091910230919202820F932F911D9093F0
:1023300092028093910252CF88E04ECF80918F021B
:102340009091900201969093900280938F02E6CF35
:1023500080917603882329F01092BC038091760344
:1023600008958091BC03813F51F48091F303811162
:1023700004C08AE08093BB03F1CF8DE0FBCF809156
:10238000F303811102C084E1F5CF85E1F3CF8091A1
:10239000BB038D3091F58091EC039091ED03892B77
:1023A00041F18091EE03813039F48091EC039091FA
:1023B000ED038F3F9140E9F08FEF8EBD0DB407FE26
:1023C000FDCF8EB52091EC033091ED032F5F3F4F91
:1023D0003093ED032093EC032115324061F5109208
:1023E000ED031092EC039091EE0391509093EE0365
:1023F000089583E0809331031DC08091BC03823D2A
:1024000009F488C038F5843909F4A8C060F481392A
:1024100009F49DC0833909F49FC0803959F41092A2
:10242000BC030C94410A803A09F44AC028F4853967
:1024300009F497C080E00895813A09F447C0813DCE
:10244000C9F7809166038F3F09F04FC01092660371
:1024500086E00895843E09F4B3C090F4823E09F406
:1024600084C008F0A3C0813E29F78091BB0381326C
:1024700009F7809177038F3F09F09DC086E0BACFBE
:10248000853F09F4B1C078F4805F823098F680917E
:10249000BB038C3009F0C5C0809176038F3F09F0F3
:1024A000BEC081E0A7CF873F29F68091BB038B3266
:1024B00009F6809132038F3F09F091C087E09ACFEF
:1024C0001092BC0380917B028195089580916602F1
:1024D0008730D0F5E091660281E08E0F809366022E
:1024E000F0E0E959FD4F80810895E0916603F0E046
:1024F000EB5BFC4F8081811103C01092BC030895F7
:10250000E091660381E08E0F80936603F0E0EB5B61
:10251000FC4FE9CF80918C02882311F082E06ACFD2
:102520009091AF028091B002981750F4E091AF0201
:1025300081E08E0F8093AF02F0E0EF54FD4FD3CFD8
:102540001092AF021092B0021092BC0373CF10929F
:10255000BC038091110208950C94900A80911F028F
:1025600008951092BC030C94B80A809168038F3FC1
:1025700039F40E94B901882309F4BFCF85E03ACF2E
:10258000E0916803F0E0E759FC4F8081811104C0BD
:102590008FEF809368034ECFE091680381E08E0F48
:1025A00080936803F0E0E759FC4F9DCF8091BB0317
:1025B000833209F03FCF1092BC03809177030895D6
:1025C0008091BB03873209F035CF809135038E3F70
:1025D00009F442C01092BC03809135030895109213
:1025E000BC038091320308958091BB03893209F0C6
:1025F00021CF1092BC038091B503823078F5E09131
:10260000B503F0E0E757FC4F8081882339F1E09172
:10261000B503F0E0E757FC4F10828FEF08950C945C
:10262000A8118091BB038A3009F004CF8091A503E3
:102630009091A603892B71F08091B6039091B70316
:10264000A091B803B091B9030197A105B10511F0AC
:102650000C94E80B88E0CECE8EEF089581E00895CB
:102660001F920F920FB60F9211242F933F934F9307
:102670005F936F937F938F939F93AF93BF93EF93EA
:10268000FF9386B180FF16C01AB888E28A95F1F7E9
:10269000439AFF91EF91BF91AF919F918F917F915D
:1026A0006F915F914F913F912F910F900FBE0F90BF
:1026B0001F901895982F947081FD11C091110BC037
:1026C0008FEF8AB90E94C7118BB9809131038111B4
:1026D000E0CF4398DECF89B10E94420DF6CF911131
:1026E00006C08FEF8AB98091BD038BB9F2CF89B153
:1026F0000E94720BEECF109231039FEF9AB98BB903
:1027000043980895CF93DF938091EC039091ED036C
:10271000892BD1F58091F003811106C08FEF0E94C3
:10272000860F8FEF0E94860F1092F0038091930224
:102730009091940201969093940280939302C09199
:102740008400D09185000E948C0F811103C081E02C
:102750008093EF03209184003091850080919F0247
:102760009091A002A091A102B091A2022C1B3D0B5E
:10277000820F931FA11DB11D80939F029093A00211
:10278000A093A102B093A2028FEF0E94860FC82FE0
:102790008091EC039091ED0301969093ED0380936B
:1027A000EC038115924099F41092ED031092EC0322
:1027B0008091EE0381508093EE03811108C08FEF6A
:1027C0000E94860F8FEF0E94860F0E94D90F8C2FD8
:1027D000DF91CF910C947B131092310343980895AD
:1027E000CF93DF938091EC039091ED03892BB1F5AA
:1027F000C0918400D09185000E94A60F811103C072
:1028000081E08093EF0320918400309185008091D6
:10281000A7029091A802A091A902B091AA022C1B34
:102820003D0B820F931FA11DB11D8093A7029093B2
:10283000A802A093A902B093AA028CEF0E94860F6F
:102840008091EB030E94860F81E090E09093ED036E
:102850008093EC03DF91CF910C94EC138091EB0308
:102860000E94860F8FEF0E94860F8FEF0E94860FC7
:102870008FEF0E94860F8F71853019F081E0809371
:10288000EF031092ED031092EC038091930290916C
:102890009402019690939402809393028091EE03A8
:1028A00081508093EE038111D5CFC0918400D091E7
:1028B00085000E94D90F209184003091850080917D
:1028C000A7029091A802A091A902B091AA022C1B84
:1028D0003D0B820F931FA11DB11D8093A702909302
:1028E000A802A093A902B093AA02B4CFCF93DF931A
:1028F0008091F20381110E94BD0FE0913103E150FC
:10290000E93008F07FC0F0E0E857FB4E0C946D31E1
:10291000CF14FD1491149514A714C514C814991458
:102920009F14DF91CF910C948213DF91CF910C947F
:10293000F0130E94E80BDF91CF910C947B138091F0
:10294000EB030E94960CDF91CF910C94EC138091D5
:102950006703882369F0109267038091CB03807D21
:1029600039F040E050E0BA018BEC93E00E945E1A2F
:102970000E94DC01882329F0109268030E94C7118D
:10298000DACF1092BC0380E0D6CF0E94F302F6CFDC
:1029900080918B020E948C0680933203EFCFC0910E
:1029A0008400D09185000E946F10809184009091E6
:1029B00085008C1B9D0B409197025091980260916D
:1029C000990270919A02480F591F611D711D409321
:1029D0009702509398026093990270939A02209103
:1029E0009502309196022817390720F490939602A9
:1029F000809395020E94A8119ECF10928C020E9493
:102A0000AA03BCCFDF91CF9108950E948F0362E0AB
:102A100088E00E94C03062E089E00E94C03060E03F
:102A20008EE00E94C03060E08FE00E94C03060E025
:102A300080E10E94C03061E081E10E94C03061E02D
:102A40008AE00E94C0301AB80E94230710928000CA
:102A500083E08093810088E690E00E94590360E063
:102A600081E10E94FC3081E080936C0082E08BBBAE
:102A7000E8E6F0E080818260808361E081E10C948F
:102A8000FC30CF92DF92EF92FF920F931F93CF9380
:102A9000DF93EC017C0180EBE81A8DEFF80AF70177
:102AA000C080D18000E010E0980141E0B601CE0185
:102AB0000E940928882399F16E01F0EDCF1AFDEFED
:102AC000DF0AC6010E94B51CBE01C6010E947E1825
:102AD00081113BC0F701E080F18000E010E0980137
:102AE00041E0B701CE010E940928882319F17E0137
:102AF000F0EDEF1AFDEFFF0AC7010E94B51CBE0101
:102B0000C7010E947E18811120C080E0DF91CF9123
:102B10001F910F91FF90EF90DF90CF90089500E00C
:102B200010E0980140E0B601CE010E940928811111
:102B3000C3CFD0CF00E010E0980140E0B701CE0154
:102B40000E9409288111D3CFE0CFD093F106C09322
:102B5000F006DCCF0F931F93CF93DF93CDB7DEB793
:102B6000E4970FB6F894DEBF0FBECDBF8AE08DA705
:102B70001EA680E8282F8FA780EF88AB8AEF89AB4D
:102B800082E08AAB1CAA1BAA0AE010E030EF4AEFF1
:102B900052E060E07CA98EED96E00E94F02A8EED76
:102BA00096E09093DD068093DC068091EB06811120
:102BB0002EC08CE894E00E944115882341F1CE019B
:102BC00001960E94810120E046E651E06CE874E045
:102BD000CE010D960E943D1DBE016F5F7F4F8FEBB2
:102BE00093E00E94E8060E948F0281E080938903AF
:102BF00080938A0380934403E4960FB6F894DEBF73
:102C00000FBECDBFDF91CF911F910F910895E0913D
:102C1000DC06F091DD068CE2309709F08585809323
:102C20000901EACFEF92FF920F931F93CF93DF93A7
:102C3000CDB7DEB76C970FB6F894DEBF0FBECDBF31
:102C40000E9476148091440381110CC00E94AA1541
:102C500080914403811106C06AEF70E080E090E04B
:102C60000E9436300E942F0780916E0281110E94CF
:102C70000A0880913403882321F0109234030E94C3
:102C8000D70580918803882309F442C0F8948AE12B
:102C9000EBE8F3E0DE01119601900D928A95E1F7E1
:102CA0001092880378941C8E1B8E6DE5CE014B9696
:102CB0000E9494018E010F5F1F4FEE24E394F12CCC
:102CC000F80161918F01FC8EEB8ECE014B960E9434
:102CD00094010E947614FFEFEF1AFF0A8EE0E816C7
:102CE000F10471F77E01EEE0EE0EF11C0EE010E053
:102CF000F70161917F011C8F0B8FCE014B960E94D3
:102D000094010E9476140F5F1F4F0B31110581F75C
:102D10006C960FB6F894DEBF0FBECDBFDF91CF919A
:102D20001F910F91FF90EF900895ECE8F4E0158269
:102D300016A215A214A28FEF9FEFDC0187A390A724
:102D4000A1A7B2A71092BC061092BD061092BE06B3
:102D50001092DD061092DC0681EF91E09093DF0681
:102D60008093DE061092E1061092E00681E58093E2
:102D7000E20681E08093E3061092E4061092E506F5
:102D80001092E6061092E7061092E8061092E90605
:102D90001092EA068AE28093EB061092EC061092FB
:102DA000ED061092EE061092EF068EE594E00E947A
:102DB000810186E094E00E94810182E394E00E9418
:102DC00081018FEB93E00C948101CF93DF93EC01B1
:102DD00084960E949F2E882359F088819981DC0176
:102DE000ED91FC910684F785E02DDF91CF91099458
:102DF00080E0DF91CF910895DC016817790731F009
:102E000090E2FB0101900D929A95E1F70895CF921F
:102E1000DF92EF92FF92CF93DF93EC01CC84DD84BD
:102E2000EE84FF849C01245F3F4FB701A6018E8191
:102E30009F810E946026882359F09A81C114D10491
:102E4000E104F10461F490649A839A8190689A8312
:102E5000DF91CF91FF90EF90DF90CF9008952FEF0B
:102E6000C21AD20AE20AF20A4C855D856E857F8518
:102E70004C155D056E057F0541F39F7BE5CFAF9255
:102E8000BF92CF92DF92EF92FF920F931F93CF9357
:102E9000DF93EC01888186FF0DC010E0812FDF9168
:102EA000CF911F910F91FF90EF90DF90CF90BF9047
:102EB000AF90089588899989AA89BB8981159E4F09
:102EC000AF41B10550F7CE010E940717182F882394
:102ED00021F3EE81FF81CC84DD84EE84FF8432E037
:102EE000C31AD108E108F108848104C0CC0CDD1CB0
:102EF000EE1CFF1C8A95D2F781899289A389B48937
:102F0000C80ED91EEA1EFB1E00E0A12C82E0B82EDE
:102F1000EE81FF8182810817B0F425E0B701A60198
:102F2000400F511D611D711DCF0184960E94EF2E2F
:102F3000009709F4B2CFFC01950111922150304065
:102F4000E1F70F5FE5CF848120E032E002C0220F7D
:102F5000331F8A95E2F788899989AA89BB89820FEC
:102F6000931FA11DB11D888B998BAA8BBB8B96CF0C
:102F7000CF93DF93EC01262F4C895D896E897F8981
:102F80008E819F8184960E94EF2E009759F02C81AC
:102F90003D812F70332745E0220F331F4A95E1F71B
:102FA000820F931FDF91CF9108958F929F92AF92DE
:102FB000BF92CF92DF92EF92FF920F931F93CF9326
:102FC000DF9300D000D0CDB7DEB7DC012C9123FF1A
:102FD0002AC05C96CD90DD90ED90FC905F97C11477
:102FE000D104E104F104F9F05A014B018C019E0176
:102FF0002F5F3F4FB701A601F801868197810E949C
:103000009D2487FD10C0882381F0FFEFCF1ADF0ACF
:10301000EF0AFF0A89819A81AB81BC81C816D90663
:10302000EA06FB0621F380E058C0D80112968C9185
:103030001297806412968C938114910421F1D80127
:1030400016964D915C9117975C968D919D910D9080
:10305000BC91A02D0297A109B109FA01248104C0F5
:10306000880F991FAA1FBB1F2A95D2F74189528941
:1030700063897489840F951FA61FB71FF40180838D
:103080009183A283B383A114B10431F1D8011696C0
:10309000ED91FC9181899289A389B4890197A10955
:1030A000B1092281820F911DA11DB11D22E0C21A1A
:1030B000D108E108F108248104C0CC0CDD1CEE1C11
:1030C000FF1C2A95D2F78C0D9D1DAE1DBF1DF5016D
:1030D00080839183A283B38381E00F900F900F9040
:1030E0000F90DF91CF911F910F91FF90EF90DF90A4
:1030F000CF90BF90AF909F908F900895FC018081FA
:10310000811117C080E2DF011D928A95E9F777836C
:103110006683DB0115968C91803121F0803239F085
:103120008C3039F480E4808381E08283089580E8E4
:10313000FACF80E00895CF93DF93FC01DB0118966E
:103140004D915D916D917C911B97452B462B472BA3
:1031500039F416966D917C91DF91CF910C947E1885
:1031600080E2EF0119928A95E9F780E1808381E09E
:10317000828316968D919C911797978386831896D4
:103180008D919D910D90BC91A02D848F958FA68FD0
:10319000B78F81E0DF91CF9108952F923F924F92A8
:1031A0005F926F927F928F929F92AF92BF92CF92D7
:1031B000DF92EF92FF920F931F93CF93DF93EC0177
:1031C0005B018A0139018A8180FFD2C0888183FF37
:1031D00016C0888D998DAA8DBB8D488959896A89B9
:1031E0007B89841B950BA60BB70BA80170E060E0F0
:1031F000481759076A077B07A0F08C0112C086FFA9
:1032000010C0EE81FF818781908555E0880F991F5E
:103210005A95E1F728893989821B930B801791070A
:1032200060F378011E012CE0220E311C412C42E09B
:10323000542EE114F10409F4CFC088899989AA8930
:10324000BB89EE81FF814C0121E092222881AC01F3
:10325000BD0139E076956795579547953A95D1F731
:1032600026FF2EC0858D968DA78DB0A1480F591FC2
:103270006A1F7B1FEE81FF818114910409F07EC0DB
:10328000E11482E0F80608F479C087A190A5A1A511
:10329000B2A5481759076A077B0709F46FC085A1D3
:1032A00096A1DC01ED91FC910084F185E02D950162
:1032B0000995882309F45CC0C12C82E0D82E76C021
:1032C000D380D4228114910481F4D1100EC0892BB3
:1032D0008A2B8B2B81F527FF29C0858D968DA78D95
:1032E000B0A18C879D87AE87BF87EE81FF814C851B
:1032F0005D856E857F854250510961097109848120
:1033000004C0440F551F661F771F8A95D2F7818925
:103310009289A389B489840F951FA61FB71FAC019A
:10332000BD014D0D511D611D711DA4CF8C8D9D8D55
:10333000AE8DBF8DD6CF4C855D856E857F8523FF95
:103340000CC08A8186FF09C04F5F5F4F6F4F7F4F70
:103350004C875D876E877F87C8CF9101CF010E9420
:103360009D2487FD05C08111C0CF8881807DA1F596
:103370008981826089838FEF9FEF31C0C2018819F4
:10338000990967018E159F0508F46C0120E0CF01B3
:1033900084960E94EF2E009759F3BC01680D791DA9
:1033A00061147104A1F0F30171836083AC0CBD1C46
:1033B00088899989AA89BB898C0D9D1DA11DB11D84
:1033C000888B998BAA8BBB8BEC18FD0832CFA6019A
:1033D000C5010E94C732EACFC8018E199F09DF914B
:1033E000CF911F910F91FF90EF90DF90CF90BF9002
:1033F000AF909F908F907F906F905F904F903F9095
:103400002F9008958F929F92AF92BF92CF92DF92AA
:10341000EF92FF920F931F93CF93DF931F92CDB73D
:10342000DEB78C01FC0180889188A288B388C484AF
:10343000D584E684F78430E020E041E050E0BE012E
:103440006F5F7F4F0E94CD180197C9F4898190E08A
:10345000F801808A918AA28AB38AC486D586E686D4
:10346000F7860F90DF91CF911F910F91FF90EF9012
:10347000DF90CF90BF90AF909F908F9008958FEF87
:103480009FEFE6CFCF93DF9300D0CDB7DEB71A82A0
:1034900019829E012F5F3F4F40E250E070E060E0F4
:1034A0000E94CD18809739F489819A810F900F90EE
:1034B000DF91CF91089590E080E0F8CF4F925F9236
:1034C0006F927F928F929F92AF92BF92CF92DF9234
:1034D000EF92FF920F931F93CF93DF93EC014A017A
:1034E0005B014C845D846E847F842881222309F4EF
:1034F0005CC0488959896A897B89481559056A05DC
:103500007B0581F081149104A104B10469F41C8647
:103510001D861E861F86888A998AAA8ABB8A8A8106
:103520008F7D8A8381E046C023FF2CC0888D998DD2
:10353000AA8DBB8D88159905AA05BB05B0F1EE8152
:10354000FF813481375F7501640181E0C81AD108B9
:10355000E108F108032E04C0F694E794D794C794C9
:103560000A94D2F78A8186FF36C08C8D9D8DAE8DF0
:10357000BF8D8C0D9D1DAE1DBF1D8C879D87AE8799
:10358000BF87C9CF26FFDBCFEE81FF818781908582
:1035900025E0880F991F2A95E1F7B0E0A0E0881593
:1035A0009905AA05BB0508F0B6CF4C865D866E86E8
:1035B0007F8680E0DF91CF911F910F91FF90EF9078
:1035C000DF90CF90BF90AF909F908F907F906F9043
:1035D0005F904F900895DB01CA010197A109B109DD
:1035E00004C0B695A795979587953A95D2F7C816D2
:1035F000D906EA06FB0620F0452B462B472B49F55A
:1036000027FF22C0858D968DA78DB0A18C879D87C1
:10361000AE87BF878E01045F1F4FC114D104E10440
:10362000F10409F478CF4C855D856E857F8598011E
:103630008E819F810E949D2491E0C91AD108E108E2
:10364000F108181654F3B1CF8C8D9D8DAE8DBF8DC2
:10365000DDCFC81AD90AEA0AFB0ADCCFCF92DF9283
:10366000EF92FF920F931F93CF93DF93EC01122FF2
:1036700080E2DE011D928A95E9F7FB018681978140
:103680009F838E835D834C83C48CD58CE68CF78CB2
:10369000C886D986EA86FB86FC01F0964F705527CE
:1036A00035E0440F551F3A95E1F7E40FF51F2385E8
:1036B00023FD11C0277328833385387111F42860E6
:1036C00028830B83212F2370213009F44BC038F05D
:1036D000223009F445C018821A8280E038C021E007
:1036E00015FDF9CF2A833A8131FF06C02881422F88
:1036F000417189F720622883212F2870232B2A8388
:10370000DC0197964D915D916D917C919A974C8BD0
:103710005D8B6E8B7F8B4489558970E060E0BA01C8
:1037200055274427C28CD38CF12CE12C4C295D29E0
:103730006E297F2915FF1DC04115510561057105D1
:1037400099F48A8180688A8312FD20C081E0DF912C
:10375000CF911F910F91FF90EF90DF90CF90089540
:1037600023E0C0CF22E0BECF0E94B6278111E9CF6F
:10377000B2CF4C8F5D8F6E8F7F8F848D958DA68D90
:10378000B78D888F998FAA8FBB8FDECF488D598DCB
:103790006A8D7B8DCE010E945E1A882309F49BCF2F
:1037A000D5CF8F929F92AF92BF92DF92EF92FF920E
:1037B0000F931F93CF93DF93EB01FC012081211125
:1037C0005DC02881207D09F459C0088919892A899A
:1037D0003B890F71112722273327012B022B032B43
:1037E00009F04CC0142F7C0100E0D12C8888998806
:1037F000AA88BB88CE010E94421AFC01892BF1F1F4
:1038000080818823D9F18E3279F1853E69F19385E3
:1038100093FD2CC0002371F09F01255F3F4F80E096
:1038200080FB879587F99191890FE217F307C1F71C
:10383000D81224C0B501A40185E076956795579507
:1038400047958A95D1F7212FBE01C7010E942E1BF3
:10385000DF91CF911F910F91FF90EF90DF90BF907C
:10386000AF909F908F90089500E0C0CF9F30E1F718
:1038700086FFBCCF082F0F71D584B8CF80E0E8CF8A
:10388000EF92FF920F931F93CF93DF9300D000D05E
:103890001F92CDB7DEB7FC012081222309F463C05B
:1038A0008C01828187FF56C061E0CF010E94B8176A
:1038B0007C01009789F4F80181818160818380E037
:1038C0000F900F900F900F900F90DF91CF911F915D
:1038D0000F91FF90EF900895FC018081853E59F390
:1038E000F80180818773F7018387F801808183FF66
:1038F00009C0808D918DA28DB38DF701848F958F36
:10390000A68FB78FF801848D958DA68DB78DF701A1
:10391000938F828FB58BA48BE091F206F091F30622
:103920003097A1F0AE014B5F5F4FBE016F5F7F4FDD
:10393000CE01039609958B819C81F701918F808F31
:10394000938B828B89819A81978B868BF8018281F8
:103950008F778283F801868197810E94E5168823FC
:1039600009F4A9CFADCF81E0ABCFCF93DF93EC01CA
:103970000E94401C18821A82DF91CF910895DF9235
:10398000EF92FF920F931F93CF93DF93CDB7DEB7E4
:10399000E7970FB6F894DEBF0FBECDBF7C018B0159
:1039A0005FAB4EABD22E19821A821B82FC01808142
:1039B000882379F080E0E7960FB6F894DEBF0FBE5B
:1039C000CDBFDF91CF911F910F91FF90EF90DF90CE
:1039D0000895FB018081807D69F3EEA9FFA98081B4
:1039E0008F32D9F4EEA9FFA980818F3221F431966C
:1039F000FFABEEABF7CFF80166817781811104C090
:103A0000C7010E947E18D7CFCE0101960E947E1872
:103A1000882381F28E010F5F1F4F6EA97FA99E013F
:103A20002A5C3F4FAE014F5D5F4FC7010E941C23D0
:103A3000882309F4BFCFEEA9FFA980818823A1F0D4
:103A400020E0AE014F5D5F4FB801C7010E949F218A
:103A5000882309F4AFCFB701CE0101960E94FC166E
:103A6000C7010E94B51CD6CF2D2DAE014F5D5F4F13
:103A7000B801C7010E949F219ECF6115710521F0F9
:103A8000605D7D4F0C94BF1C80E00895CF92DF9263
:103A9000EF92FF92CF93DF93EC0141155105610541
:103AA0007105C9F18A8181FF36C08C8D9D8DAE8DE7
:103AB000BF8D892B8A2B8B2B71F56A017B018E813F
:103AC0009F819E01245E3F4F415051096109710958
:103AD000DC011496EC91E75F04C0769567955795E5
:103AE0004795EA95D2F74F5F5F4F6F4F7F4F0E9428
:103AF000F726882381F0C88ED98EEA8EFB8E8A81C4
:103B0000806E8A83CE01DF91CF91FF90EF90DF909E
:103B1000CF900C94401C80E0DF91CF91FF90EF900C
:103B2000DF90CF9008952F923F924F925F926F92C5
:103B30007F928F929F92AF92BF92CF92DF92EF923D
:103B4000FF920F931F93CF93DF93CDB7DEB72897E4
:103B50000FB6F894DEBF0FBECDBF9E838D834B01A1
:103B60005A01DC0112968C9181FF1AC083FD23C09B
:103B7000A50170E060E0ED81FE8180899189A289D4
:103B8000B38980959095A095B09565011F01FCE0E3
:103B90002F0E311C84179507A607B70708F0EFC052
:103BA000AD81BE8111968C911197816011968C9395
:103BB000B12CA12C53C0AD81BE8158964D915D9121
:103BC0006D917C915B97CD010E945E1A8111D0CFDF
:103BD000E7CF91018F8198850E949D2487FDE0CFDA
:103BE00081110FC18D819E810E940717811109C12A
:103BF000D7CFED81FE81848D958DA68DB78D0097F1
:103C0000A105B10581F4CF010E940717882341F275
:103C1000ED81FE8184859585A685B785848F958FF6
:103C2000A68FB78FEEC0ED81FE8184879587A6872A
:103C3000B787E7C021E075C0ED81FE81808D918D51
:103C4000A28DB38D84159505A605B70508F5408EA0
:103C5000518E628E738E828180688283C501289620
:103C60000FB6F894DEBF0FBECDBFDF91CF911F918D
:103C70000F91FF90EF90DF90CF90BF90AF909F900B
:103C80008F907F906F905F904F903F902F9008950E
:103C90008091F2069091F306892B01F3ED81FE816C
:103CA000828180688283DACFEF81F88542505109A2
:103CB00061097109848104C0440F551F661F771F75
:103CC0008A95D2F781899289A389B489480F591FAF
:103CD0006A1F7B1F80E092E0801B910B76018C15A0
:103CE0009D0508F47C010115110509F0A3CFAD81F4
:103CF000BE8150964D905D906D907C9053975896F4
:103D00008D919D910D90BC91A02D481659066A0683
:103D10007B0630F4AD81BE8112968C9185FF8ACFEF
:103D200025E0CF0184960E94EF2E009709F438CF4A
:103D3000A701B401800F911F0E94C7320E0D1F1DF5
:103D40000115124051F4ED81FE81868197818496A0
:103D50000E949F2E882309F423CFED81FE81808964
:103D60009189A289B3898E0D9F1DA11DB11D808BE4
:103D7000918BA28BB38B8E0C9F1CCE18DF08ED812C
:103D8000FE814088518862887388C114D10409F487
:103D900053CF8681978198878F83DC011396FC909F
:103DA000B301A20199E076956795579547959A9545
:103DB000D1F7F42282011170F11023C0448555859A
:103DC000668577850115110509F06ECF41155105FE
:103DD0006105710509F40DCF228126FFFACE808D91
:103DE000918DA28DB38D481659066A067B0608F0A0
:103DF000F0CE4F5F5F4F6F4F7F4F44875587668789
:103E00007787AD81BE811696ED91FC9117971C9630
:103E10004D915D916D917C911F97425051096109BF
:103E20007109848104C0440F551F661F771F8A954E
:103E3000D2F781899289A389B489840F951FA61F1F
:103E4000B71FAC01BD014F0D511D611D711D011545
:103E5000110509F03FCFC114B2E0DB0608F43ACFF8
:103E600087A190A5A1A5B2A5481759076A077B07A6
:103E700041F414A28FEF9FEFDC0187A390A7A1A7C5
:103E8000B2A785A196A1DC01ED91FC910088F18992
:103E9000E02D94010995882309F482CEE12C82E07B
:103EA000F82E5BCFFC019C01255F3F4F80E080FB3B
:103EB000879587F99191890FE217F307C1F7089564
:103EC000CF93DF93EC01AB0170E060E085E0440F3D
:103ED000551F661F771F8A95D1F7CE010E945E1A83
:103EE000882329F0CE01DF91CF910C94421A90E003
:103EF00080E0DF91CF9108957F928F929F92AF9251
:103F0000BF92CF92DF92EF92FF920F931F93CF93C6
:103F1000DF93CDB7DEB7A0970FB6F894DEBF0FBE24
:103F2000CDBF7C015B018A01722E80E2F701DE01C8
:103F3000119601900D928A95E1F7DA018D919C918D
:103F4000119713969C938E931297992493947914B6
:103F500008F453C0B50169197109CE0101960E9498
:103F6000601F6C01892B11F420E014C0812C482DB6
:103F7000B601C7010E940D24D8011296ED91FC9163
:103F8000139714962D913C912E173F07C1F421E011
:103F9000892B51F7822FA0960FB6F894DEBF0FBE83
:103FA000CDBFDF91CF911F910F91FF90EF90DF90E8
:103FB000CF90BF90AF909F908F907F900895803862
:103FC000910590F62FE9280F2A3108F480529F01BD
:103FD0002F5F3F4FD80113963C932E9312979081F9
:103FE0002FE9290F2A3108F490529813BDCF8394FA
:103FF000BDE08B12BCCF9394AACF21E0CBCF9F9290
:10400000AF92BF92CF92DF92EF92FF920F931F93E6
:10401000CF93DF93CDB7DEB7A0970FB6F894DEBF8E
:104020000FBECDBFFC016B017A01B22E90E2DE0122
:10403000119601900D929A95E1F7CA010A960E9495
:10404000521FA82ED7018D919C91119713969C9386
:104050008E93129711E000E08FE0982EB11608F4CD
:1040600051C0B601611B7109CE0101960E94601F0B
:10407000FC01892B09F459C0AF81B88594968C91C5
:104080009497816094968C93812F1B1101C080645A
:10409000808393861486A586138E128ED70114967C
:1040A0004D915C9160E0D70112962D913C91139750
:1040B0002417350779F40023C9F00F5F2FEF3FEF86
:1040C0006530C0F4328321836F5F32966D3059F7CB
:1040D0001F5FC4CFC901019613969C938E931297CC
:1040E000D9012C91022E000C330BEACF30E020E0F6
:1040F00001E0E6CF6B3018F435832483E5CF3783B6
:104100002683E2CF81E0A0960FB6F894DEBF0FBE03
:10411000CDBFDF91CF911F910F91FF90EF90DF9076
:10412000CF90BF90AF909F90089580E0ECCFFF922A
:104130000F931F93CF93DF93FC010481158120819E
:104140003181DC011A96459640E24D93A817B907D4
:10415000E1F781E0D9019C919E3209F480E0E90108
:104160002F5F3F4F98819E32D1F398012150310942
:10417000C217D30720F4D9019C919E32B9F750E0C1
:1041800067E0A0E040E078E0C017D10708F045C044
:1041900098819E3241F42C173D0769F46AE0A8E04B
:1041A00070E12196F1CF9232A1F09C3791F0B5EAFF
:1041B000B90FB33070F0B6EDB90FB63010F49D32D0
:1041C00041F4B6ECB90FB63020F0BFEDB90FBE35F3
:1041D00028F0907C9038E9F580E0E3CF6A1740F44E
:1041E0006A30D1F02C173D07B8F0E9012197F4CFE0
:1041F000BFE9B90FBA3188F59052572BFF24F394D9
:10420000FA0EAE0FBF2FB11D1A969C93B6E0BF15E4
:1042100008F0F086AF2DC5CF80E092859032B9F0DE
:10422000882351F0452309F052E05187DF91CF9167
:104230001F910F91FF90089581E081878085E80F9D
:10424000F11D8EE7828781E3838781E0EFCF80E0F5
:10425000EDCF9FE580E06A1718F2BFEBB90FBA31D6
:1042600068F6472BCBCF9F92AF92BF92CF92DF924F
:10427000EF92FF920F931F93CF93DF937C018B01FB
:10428000FB01B08422E6A22ED0E0C0E03EE7932EF0
:104290006B01FAE0CF0ED11C0E94D72FC60FD71F9B
:1042A00083E08B1510F493E0B92E94E09B0D8C2FD6
:1042B0008F708A3068F5805DF801E90FF11D828703
:1042C00084E0D695C7958A95E1F79150B91678F3B1
:1042D000F801EB0DF11D928640E050E0BA01C701F4
:1042E0000E945E1AC7010E94421A009799F481E069
:1042F000F7019181911180E0DF91CF911F910F9192
:10430000FF90EF90DF90CF90BF90AF909F90089577
:10431000895CD2CFFC012081222379F0238523FD03
:10432000E1CF4BE050E0BC01C6010E94BA32892BBC
:10433000C9F6AA94A110B0CFDECF81E0DDCF2F92D5
:104340003F924F925F926F927F928F929F92AF9225
:10435000BF92CF92DF92EF92FF920F931F93CF9372
:10436000DF93CDB7DEB72F970FB6F894DEBF0FBE41
:10437000CDBF8C017B01FA01DB018C91807DD1F4F2
:1043800080E02F960FB6F894DEBF0FBECDBFDF9151
:10439000CF911F910F91FF90EF90DF90CF90BF9042
:1043A000AF909F908F907F906F905F904F903F90D5
:1043B0002F900895D8018C918111E2CF8681978149
:1043C0000C966DE070E00E9437316B8781858370B9
:1043D000772473948111760E2E836F011F870E87C9
:1043E000F7010680F781E02DF987E88740E050E08B
:1043F000BA01C7010E945E1A912C812C1F82612C88
:1044000010E000E01A86C6010A969D878C87D701C6
:1044100050962D903D904D905C90539785E056942A
:104420004794379427948A95D1F75101C7010E9488
:10443000421AFC01892BA9F5F70181818111A0CFD6
:10444000EE81E4FF9DCF8E2F83708150823008F083
:1044500097CF111101C04501171558F4C7010E94EB
:10446000421A892B09F083C0D70111968C918111D2
:1044700087CF012F10E0A72CB12C0A151B0508F0DF
:1044800078C0C7010E943F17882309F479CFE885D7
:10449000F9858281F0E18F9FC0011124080F191F57
:1044A000ECCF9081953E11F091110CC0111101C01B
:1044B0004101171508F41F5F992311F2953E29F465
:1044C00000E0A5CF171508F410E09E32C9F38385EC
:1044D0008F3019F5011119C0292F2F71622E8B858C
:1044E000821395CF96FF93CF95859F83082FB1E0D8
:1044F0006B128DCFB1016F5F7F4F202FA601C701D7
:104500000E947C1F811183CFDBCF6A949611D8CF94
:104510008585AF818A1759F3D3CF83FDD1CF00238F
:10452000A1F021E062122CCFCF010E94521F9F8187
:10453000891326CFBE81B6FD23CF2E81A501B701F9
:104540008E859F850E942E1B1CCF4BE050E06C8512
:104550007D85CF010E94BA32892B09F058CFD60150
:1045600019968C9180FFE6CF91E09A8750CF1F5F1C
:1045700073CF2A8521114AC00FEF070D5401A00EF9
:10458000B11C202FA601B501C7010E94FF1F88237F
:1045900009F4F6CEB501C7010E94601F4C01892BBA
:1045A00009F4EECE80E2D4011D928A95E9F7F60176
:1045B0003A968BE0D40101900D928A95E1F7F601CD
:1045C00081858871D4011C968C931C97E091F2062A
:1045D000F091F306309709F1AE014B5F5F4FBE01DA
:1045E0006F5F7F4FCE01039609958B819C81F4010B
:1045F000918B808B89819A81978786878D8185872A
:10460000E885F98584A1816084A397CFB601C701AD
:104610000E9433218111B0CFB3CE81E29CE5519647
:104620009C938E93509759969C938E93589753963C
:104630009C938E935297E4CFCF93DF93DA01FB01E3
:10464000AF014F5F5F4F8081803291F11196FC93F3
:10465000EE9317961C921E921697BF01EB0199914B
:10466000AE01992339F19F3229F19032E4F1892F7B
:10467000877F8232C1F19A33B1F1892F8F7B8C33DE
:1046800091F182EC890F823070F19C3561F1BE01AD
:104690006E1B7F0B9E3251F0903241F017967C9347
:1046A0006E9316971596DC93CE931497BA01D6CFD6
:1046B000FA01C6CF16968D919C91179701978F3F5F
:1046C000910588F4462F972FFB018191BF0180321D
:1046D000C9F38F32B9F3E90148839983CD01DF91A2
:1046E000CF910C94972080E0DF91CF910895BF92F5
:1046F000CF92DF92EF92FF920F931F93CF93DF93AE
:10470000CDB7DEB7A0970FB6F894DEBF0FBECDBF12
:1047100019821A821B82DC0112962C9121FF12C091
:104720008C01FC01448D558D668D778D41155105A9
:104730006105710549F461E0C8010E94B8177C0168
:10474000009749F480E059C0868197810E94B6277E
:104750008111F1CFF7CF0E94521FD82E85EEF701BD
:104760008083D8011C9212961C92129716968D91F6
:104770009C910E94E516882329F3F80193819923DF
:10478000E1F1B801CE0101960E949B188823D1F275
:10479000EE24E394F12C95EEC92ED80113968C915A
:1047A00013978E1578F214966D917C916E197F098E
:1047B000CE0101960E94601FFC01892B19F28385AE
:1047C0008F3009F0BFCF9081892F8F71E812BACF57
:1047D00085858D11B7CFC082D8011696ED91FC91D9
:1047E00084A1816084A3BFEFEB1AFB0A96FFD5CFAB
:1047F000F801868197810E94E516A0960FB6F8947D
:10480000DEBF0FBECDBFDF91CF911F910F91FF9003
:10481000EF90DF90CF90BF900895453048F450E07E
:10482000440F551F460F571FFA0181819281089549
:104830004B3050F44550550B440F551F460F571F32
:10484000FA018685978508954D3050F44B50550BED
:10485000440F551F460F571FFA01848D958D0895FB
:1048600090E080E00895CF92DF92EF92FF920F9355
:104870001F93CF93DF93FC01EB018A019081992371
:1048800009F44FC0907C91F04230510508F449C0C2
:104890008FE28883198281E090E0DF91CF911F91B0
:1048A0000F91FF90EF90DF90CF90089560E0CF01DF
:1048B0000E94B817DC010097A1F16C0130E068E0BC
:1048C00090E0F6012081383099F4203221F160E146
:1048D0002EE2492F50E07A018FEFE81AF80AE0162D
:1048E000F106F8F49F5F4C0F5D1FFA01208310C0A2
:1048F000FFEFCF1ADF0A8FEB820F8A3138F41C9654
:104900008C911C97862311F0205EE3CF203209F7AB
:104910003F5F3C30B1F6892F90E0C80FD91F188255
:10492000BCCF188290E080E0B8CFFC0136813230F5
:1049300009F4226084960C94EF2E6F927F928F92EE
:104940009F92AF92BF92CF92DF92EF92FF920F931E
:104950001F93CF93DF93423051056105710580F4B9
:104960008FEFDF91CF911F910F91FF90EF90DF902C
:10497000CF90BF90AF909F908F907F906F90089551
:10498000FC01C18CD28CE38CF48CC416D506E606EF
:10499000F70630F339016A018C0185818032A1F577
:1049A00085899689A789B08DE7E0769567955795B3
:1049B0004795EA95D1F7480F591F6A1F7B1F20E0E2
:1049C000C8010E949524009759F2CC0CDD1CCC0C38
:1049D000DD1CF1E0DF228C0D9D1DFC0180819181A9
:1049E000A281B381F801418D528D638D748D48177A
:1049F00059076A077B0708F46DC0F3018083918330
:104A0000A283B38381E0ADCF8031D9F44589568943
:104A10006789708D4D0D511D611D711D20E0CF0105
:104A20000E949524009709F49BCFCC0CDD1CF1E08B
:104A3000DF228C0D9D1DFC0180819181B0E0A0E002
:104A4000D1CF8C3009F08CCFEA01D695C795C40F31
:104A5000D51FCE01892F9927869585889688A788A6
:104A6000B08C880E991EA11CB11C20E0B501A401D8
:104A7000CF010E949524009709F472CF9E013170F6
:104A8000FC01E20FF31FC081D0E02F5F3F4F2115E3
:104A9000F2E03F0779F4B501A4014F5F5F4F6F4F1C
:104AA0007F4F20E0C8010E949524009709F458CF59
:104AB00030E020E0820F931FFC018081D82BC0FEE4
:104AC00007C084E0D695C7958A95E1F7CE01B6CFA9
:104AD000DF70FCCF80E045CF4F925F926F927F9264
:104AE0008F929F92AF92BF92CF92DF92EF92FF92FE
:104AF0000F931F93CF93DF9300D000D000D0CDB79A
:104B0000DEB74230510561057105C0F480E026969C
:104B10000FB6F894DEBF0FBECDBFDF91CF911F91CE
:104B20000F91FF90EF90DF90CF90BF90AF909F904C
:104B30008F907F906F905F904F900895DC01599611
:104B4000CD90DD90ED90FC905C97C416D506E606FE
:104B5000F706E0F2480159016A017B019E838D83CB
:104B6000FC018581803231F585899689A789B08DD0
:104B700017E076956795579547951A95D1F7480FA1
:104B8000591F6A1F7B1F21E0CF010E9495240097C7
:104B900009F4BCCFCC0CDD1CCC0CDD1CF1E0DF2219
:104BA0008C0D9D1DDC018D929D92AD92BC92139750
:104BB00081E0ADCF8031D9F4ED81FE814589568900
:104BC0006789708D4D0D511D611D711D21E0CF0153
:104BD0000E949524009709F499CFCC0CDD1CF1E0DC
:104BE000DF228C0D9D1DDC010D931C93E1CF8C30D9
:104BF00009F08CCF8A0116950795040F151FC8017F
:104C0000892F99278695ED81FE814588568867888A
:104C1000708C480E591E611C711C21E0B301A20169
:104C2000CF010E949524009709F470CF1170382DA0
:104C3000FC01E00FF11FB701A6014170552766275F
:104C4000772749835A836B837C83C0FE08C04081E9
:104C50004F7050E1859E90011124342F322B308308
:104C6000F8013196E11562E0F60781F4B301A20183
:104C70004F5F5F4F6F4F7F4F21E08D819E810E947C
:104C80009524009709F442CFF0E0E0E024E0B694E8
:104C9000A794979487942A95D1F7082DE80FF91FC8
:104CA00089819A81AB81BC81892B8A2B8B2B31F432
:104CB0000081007F82948FE088220829008378CFCA
:104CC0003F924F925F926F927F928F929F92AF929C
:104CD000BF92CF92DF92EF92FF920F931F93CF93E9
:104CE000DF9300D000D0CDB7DEB75C012A013B01D5
:104CF0004901FC01C184D284E384F484C414D50442
:104D0000E604F70410F011E003C07B016A0110E033
:104D1000FFEFCF1ADF0AEF0AFF0AF501818D928DAE
:104D2000A38DB48D8C159D05AE05BF0538F411110A
:104D300031C0C184D284E384F484E5CF4C145D0493
:104D40006E047F0439F19E012F5F3F4FB701A6012A
:104D5000C5010E949D2487FD1DC08823C9F2898159
:104D60009A81AB81BC81892B8A2B8B2B89F61123ED
:104D700029F0F501C186D286E386F4860FEF1FEF96
:104D80002FEF3FE0B701A601C5010E946C25382E28
:104D9000811118C0312C832D0F900F900F900F9020
:104DA000DF91CF911F910F91FF90EF90DF90CF9007
:104DB000BF90AF909F908F907F906F905F904F903B
:104DC0003F900895411451046104710431F4F401D9
:104DD000C082D182E282F382DECF97018601B301E5
:104DE000A201C5010E946C258111F1CFD3CF2F9272
:104DF0003F924F925F926F927F928F929F92AF926B
:104E0000BF92CF92DF92EF92FF920F931F93CF93B7
:104E1000DF93CDB7DEB72A970FB6F894DEBF0FBE8B
:104E2000CDBF1C012A013B013A872987DC01199675
:104E3000CD90DD90ED90FC901C97BFEFCB1ADB0A74
:104E4000EB0AFB0A46015701E1E0ED83F101818D98
:104E5000928DA38DB48D8C159D05AE05BF0508F40C
:104E600046C09E012F5F3F4FB701A601C1010E94BE
:104E70009D2487FD3CC0B701A6014F5F5F4F6F4F78
:104E80007F4F09811A812B813C81012B022B032B3F
:104E900011F481110BC08C149D04AE04BF0409F001
:104EA0001D824A015B016A017B01D0CFDB01CA018F
:104EB00088199909AA09BB0984159505A605B7059E
:104EC00091F7FD81FF2339F0D1011996CD92DD9242
:104ED000ED92FC921C970FEF1FEF2FEF3FE0B70111
:104EE000A601C1010E946C25782E81111BC0712C76
:104EF000872D2A960FB6F894DEBF0FBECDBFDF9187
:104F0000CF911F910F91FF90EF90DF90CF90BF90C6
:104F1000AF909F908F907F906F905F904F903F9059
:104F20002F9008958C149D04AE04BF04B8F4D701EB
:104F3000C6010197A109B1098D839E83AF83B8870C
:104F400097018601AC01BD01C1010E946C25CD8095
:104F5000DE80EF80F8848111E5CFC9CFA985BA85BD
:104F60008D929D92AD92BC921397C2CF9F92AF92B9
:104F7000BF92CF92DF92EF92FF920F931F93CF9346
:104F8000DF9300D000D0CDB7DEB75C016A017B01B2
:104F90009E012F5F3F4FB701A601C5010E949D24CE
:104FA000982E87FD34C000E010E09801B701A601FB
:104FB000C5010E946C25882351F1F5014185528578
:104FC00063857485C416D506E606F70650F4F1E04D
:104FD000CF1AD108E108F108F501C186D286E3862F
:104FE000F486C980DA80EB80FC809110D1CF0F90DD
:104FF0000F900F900F90DF91CF911F910F91FF9025
:10500000EF90DF90CF90BF90AF909F90089580E099
:10501000EECF4F925F926F927F928F929F92AF925C
:10502000BF92CF92DF92EF92FF920F931F93CF9395
:10503000DF93EC01B42E68017901798368831D82C6
:1050400081E090E0A0E0B0E089879A87AB87BC87D9
:105050008E010C5D1F4F7EA36DA31CA28FEF9FEFEF
:10506000DC018FA398A7A9A7BAA74423B1F124E034
:10507000241790F480E0DF91CF911F910F91FF9062
:10508000EF90DF90CF90BF90AF909F908F907F90E8
:105090006F905F904F90089520E040E050E0BA019B
:1050A000C8010E94EF2E009729F382549E4F2B2DAA
:1050B00030E02150304F44E0220F331F4A95E1F792
:1050C000FC01E20FF31F84818823A1F280818F7796
:1050D00089F6C084D184E284F38420E0B701A6017C
:1050E000C8010E94EF2EFC01892B21F28385948553
:1050F0008115924009F0BECF20898FEF820F823058
:1051000008F0B8CF2E8335853A838FEF830F8B83DA
:105110001C8249E050E081E0381749F041505109C4
:1051200009F4A8CF9C819F5F9C83880FF5CF868967
:105130009789B0E0A0E08D879E87AF87B88B892BD9
:105140008A2B8B2B41F484A195A1A6A1B7A18D87B1
:105150009E87AF87B88B8685978526013701480ED5
:10516000591E611C711C4D8A5E8A6F8A788E018976
:10517000128918870F838D849E84AF84B888A22FEC
:10518000B0E0A50194010E948231460E571E681EB0
:10519000791E4D8E5E8E6F8E78A285E0000F111FF6
:1051A0008A95E1F701501E4F012F11270695400EF9
:1051B000511E611C711C498A5A8A6B8A7C8A8389B8
:1051C0009489B0E0A0E00097A105B10521F480A189
:1051D00091A1A2A1B3A1C418D508E608F7088C0DC7
:1051E0009D1DAE1DBF1D2C816C017D0104C0F69478
:1051F000E794D794C7942A95D2F7D701C6010196B0
:10520000A11DB11D898F9A8FAB8FBC8F85EFC816FA
:105210008FE0D806E104F10440F48CE08D838BA686
:105220009CA6ADA6BEA681E026CF80E125EFC216E2
:105230002FEFD206E104F10488F384A595A5A6A575
:10524000B7A58D8F9E8FAF8FB8A380E2E7CFDC012B
:10525000ED91FC910684F785E02D0994DC01ED9138
:10526000FC910084F185E02D09940F931F93DC01DC
:10527000ED91FC910284F385E02D09951F910F912A
:105280000895DC01ED91FC910088F189E02D0994ED
:105290000F931F93DC01ED91FC910288F389E02DBF
:1052A00009951F910F9108950F931F93DC01ED91C4
:1052B000FC910284F385E02D01E010E009951F9137
:1052C0000F910895089562E170E00C94932FCF93AD
:1052D000DF93FC01C081D1810E94D72FC61BD70B61
:1052E0008D2F881F8827881FDF91CF910895CF9336
:1052F000DF93FC012385222359F0EC010190F0811A
:10530000E02D0684F785E02D09950E946D2F1B8600
:10531000DF91CF9108958EBD00000DB407FEFDCF43
:105320008EB508958FEF0C948B29FC018685811131
:1053300024C0348125818091F606882381F09FB7AF
:10534000F8948091F6068130A9F48DB38093F40629
:105350004DB38091F506809584238DBB9FBF3CBDE6
:105360002DBD81E0868760E084850E949D2E8FEFB1
:105370000C948B299093F406F2CF0895CF93DF938A
:10538000FC0126852223B9F0EC0161E084850E94AE
:105390009D2E8FEF0E948B298091F606882351F075
:1053A0009FB7F8942091F6068091F406213031F4ED
:1053B0008DBB9FBF1E86DF91CF9108958FBFFACF1F
:1053C0000F931F93CF93DF93FC01278510E02130CB
:1053D00089F0EC010685011102C00E9495290E9406
:1053E000922911E08F3F09F410E0011103C0CE01B2
:1053F0000E94BE29812FDF91CF911F910F910895B7
:10540000CF92DF92EF92FF920F931F93CF93DF9390
:1054100000D0CDB7DEB78C016B017A010E94D72F87
:10542000645D7E4F7A8369830E949229F801808BA4
:105430008F3FC1F4CE0101960E9467298823A1F312
:105440008EE1F8018587C8010E94BE2980E00F9097
:105450000F90DF91CF911F910F91FF90EF90DF9010
:10546000CF9008958E3F11F089E1EBCFE114F10464
:10547000D9F08FEF8EBDF601C7013FEF019749F0DC
:10548000000000000DB407FEFDCF2EB53EBD2193F8
:10549000F5CFF1E0EF1AF108EC0CFD1C0DB407FE9E
:1054A000FDCF8EB5F7018083F801108A0E94922902
:1054B0000E94922981E0CBCF40E052E00C94002A78
:1054C0000F931F93CF93DF9300D0CDB7DEB78B013F
:1054D0000E94D72F600F711F7A8369830E949229DF
:1054E0008F3F71F0CE0101960E9467298823B1F3A6
:1054F00080E00F900F90DF91CF911F910F91089551
:1055000081E0F7CFDF92EF92FF920F931F93CF933B
:10551000DF93EC01162F022FF32EE42ED52EE88117
:10552000F9810684F785E02D09958823C9F18E85D8
:10553000811103C0CE010E949529111128C0812F2D
:1055400080640E948B298D2D0E948B298E2D0E94B4
:105550008B298F2D0E948B29802F0E948B2987E811
:10556000111101C085E90E948B290E9492291AE03D
:105570000E949229888B87FF02C01150C9F7DF91E2
:10558000CF911F910F91FF90EF90DF9008951C3005
:10559000B1F26CE271E0CE010E94602A8111CFCF9E
:1055A0008FEFEDCFCF92DF92EF92FF921F93CF93C9
:1055B000DF93EC01162F69017A0120E030E0A901A8
:1055C00067E30E94822AA7019601612FCE01DF9135
:1055D000CF911F91FF90EF90DF90CF900C94822A93
:1055E0008F929F92AF92BF92DF92EF92FF920F93B2
:1055F0001F93CF93DF93CDB7DEB72A970FB6F894FA
:10560000DEBF0FBECDBF7C011C832D833E834F8345
:105610005887FC01138616861786108A118A15860C
:10562000802F04870E949A2E61E0F70184850E94F2
:105630009D2E82E5F701848315820E94372F81E039
:10564000F7018387C7010E94952961E0F7018485EE
:105650000E949D2E1AE00E9492291150E1F760E00D
:10566000F70184850E949D2E0E94D72F6053784FAA
:105670007A83698320E030E0A90160E0C7010E94DD
:10568000822AD82EF1E08F17F9F0CE0101960E9400
:105690006729882379F381E0F7018587C7010E9494
:1056A000BE2980E02A960FB6F894DEBF0FBECDBFAC
:1056B000DF91CF911F910F91FF90EF90DF90BF90FE
:1056C000AF909F908F9008952AEA31E040E050E03B
:1056D00068E0C7010E94822A82FD11C014E00E9486
:1056E0009229F701808B1150D1F78A3AE9F0CE0167
:1056F00001960E946729882339F386E0CDCF01E027
:10570000812C912C5401A501940169E2C7010E94EA
:10571000D22A182F882379F0CE0101960E9467299A
:10572000882389F387E1B8CF02E0812C912CA12C4A
:1057300030E4B32EE8CF0230C1F420E030E0A9011C
:105740006AE3C7010E94822A882311F082E1A4CF74
:105750000E949229807C803C09F403E00E949229F7
:105760000E9492290E949229D02EC7010E94BE2930
:105770004D815E816F81788580E896E9A8E9B0E087
:10578000481759076A077B0740F4B695A795979580
:1057900087951F5F1630A1F717E0812F806A8695E5
:1057A000F7018483109511701583D18A8C818170E3
:1057B000828781E077CF0F931F93CF93DF93EC0124
:1057C0008A0120E030E0A9010E94822A882339F072
:1057D0008CE18D87CE010E94BE2910E00CC040E113
:1057E00050E0B801CE010E94002A182F882391F3BF
:1057F000CE010E94BE29812FDF91CF911F910F9181
:1058000008950F931F93CF93DF93CDB7DEB76097C3
:105810000FB6F894DEBF0FBECDBFAE014F5F5F4F36
:1058200069E00E94DB2B882309F483C0898182957B
:1058300086958695837009F055C06F8170E090E081
:1058400080E03AE0660F771F881F991F3A95D1F7DD
:1058500066277C7088279927098510E046E0159512
:1058600007954A95E1F7012E000C220B330B062B0E
:10587000172B282B392B888590E0B0E0A0E0BC01E5
:10588000CD0152E0660F771F881F991F5A95D1F7F7
:10589000602B712B822B932B6F5F7F4F8F4F9F4F0E
:1058A0002A85220F322F36702B85221F2227221F96
:1058B000232B3E813F70230F3327331F275031099D
:1058C00004C0660F771F881F991F2A95D2F760962C
:1058D0000FB6F894DEBF0FBECDBFDF91CF911F9101
:1058E0000F910895813029F56885062F10E030E08A
:1058F00020E0980111270027002711272F73332755
:1059000089859A85982789279827B0E0A0E0BC016F
:10591000CD01602B712B822B932B6F5F7F4F8F4FAD
:105920009F4F2AE0660F771F881F991F2A95D1F78E
:10593000CECF60E070E0CB01CACFCF93DF93EC0114
:105940008989833039F089E0440F551F661F771F1E
:105950008A95D1F79A01AB0162E1CE010E94822AB9
:10596000882349F08CE08D87CE010E94BE2980E01B
:10597000DF91CF91089581E08F87FACFCF93DF93A6
:10598000EC011F8620E030E0A9016CE00E94822A31
:10599000882349F089E08D87CE010E94BE2980E0EE
:1059A000DF91CF910895CE010E94BE2981E0F8CF0A
:1059B0008F929F92AF92BF92CF92DF92EF92FF921F
:1059C0000F931F93CF93DF93EC014A015B016901B1
:1059D0008F85813049F48E819F81A885B98588158E
:1059E0009905AA05BB05C9F0B501A401CE010E9425
:1059F0009D2C81110EC080E0DF91CF911F910F91FE
:105A0000FF90EF90DF90CF90BF90AF909F908F90DE
:105A100008958E829F82A886B986F12CE12CE0162B
:105A2000F10661F0B601CE010E945C2A882319F3C9
:105A30008FEFE81AF80A8EEFD81AF1CF8E819F8186
:105A4000A885B9858E0D9F1DA11DB11D8E839F83D5
:105A5000A887B9878A858111CFCFCE01DF91CF91F9
:105A60001F910F91FF90EF90DF90CF90BF90AF907C
:105A70009F908F900C94BE2C0F931F93CF93DF9326
:105A80008C01862FEA010E948B29FE0181918EBD37
:105A9000DE5FEC17FD0741F08191000000000DB4BE
:105AA00007FEFDCF8EBDF5CF0DB407FEFDCF8FEF06
:105AB0000E948B298FEF0E948B290E949229F80166
:105AC000808B8F71853059F081E28587C8010E94F3
:105AD000BE2980E0DF91CF911F910F91089581E061
