:100000000C9462000C948A000C948A000C948A0070
:100010000C94290E0C948A000C948A000C948A008B
:100020000C948A000C948A000C948A000C948A0028
:100030000C948A000C948A000C948A000C948A0018
:100040000C9441280C948A000C948A000C948A0029
:100050000C948A000C948A000C948A000C948A00F8
:100060000C948A000C948A0000000009000302002E
:10007000000405080000000000000000000000016E
:10008000020408102040800102040810200102042C
:100090000810204080400404040404040404020204
:1000A000020202020303030303030202030000002F
:1000B00000250028002B0000000000240027002A53
:1000C0000000F20F11241FBECFEFD8E0DEBFCDBF7E
:1000D00012E0A0E0B1E0E0E6F7E502C005900D9285
:1000E000A032B107D9F726E0A0E2B2E001C01D922C
:1000F000AA33B207E1F710E0C2E6D0E004C02197CE
:10010000FE010E94F729C136D107C9F70E942E28A7
:100110000C94AE2B0C94000090E080E0089580E1F8
:1001200097E22091BC0027FD04C00197D1F780E041
:10013000089581E0089581110AC084E88093BC008D
:100140000E948F00882329F08091BB00089584ECE1
:10015000F5CF8FEF0895FC01848583FF17C084A13C
:1001600095A1A6A1B7A1448D558D668D778D841B71
:10017000950BA60BB70B811520E89207A105B105D9
:1001800020F08FEF9FE7A0E0B0E0089580E090E0DE
:10019000DC01F1CF0C960C94AE120C960C94EC147E
:1001A0000C960C943F16CF93DF931F92CDB7DEB71A
:1001B000698341E050E0BE016F5F7F4F0C960E9463
:1001C0003F160F90DF91CF910895CF93C82F84EA07
:1001D0008093BC000E948F00811102C080E011C09A
:1001E000C093BB0084E88093BC000E948F008823EA
:1001F000A9F39091B900987F983119F081E090347B
:1002000069F7CF9108958093BB0084E88093BC0088
:100210000E948F00882339F09091B900987F81E087
:10022000983209F080E00895CF93DF931F92CDB705
:10023000DEB730E020E041E050E0BE016F5F7F4F6D
:100240000E947911019731F4898190E00F90DF913C
:10025000CF9108958FEF9FEFF9CF0C960C94140176
:10026000FC011382128288EE93E0A0E0B0E0848368
:100270009583A683B7831486158616868CE791E04E
:10028000918380830895FF920F931F93CF93DF9301
:10029000EC01F62E08811981C8010E94982BF816EE
:1002A00021F06F2DC8010E94A02BCE01DF91CF91CC
:1002B0001F910F91FF9008958091EF02882321F004
:1002C0008091DE0291E089270895823079F021E063
:1002D00030E0811102C030E020E04DE0429FC001DB
:1002E000439F900D11248B5C9C4F089582EE92E009
:1002F0000895EF92FF921F93CF93DF93CDB7DEB7B0
:10030000AC970FB6F894DEBF0FBECDBFCE010196FD
:100310000E94300140E065E773E0CE010D960E9437
:100320007D148D858823D1F1827D59F44DE050E014
:1003300063E173E0CE010D960E94DF1C11E0892B72
:1003400009F410E0CE010D960E9461151123F1F21F
:1003500083E193E0FC0101900020E9F7CF01845193
:1003600093408530910590F26AE071E0815F9C4F87
:100370000E945A2B892B51F683E1E82E83E0F82E58
:10038000F70181917F01882351F0082E000C990B11
:100390000E943C2BF70131978083F2CF10E0812F30
:1003A000AC960FB6F894DEBF0FBECDBFDF91CF91F4
:1003B0001F91FF90EF9008950F931F93CF93DF93BA
:1003C000CDB7DEB7AC970FB6F894DEBF0FBECDBF8A
:1003D000FC01208118E32223A9F08C01CE010196B3
:1003E0000E94300120E0A80164EC73E0CE010D967C
:1003F0000E94E9158D85811111C015E3CE010D967E
:100400000E946115812FAC960FB6F894DEBF0FBE27
:10041000CDBFDF91CF911F910F910895807D69F736
:100420004DE050E0B801CE010D960E94DF1C892BF3
:1004300021F38DA19EA1AFA1B8A58115F0E49F077E
:10044000FBE0AF07B10531F01DE38115904AA540EF
:10045000B105A1F610E0D2CFEF92FF921F93CF9398
:10046000DF9390E080E00E94982B182FD0E0C0E04E
:10047000CE0101967C011D3591F50E94982BCB5C35
:10048000DC4F8883E701CD30D10591F7109241030D
:1004900085E393E00E94DC01811110923503D0E0E6
:1004A000C0E080E01D3521F4CE010E960E94982B0D
:1004B000FE01EE5BFC4F80832196CD30D10589F79C
:1004C00010924E0382E493E00E94DC0181111092AD
:1004D0004203DF91CF911F91FF90EF90089580E04C
:1004E000CECF81E28093650380912403823020F097
:1004F0008EE38093210308950E945C01811102C064
:1005000086E4F7CF809123038D3010F088E3F1CF9C
:10051000E0912303F0E0EB5DFC4F108285E293E075
:100520000E94DC018093210380912103811115C079
:10053000809124032DE0829FC001112465E273E0C5
:100540008B5C9C4F0E94832BE0912403F0E0ED5CD8
:10055000FC4F81E0808380933203089593E290936F
:100560006503823020F08EE38093210308959091FB
:10057000EF02911102C086E4F7CF282F30E09DE012
:10058000899FF0011124EB5CFC4F1082F901ED5CB6
:10059000FC4F81E080838093320310922103089501
:1005A000DC019D91992379F080919C028F3358F45E
:1005B000E0919C0281E08E0F80939C02F0E0E35674
:1005C000FD4F9083EECFE0919C02F0E0E356FD4FAB
:1005D00010820895CF93DF93CDB7DEB72B970FB678
:1005E000F894DEBF0FBECDBF6FE071E080EF92E008
:1005F0000E94832B8091EF0264E271E0811112C0AE
:100600008091090167E271E08F3F61F080910901FB
:1006100061E371E0813031F08091090181110EC0F8
:100620006DE371E080EF92E02B960FB6F894DEBF99
:100630000FBECDBFDF91CF910C946D2B8BE0E7E423
:10064000F1E0DE01119601900D928A95E1F7E091BB
:100650000901F0E084E0F595E7958A95E1F7E4512A
:10066000FE4F80818987E0910901EF70F0E0E4514D
:10067000FE4F80818A87BE016F5F7F4F80EF92E0DF
:100680000E946D2B2B960FB6F894DEBF0FBECDBF28
:10069000DF91CF910895AF92BF92CF92DF92EF9208
:1006A000FF920F931F93CF93DF938A015C016A013E
:1006B000C60ED11CC0E0F12CD0E0C016D10679F1F5
:1006C000F50181915F01082E000C990B0E943C2BD3
:1006D000E82EFEE28F1309C0C1111BC0DD2359F1C2
:1006E000C1E0F801E1928F01E8CF8FED8E0D8E35DC
:1006F00080F46E2D0E2C000C770B82E591E00E94A9
:10070000782B892B31F4CC2331F0F39483E08F15CF
:1007100040F7C0E010C0DF5FD930D8F7E2CFDD236B
:10072000C1F3CC23A1F065E771E0FF2091F3C8018C
:100730000E94832BC1E08C2FDF91CF911F910F91ED
:10074000FF90EF90DF90CF90BF90AF9008956AE058
:1007500071E0EDCF87E2809365030E945C01811117
:1007600004C086E48093E00208958091E102893F0D
:1007700031F08091E102883F11F08DE3F3CF809159
:1007800023038D3098F46091230342EE52E085E21A
:1007900093E00E944B03882349F081E08093DE02BE
:1007A0009EEF9093E0028093DF0208951092E202A0
:1007B00088E3D8CF8F929F92AF92BF92CF92DF9271
:1007C000EF92FF920F931F93CF93DF93CDB7DEB7D6
:1007D000CC54D1090FB6F894DEBF0FBECDBF8091C7
:1007E000E102C12C20E4D22E2BE0E22EF12C883F36
:1007F00031F4C12C90EAD92E95E0E92EF12C198222
:100800001A821B8220E042EE52E064EC73E0CE01DB
:1008100001960E94E91511E481114FC0CE010196A5
:100820000E94300122E542EE52E064EC73E0CE011A
:100830000D960E94E9158D8515E4882309F43DC0C5
:10084000B701A601CE010D960E94F215460157018F
:1008500081E4C816D104E104F10428F080E4882E74
:10086000912CA12CB12CA4016CEA71E0CE010D9663
:100870000E943F1688169906D1F112E4C818D908CB
:10088000EA08FB0811F0112309F3CE010D960E942E
:1008900061151123A1F01DA61EA61FA621E042EEA0
:1008A00052E064EC73E0CE018D960E94E915882336
:1008B00021F0CE018D960E94231C1092E20210922C
:1008C000DE021093E002C45BDF4F0FB6F894DEBF88
:1008D0000FBECDBFDF91CF911F910F91FF90EF9091
:1008E000DF90CF90BF90AF909F908F90089510E0D1
:1008F000C5CFCF92DF92EF92FF921F93CF93DF93FA
:10090000CDB7DEB7AC970FB6F894DEBF0FBECDBF44
:10091000833078F080E0AC960FB6F894DEBF0FBE5F
:10092000CDBFDF91CF911F91FF90EF90DF90CF90DF
:100930000895182F0E945C01882361F3812F0E9483
:1009400065017C01FC018081882321F3CE010196A1
:100950000E94300120E0A70164EC73E0CE010D9607
:100960000E94E9158D85882319F1CDA0DEA0EFA0A6
:10097000F8A4CE010D960E946115123031F0E12FDE
:10098000F0E0ED5CFC4F81E0808389EFC114F0E47E
:10099000DF06FBE0EF06F10409F4BDCFC11480EAE5
:1009A000D80685E0E806F10409F0B4CF88EFB3CFAC
:1009B000123009F4AFCFE12FF0E0ED5CFC4F81E0A5
:1009C0008083A8CFCF93DF93EB012A813B81FC0189
:1009D000338322834C815D816E817F814483558383
:1009E00066837783488559856A857B8540875187EB
:1009F000628773878C179D0751F020E2FE013C96B9
:100A0000DC011C9601900D922A95E1F71C86DF917E
:100A1000CF910895982F92959F708F702AE0929FA2
:100A2000800D112408956AE00E94D729292F30E112
:100A3000839FC0011124822B089588B1806388B9F7
:100A40001092B9008CE58093B80084E08093BC00DC
:100A50000895CF92DF92EF92FF920F931F93CF935F
:100A6000DF930E94832800918602109187022091D3
:100A7000880230918902601B710B820B930B97FDEA
:100A800018C00E94832866507F4F8F4F9F4F6093FE
:100A9000860270938702809388029093890280ED8A
:100AA0000E94E50081110EC084E98093BC00109281
:100AB0008B02DF91CF911F910F91FF90EF90DF900C
:100AC000CF90089580E00E940301882369F381EDAF
:100AD0000E94E500882341F380918C02D1E0D81B6D
:100AE000CD2ED12C81E00E949B00C82F27E02C9DA9
:100AF000C0012D9D900D11249C0123573D4F79017C
:100B00008C2F8F77F901808381E00E949B008F7783
:100B1000F701818381E00E949B00182F86FF43C06C
:100B20008F710E940A056CE00E94D72980E015FDB4
:100B30008CE0890F0E94130597E09C9DF0019D9D1C
:100B4000F00D1124E357FD4F828381E00E949B004A
:100B500097E09C9D80019D9D100D112403571D4F12
:100B60008770F801838381E00E949B008F73F801F6
:100B7000848381E00E949B008F71F801858380E06F
:100B80000E949B00F801868384E98093BC00D09387
:100B90008C0281E080938B02C095CC1FCC27CC1FA8
:100BA000C0938A0286CF1F73F7011283CECFE82F3E
:100BB000F0E0E053F84F633008F43197A62FB0E02F
:100BC000A156BE4F2C91240F3327331F2E0F3F1FEA
:100BD000BF017695679576956795260F371FCF01EC
:100BE00060E971E00E94E329260F371FCF0164E618
:100BF00070E00E94E329C901861B970B67E070E053
:100C00000E94E3298F5F0895CF92DF92EF92FF92C7
:100C10000F931F93CF93DF93F894D0907F02E090CF
:100C20008002F090810210918302D0918402C091E1
:100C3000850210927E027894812F0E940A05C82EA8
:100C40008D2F0E940A05082F8C2F0E940A054C2D1B
:100C5000602F0E94D705082F80ED0E94E5008823B1
:100C600009F43FC080E00E9403018823D1F18D2D5B
:100C70000E9403018823A9F18E2D0E94030188237D
:100C800081F18F2D0E940301882359F1802F0E944A
:100C90000301882331F1812F0E940301882309F188
:100CA0008D2F0E9403018823E1F08C2F0E94030105
:100CB0008823B9F084E98093BC0080E080932F0200
:100CC0001092860210928702109288021092890276
:100CD000DF91CF911F910F91FF90EF90DF90CF9018
:100CE000089584E98093BC0083E1E8CFCF92DF923E
:100CF000EF92FF920F931F93CF93DF93E0918C02BB
:100D000087E0E89FF0011124E357FD4F0081F18057
:100D1000E2801381D480C58086810E940A058C5EA2
:100D2000C7E7D2E088838C2D0E940A0589838D2D28
:100D30000E940A058A838E2D0E940A058B838F2DBF
:100D40000E940A058C83802F0E940A058D831E83D2
:100D5000DF91CF911F910F91FF90EF90DF90CF9097
:100D600008950F931F93CF93DF9300D000D000D04E
:100D70001F92CDB7DEB780917E02811130C0E09125
:100D80008C0287E08E9FF0011124E357FD4FDE01B6
:100D9000119601900D928A95E1F78091730284314A
:100DA00048F18091730284510E941305182F80919D
:100DB00074020E941305082F809175020E9413058A
:100DC0008D830E831F8387E0FE013196AFE7B2E08B
:100DD00001900D928A95E1F781E080937E0227963B
:100DE0000FB6F894DEBF0FBECDBFDF91CF911F913C
:100DF0000F91089580E0D8CFFF920F931F93CF9368
:100E0000DF9300D000D000D01F92CDB7DEB7809125
:100E10007E0281112BC0E0918C0217E01E9FF00131
:100E20001124E357FD4FDE011196812F01900D92A1
:100E30008A95E1F7809173020E941305082F809133
:100E400074020E941305F82E809175020E9413050A
:100E50008983FA820B83FE013196AFE7B2E00190FD
:100E60000D921A95E1F781E080937E0227960FB6E6
:100E7000F894DEBF0FBECDBFDF91CF911F910F91D0
:100E8000FF900895262F30E044E0359527954A9548
:100E9000E1F72115310521F0205DFC012083019649
:100EA0006F70605DFC016193CF010895EF92FF9236
:100EB0000F931F93CF93DF93FC01962FA0918C0289
:100EC00087E0A89FD0011124A357BD4FDC91119654
:100ED0001C91119712960C9112971396CC9113971F
:100EE0001496FC90149715966C91159716968C9104
:100EF0009330E9F592E3908390E39183982F929554
:100F00009F70905D92838F70805D83838CE2E82E6A
:100F1000E482CF0105960E944207FC01E0826F2D1A
:100F200001960E944207FC01E082602F01960E9418
:100F30004207FC01E082612F01960E944207FC01FA
:100F4000E0826D2F01960E944207FC01E0823296FA
:100F5000AC2FA770A05DEC01A9838DE08083118286
:100F6000DF91CF911F910F91FF90EF9008959430F2
:100F7000A9F4C150C73008F0C0E0D3E0CD9FD00144
:100F80001124A657BE4F8C91808311968C91119796
:100F9000818312968C9182833396DFCF923031F128
:100FA00022E3208320E32183282F22952F70205DC8
:100FB00022838F70805D83832DE22483862F829528
:100FC0008F70805D8583862F8F70805D86832783F9
:100FD0008F2D82958F70805D80878F2D8F70805DC3
:100FE0008187911120C080E282873B96802F829575
:100FF0008F70805D80830F70005D01839AE3928320
:10100000812F82958F70805D83831F70105D1483A4
:1010100095838D2F82958F70805D8683DF70D05D84
:10102000D78338969ACF3A96913009F496CFDECF8F
:10103000FC0180818735C9F06CF4843481F024F49C
:101040008823B9F08FEF08958E3489F08435D1F775
:1010500082E008958E3659F024F4843699F781E0C1
:1010600008958437A9F3873769F784E0089583E00A
:10107000089580E0089543E050E062E671E086E282
:1010800092E00E948A2B892B51F489E292E00E941F
:1010900018088F3F29F08093200280E008958FEF99
:1010A000089587E38093650380912402882311F0DB
:1010B00083E105C08091230282FF04C08DE3809309
:1010C0002102089580918B02882391F3809126025A
:1010D000882341F086E292E00E9418088F3F29F4AD
:1010E00088E3EDCF80912002F9CF909123029A708E
:1010F00049F0109207011092300210922F021092C4
:101100002102089510920801809371028FEF80935D
:101110000601F5CF80910801811117C08091060169
:101120008F3F41F46091710281E592E00E94560781
:1011300010920601E0910601F0E0EF5AFD4F808128
:10114000811105C08FEF8093060180E00895909192
:1011500006019F5F909306018D30C1F79FEF90933A
:101160000601089580918B02882331F080918A02D4
:1011700091E08927819508958FEF08958F929F922E
:10118000AF92BF92CF92DF92EF92FF920F931F9395
:10119000CF93DF93CDB7DEB72C970FB6F894DEBFB1
:1011A0000FBECDBFA1E3B2E080E06AE09C9199233D
:1011B00079F1863078F59053FD0130E020E011960A
:1011C0009A30A0F7DF01919140ED490F4A3090F439
:1011D000629FA001639F500D11249A012053310991
:1011E000290F311D97FD3A95203147E2340750F31E
:1011F00085E05FC0E82FF0E0EE0FFF1F41E050E018
:101200004C0F5D1FE40FF51F318320838F5FCECF1E
:10121000863070F389819A81803D57E0950710F000
:10122000805D97408436910518F78B809C809401EF
:10123000215031092C303105D8F6AD80BE809501A2
:10124000215031092F31310598F6CF80D88428E11B
:10125000C216D10468F6E984FA844CE3E416F1047A
:1012600038F60B851C850C33110510F60E9413050A
:1012700080938502882D0E941305809384028A2D15
:101280000E941305809383028C2D0E941305809386
:1012900081028E2D0E94130580938002802F0E9470
:1012A000130580937F0281E08093820280937E0207
:1012B0008EEF2C960FB6F894DEBF0FBECDBFDF9138
:1012C000CF911F910F91FF90EF90DF90CF90BF9043
:1012D000AF909F908F900895803D21F481E080939E
:1012E000680308958093660380916603823DC9F187
:1012F000E0F4843909F464C070F4813909F45CC005
:10130000823909F45BC08039C1F510922502109230
:10131000260282E330C0843A28F4823AF8F4813A13
:10132000C1F00895813D01F10895843EE1F130F46A
:10133000823E21F1B0F5813EE9F00895813FA9F1A7
:1013400018F4803F91F10895853F91F1873F91F125
:1013500008950E9476061092760208951092720205
:10136000089510929B0208950E94EA028FEF8093E5
:10137000110308958EE18093650308950E945C0136
:10138000882359F080917503807D39F040E050E06A
:10139000BA0185E793E00E940A138FEF809312034E
:1013A000089582E2E8CF84E2E6CF109265030895C3
:1013B00088E2E1CF8AE2DFCF83E3DDCF88E3DBCFD2
:1013C00089E3D9CF0F931F93CF93DF93CDB7DEB7C8
:1013D000AC970FB6F894DEBF0FBECDBF90916803F7
:1013E000992369F010926803AC960FB6F894DEBFAB
:1013F0000FBECDBFDF91CF911F910F9108959091B6
:101400006603913E09F40FC140F5923909F4C3C057
:10141000A0F4903909F478C0913931F790916503BF
:10142000943309F4A7C008F084C09333E9F680939D
:10143000240284E380936503D7CF923AC9F1933AAB
:1014400009F44CC0943981F6909107019F3F09F04F
:10145000CAC083E180932F02C7CF923FC0F4903F70
:1014600008F045C1933E09F40EC1943E09F0BCCF8B
:1014700090916503953209F40EC1963209F418C1B2
:10148000943209F0B1CF8093E10285E2D3CF953F4A
:1014900009F424C1973F09F0A7CF909165039A32D0
:1014A00009F0A2CF0E9479048093DD028BE2C2CFC3
:1014B00090917202933050F4E091720291E09E0F8D
:1014C00090937202F0E0ED58FD4F8083809172029C
:1014D000833009F089CF0E94B10686CF90917202C5
:1014E000933050F4E091720291E09E0F909372025B
:1014F000F0E0ED58FD4F808380917202833009F057
:1015000073CF0E94FC0670CF90912502983050F462
:10151000E091250291E09E0F90932502F0E0EA5DB4
:10152000FD4F8083E0912502F0E0EA5DFD4F1082DF
:101530005BCF953319F1963309F056CF9091250280
:10154000983050F4E091250291E09E0F909325028F
:10155000F0E0EA5DFD4F8083E0912502F0E0EA5D76
:10156000FD4F1082809122028150809322028111CE
:101570003BCF0CC08093230285E35CCF1092250201
:101580001092260280932202811103C00E9451080A
:101590002BCF86E34FCF90916503983321F480934E
:1015A00024028AE347CF909165039A3309F01CCF58
:1015B0008A7090912402882361F08091070198132A
:1015C00005C08FEF809307011092300210926503DF
:1015D0000BCF809108019813F9CF8FEF809308010A
:1015E00080930601F3CF8A3009F4FECE8D3081F06E
:1015F000909130029F3108F0F7CEE091300291E0F7
:101600009E0F90933002F0E0EF5CFD4F8083ECCEB4
:10161000E0913002F0E0EF5CFD4F1082109230025A
:101620000E94BE0817CF909165039F3149F0903218
:10163000A1F09E3109F0D8CE809324038FE1FACE39
:10164000809323031092220380912303811103C00E
:101650000E947102C9CE80E2EDCE909122039C30AF
:1016600030F4E0912203F0E0EB5DFC4F8083809149
:1016700022038F5F809322039091220380912303A2
:101680009813B2CEE5CF90916503923209F0ACCEBB
:101690000E94AE02A9CE8093230310922203809170
:1016A0002303811103C00E94AA039ECE86E2C2CE0C
:1016B000909122039C3030F4E0912203F0E0EB5D46
:1016C000FC4F8083809122038F5F8093220390914F
:1016D000220380912303981387CEE5CF9091650371
:1016E000983209F081CE80935F0389E2A3CEE09126
:1016F0006503E53108F078CEF0E0EF57F44F0C9435
:10170000F729960B9A0B9E0BAA0BAE0BA20BA60BFE
:10171000F409F409F409F409F409F409F409F409E1
:10172000F409F409F409F409F4097E0C80935F03C9
:1017300081E080CE80935E0382E07CCE80935D0367
:1017400085E078CE80935A0386E074CE8093590367
:1017500083E070CE80935C0384E06CCE80935B0367
:1017600080915C0390915B03892798278927909348
:1017700058038093570380915A0390915903892706
:101780009827892790935603809355038091570398
:1017900090915803B0E0A0E029E0880F991FAA1F9C
:1017A000BB1F2A95D1F78093510390935203A093C6
:1017B0005303B093540380915E0390E0B0E0A0E047
:1017C00039E0880F991FAA1FBB1F3A95D1F7809364
:1017D000600390936103A0936203B093630310923C
:1017E000500310924F038CE0809365030E945C01CC
:1017F000882341F080915F030E946501FC01808194
:10180000811104C082E080932003EECD80916603B5
:10181000813F01F580915F030E9465018C01CE013B
:1018200001960E94300120E0A80164EC73E0CE0133
:101830000D960E94E915BE016F5F7F4F85E993E029
:101840000E94E2048091A10381110FC082E0809385
:1018500020034AC080915F030E9465018C01CE0184
:1018600001960E94300122E0DFCF809151039091D8
:101870005203A0915303B09154030091600310915F
:10188000610320916203309163034091B903509149
:10189000BA036091BB037091BC03800F911FA21F1C
:1018A000B31F481759076A077B0710F488E0CFCFAA
:1018B00080916603803F51F480915D03893F31F44C
:1018C0008AE0411550446B40710509F610922003DF
:1018D000409151035091520360915303709154030E
:1018E00081EA93E00E940A1380912003882309F47F
:1018F0007BCD81EA93E00E94611576CD682F85E962
:1019000093E00E94D3008091600390916103A091C5
:101910006203B09163030197A109B1098093600349
:1019200090936103A0936203B0936303809160037B
:1019300090916103A0916203B0916303892B8A2B7C
:101940008B2B41F4109266031092650381EA93E0B9
:101950000E94611580914F039091500301969093DE
:10196000500380934F0380914F0390915003811552
:10197000924009F039CD1092500310924F0381EA42
:1019800093E00E94EC1430CDCF9380916603823DAA
:1019900009F48BC040F5843909F4A4C068F4813996
:1019A00009F498C0833909F49AC0803961F410921F
:1019B0006603CF910C943B08803A09F44AC028F49E
:1019C000853909F492C0C0E049C0813A09F449C0A0
:1019D000813DC9F7809111038F3F09F051C01092EA
:1019E0001103C6E03BC0843E09F4AEC080F4823EE1
:1019F00009F480C008F0A2C0813E29F780916503F8
:101A0000813209F710926603C091210327C0853FF8
:101A100009F4AAC090F4805F8230A8F68091650333
:101A20008C3009F0C8C080912003882309F4B9C024
:101A300010926603C091200311C0873F21F6809168
:101A400065038B3209F0BFCF10926603C091DD02AF
:101A500005C010926603C0918B02C1958C2FCF9167
:101A6000089580917602873098F4E091760281E0C3
:101A70008E0F80937602F0E0E958FD4FC081EECFE3
:101A8000E0911103F0E0E051FD4F8081811103C02E
:101A90001092660398CFE091110381E08E0F80933E
:101AA0001103F0E0E051FD4FE9CF90919B0280914E
:101AB0009C02981750F4E0919B0281E08E0F809376
:101AC0009B02F0E0E356FD4FD9CF10929B0210929B
:101AD0009C02DECF10926603C0912102BFCFCF914E
:101AE0000C948A08C0912F02B9CF10926603CF914F
:101AF0000C94B208809112038F3F51F40E945C0154
:101B0000882331F20E947901882311F21092120386
:101B1000E0911203F0E0ED5EFC4F8081811104C082
:101B20008FEF809312034FCFE091120381E08E0F6D
:101B300080931203F0E0ED5EFC4FA0CF809165032F
:101B4000833209F040CF5ECF80916503873209F080
:101B50003ACF8091E002CEEF8E3F09F47FCF109212
:101B60006603C091E0027ACF80916503893209F063
:101B70002ACF1092660380915F03823008F067C01D
:101B8000E0915F03F0E0ED5CFC4F8081882309F475
:101B90005EC0E0915F03F0E0ED5CFC4F1082CFEFA0
:101BA0005DCF80916603813F21F48AE080936503D5
:101BB00041CF84E1FBCF809165038A3009F003CFE8
:101BC00081EA93E00E941401C82F809164038C275E
:101BD000809364038091600390916103A0916203FC
:101BE000B09163030197A109B109809360039093B9
:101BF0006103A0936203B0936303809160039091AB
:101C00006103A0916203B0916303892B8A2B8B2B14
:101C100031F41092660381EA93E00E94611580918D
:101C20004F039091500301969093500380934F037C
:101C300080914F03909150038115924009F00ECF8F
:101C40001092500310924F031092640307CFC1E02B
:101C500005CF1F920F920FB60F9211242F933F932F
:101C60004F935F936F937F938F939F93AF93BF93A4
:101C7000EF93FF9386B180FF16C01AB888E28A9569
:101C8000F1F7439AFF91EF91BF91AF919F918F919F
:101C90007F916F915F914F913F912F910F900FBE68
:101CA0000F901F901895982F947081FD0DC0911181
:101CB00006C08FEF8AB90E94C40C8BB903C089B1EA
:101CC0000E94E2094398DECF911105C08FEF8AB9D7
:101CD00080916703F2CF89B10E946C09F3CF62E073
:101CE00088E00E946C2962E089E00E946C2960E033
:101CF0008EE00E946C2960E08FE00E946C2960E019
:101D000080E10E946C2961E081E10E946C2961E020
:101D10008AE00E946C291AB80E941D0586E691E0AF
:101D20000E94D00260E081E10E94A82981E08093B6
:101D30006C0082E08BBBE8E6F0E08081826080830B
:101D400061E081E10C94A829CF92DF92EF92FF929B
:101D50000F931F93CF93DF93EC017C0180EBE81A84
:101D60008DEFF80AF701C080D18000E010E0980103
:101D700041E0B601CE010E94B520882399F16E01A1
:101D8000F0EDCF1AFDEFDF0AC6010E946115BE011A
:101D9000C6010E942A1181113BC0F701E080F18049
:101DA00000E010E0980141E0B701CE010E94B520AB
:101DB000882319F17E01F0EDEF1AFDEFFF0AC7014C
:101DC0000E946115BE01C7010E942A11811120C025
:101DD00080E0DF91CF911F910F91FF90EF90DF9006
:101DE000CF90089500E010E0980140E0B601CE01E8
:101DF0000E94B5208111C3CFD0CF00E010E0980140
:101E000040E0B701CE010E94B5208111D3CFE0CFD1
:101E1000D0932906C0932806DCCF0F931F93CF934E
:101E2000DF93CDB7DEB7E4970FB6F894DEBF0FBEF1
:101E3000CDBF8AE08DA71EA680E8282F8FA780EF50
:101E400088AB8AEF89AB82E08AAB1CAA1BAA0AE0A6
:101E500010E030EF4AEF52E060E07CA986E196E0C6
:101E60000E949C2386E196E09093150680931406C9
:101E70008091230681112EC084EC93E00E94A40E71
:101E8000882341F1CE0101960E94300120E046E70F
:101E900051E064EC73E0CE010D960E94E915BE019D
:101EA0006F5F7F4F89E693E00E94E2040E942C025C
:101EB00081E080933303809334038093EF02E496B0
:101EC0000FB6F894DEBF0FBECDBFDF91CF911F914B
:101ED0000F910895E0911406F09115068CE2309769
:101EE00009F0858580930901EACFEF92FF920F9365
:101EF0001F93CF93DF93CDB7DEB76C970FB6F894EF
:101F0000DEBF0FBECDBF8091EF0281110CC00E94D9
:101F10000D0F8091EF02811106C06AEF70E080E042
:101F200090E00E94E2280E94290580917E028111A2
:101F30000E9404068091DF02882321F01092DF02C4
:101F40000E94DA0380913203882309F43EC0F8949A
:101F50008AE1E5E3F3E0DE01119601900D928A95A6
:101F6000E1F71092320378941C8E1B8E6DE5CE0142
:101F70004B960E9443018E010F5F1F4FEE24E394A6
:101F8000F12CF80161918F01FC8EEB8ECE014B9606
:101F90000E944301FFEFEF1AFF0A8EE0E816F104FA
:101FA00081F77E01EEE0EE0EF11C0EE010E0F7018D
:101FB00061917F011C8F0B8FCE014B960E944301D4
:101FC0000F5F1F4F0B31110591F76C960FB6F89408
:101FD000DEBF0FBECDBFDF91CF911F910F91FF905C
:101FE000EF900895E4ECF3E0158216A215A214A276
:101FF0008FEF9FEFDC0187A390A7A1A7B2A7109254
:10200000F4051092F5051092F6051092150610923F
:10201000140681E092E090931706809316061092C2
:1020200019061092180681E580931A0681E08093C4
:102030001B0610921C0610921D0610921E0610928E
:102040001F061092200610922106109222068AE2A4
:1020500080932306109224061092250610922606DD
:102060001092270685E993E00E94300189E693E00B
:102070000C943001CF93DF93EC0184960E944B27A0
:10208000882359F088819981DC01ED91FC910684C7
:10209000F785E02DDF91CF91099480E0DF91CF911A
:1020A0000895DC016817790731F090E2FB01019097
:1020B0000D929A95E1F70895CF92DF92EF92FF92F9
:1020C000CF93DF93EC01CC84DD84EE84FF849C010C
:1020D000245F3F4FB701A6018E819F810E940C1F94
:1020E000882359F09A81C114D104E104F10461F408
:1020F00090649A839A8190689A83DF91CF91FF9040
:10210000EF90DF90CF9008952FEFC21AD20AE20A23
:10211000F20A4C855D856E857F854C155D056E05E3
:102120007F0541F39F7BE5CFAF92BF92CF92DF92C5
:10213000EF92FF920F931F93CF93DF93EC0188816F
:1021400086FF0DC010E0812FDF91CF911F910F917D
:10215000FF90EF90DF90CF90BF90AF900895888967
:102160009989AA89BB8981159E4FAF41B10550F766
:10217000CE010E945C10182F882321F3EE81FF818D
:10218000CC84DD84EE84FF8432E0C31AD108E108F8
:10219000F108848104C0CC0CDD1CEE1CFF1C8A9568
:1021A000D2F781899289A389B489C80ED91EEA1E03
:1021B000FB1E00E0A12C82E0B82EEE81FF8182811F
:1021C0000817B0F425E0B701A601400F511D611DAD
:1021D000711DCF0184960E949B27009709F4B2CF0E
:1021E000FC019501119221503040E1F70F5FE5CFDE
:1021F000848120E032E002C0220F331F8A95E2F78B
:1022000088899989AA89BB89820F931FA11DB11D55
:10221000888B998BAA8BBB8B96CFCF93DF93EC01E6
:10222000262F4C895D896E897F898E819F81849656
:102230000E949B27009759F02C813D812F703327F6
:1022400045E0220F331F4A95E1F7820F931FDF917C
:10225000CF910895FC018081811117C080E2DF01D8
:102260001D928A95E9F777836683DB0115968C9139
:10227000803121F0803239F08C3039F480E4808371
:1022800081E08283089580E8FACF80E00895CF93BB
:10229000DF93FC01DB0118964D915D916D917C916E
:1022A0001B97452B462B472B39F416966D917C9145
:1022B000DF91CF910C942A1180E2EF0119928A9557
:1022C000E9F780E1808381E0828316968D919C916D
:1022D00017979783868318968D919D910D90BC9149
:1022E000A02D848F958FA68FB78F81E0DF91CF913E
:1022F00008952F923F924F925F926F927F928F92AA
:102300009F92AF92BF92CF92DF92EF92FF920F9384
:102310001F93CF93DF93EC015B018A0139018A811E
:1023200080FFD2C0888183FF16C0888D998DAA8DC9
:10233000BB8D488959896A897B89841B950BA60BBB
:10234000B70BA80170E060E0481759076A077B07E0
:10235000A0F08C0112C086FF10C0EE81FF81878142
:10236000908555E0880F991F5A95E1F7288939899A
:10237000821B930B8017910760F378011E012CE0FC
:10238000220E311C412C42E0542EE114F10409F4D8
:10239000CFC088899989AA89BB89EE81FF814C01C8
:1023A00021E092222881AC01BD0139E07695679544
:1023B000579547953A95D1F726FF2EC0858D968D76
:1023C000A78DB0A1480F591F6A1F7B1FEE81FF81A7
:1023D0008114910409F07EC0E11482E0F80608F44B
:1023E00079C087A190A5A1A5B2A5481759076A078A
:1023F0007B0709F46FC085A196A1DC01ED91FC91EA
:102400000084F185E02D95010995882309F45CC0CD
:10241000C12C82E0D82E76C0D380D42281149104BE
:1024200081F4D1100EC0892B8A2B8B2B81F527FFCD
:1024300029C0858D968DA78DB0A18C879D87AE878D
:10244000BF87EE81FF814C855D856E857F8542501B
:10245000510961097109848104C0440F551F661F29
:10246000771F8A95D2F781899289A389B489840FCD
:10247000951FA61FB71FAC01BD014D0D511D611D5C
:10248000711DA4CF8C8D9D8DAE8DBF8DD6CF4C850B
:102490005D856E857F8523FF0CC08A8186FF09C01C
:1024A0004F5F5F4F6F4F7F4F4C875D876E877F8792
:1024B000C8CF9101CF010E94491D87FD05C0811140
:1024C000C0CF8881807DA1F58981826089838FEF6B
:1024D0009FEF31C0C2018819990967018E159F05C8
:1024E00008F46C0120E0CF0184960E949B2700979E
:1024F00059F3BC01680D791D61147104A1F0F30159
:1025000071836083AC0CBD1C88899989AA89BB89B9
:102510008C0D9D1DA11DB11D888B998BAA8BBB8B2A
:10252000EC18FD0832CFA601C5010E94512BEACF5D
:10253000C8018E199F09DF91CF911F910F91FF90D4
:10254000EF90DF90CF90BF90AF909F908F907F9053
:102550006F905F904F903F902F9008958F929F9231
:10256000AF92BF92CF92DF92EF92FF920F931F93A1
:10257000CF93DF931F92CDB7DEB78C01FC0180882B
:102580009188A288B388C484D584E684F78430E037
:1025900020E041E050E0BE016F5F7F4F0E94791163
:1025A0000197C9F4898190E0F801808A918AA28A12
:1025B000B38AC486D586E686F7860F90DF91CF91E1
:1025C0001F910F91FF90EF90DF90CF90BF90AF9051
:1025D0009F908F9008958FEF9FEFE6CFCF93DF937B
:1025E00000D0CDB7DEB71A8219829E012F5F3F4F10
:1025F00040E250E070E060E00E947911809739F489
:1026000089819A810F900F90DF91CF91089590E08A
:1026100080E0F8CF4F925F926F927F928F929F925D
:10262000AF92BF92CF92DF92EF92FF920F931F93E0
:10263000CF93DF93EC014A015B014C845D846E848F
:102640007F842881222309F45CC0488959896A89DA
:102650007B89481559056A057B0581F08114910431
:10266000A104B10469F41C861D861E861F86888A13
:10267000998AAA8ABB8A8A818F7D8A8381E046C033
:1026800023FF2CC0888D998DAA8DBB8D8815990547
:10269000AA05BB05B0F1EE81FF813481375F75017A
:1026A000640181E0C81AD108E108F108032E04C0D2
:1026B000F694E794D794C7940A94D2F78A8186FF58
:1026C00036C08C8D9D8DAE8DBF8D8C0D9D1DAE1D2C
:1026D000BF1D8C879D87AE87BF87C9CF26FFDBCF05
:1026E000EE81FF818781908525E0880F991F2A95CB
:1026F000E1F7B0E0A0E088159905AA05BB0508F050
:10270000B6CF4C865D866E867F8680E0DF91CF9166
:102710001F910F91FF90EF90DF90CF90BF90AF90FF
:102720009F908F907F906F905F904F900895DB0106
:10273000CA010197A109B10904C0B695A79597955B
:1027400087953A95D2F7C816D906EA06FB0620F017
:10275000452B462B472B49F527FF22C0858D968DAB
:10276000A78DB0A18C879D87AE87BF878E01045F40
:102770001F4FC114D104E104F10409F478CF4C8552
:102780005D856E857F8598018E819F810E94491DA0
:1027900091E0C91AD108E108F108181654F3B1CF35
:1027A0008C8D9D8DAE8DBF8DDDCFC81AD90AEA0AFA
:1027B000FB0ADCCFCF92DF92EF92FF920F931F9331
:1027C000CF93DF93EC01122F80E2DE011D928A95F8
:1027D000E9F7FB01868197819F838E835D834C831C
:1027E000C48CD58CE68CF78CC886D986EA86FB86A5
:1027F000FC01F0964F70552735E0440F551F3A9570
:10280000E1F7E40FF51F238523FD11C0277328830B
:102810003385387111F4286028830B83212F2370AE
:10282000213009F44BC038F0223009F445C0188239
:102830001A8280E038C021E015FDF9CF2A833A8161
:1028400031FF06C02881422F417189F72062288319
:10285000212F2870232B2A83DC0197964D915D91BF
:102860006D917C919A974C8B5D8B6E8B7F8B44899D
:10287000558970E060E0BA0155274427C28CD38C9B
:10288000F12CE12C4C295D296E297F2915FF1DC0F3
:10289000411551056105710599F48A8180688A8323
:1028A00012FD20C081E0DF91CF911F910F91FF9029
:1028B000EF90DF90CF90089523E0C0CF22E0BECF0D
:1028C0000E9462208111E9CFB2CF4C8F5D8F6E8F55
:1028D0007F8F848D958DA68DB78D888F998FAA8FC8
:1028E000BB8FDECF488D598D6A8D7B8DCE010E94C6
:1028F0000A13882309F49BCFD5CF8F929F92AF9272
:10290000BF92DF92EF92FF920F931F93CF93DF93CB
:10291000EB01FC01208121115DC02881207D09F49B
:1029200059C0088919892A893B890F7111272227E3
:102930003327012B022B032B09F04CC0142F7C01F1
:1029400000E0D12C88889988AA88BB88CE010E9493
:10295000EE12FC01892BF1F180818823D9F18E32AE
:1029600079F1853E69F1938593FD2CC0002371F0C8
:102970009F01255F3F4F80E080FB879587F991910C
:10298000890FE217F307C1F7D81224C0B501A401DB
:1029900085E076956795579547958A95D1F7212FCC
:1029A000BE01C7010E94DA13DF91CF911F910F91F1
:1029B000FF90EF90DF90BF90AF909F908F90089521
:1029C00000E0C0CF9F30E1F786FFBCCF082F0F712A
:1029D000D584B8CF80E0E8CFEF92FF920F931F939A
:1029E000CF93DF9300D000D01F92CDB7DEB7FC01AC
:1029F0002081222309F463C08C01828187FF56C0A5
:102A000061E0CF010E940D117C01009789F4F8016B
:102A100081818160818380E00F900F900F900F90F3
:102A20000F90DF91CF911F910F91FF90EF9008953C
:102A3000FC018081853E59F3F80180818773F7019D
:102A40008387F801808183FF09C0808D918DA28DDD
:102A5000B38DF701848F958FA68FB78FF801848D82
:102A6000958DA68DB78DF701938F828FB58BA48B33
:102A7000E0912A06F0912B063097A1F0AE014B5F52
:102A80005F4FBE016F5F7F4FCE01039609958B812B
:102A90009C81F701918F808F938B828B89819A81A2
:102AA000978B868BF80182818F778283F8018681EC
:102AB00097810E943A10882309F4A9CFADCF81E015
:102AC000ABCFCF93DF93EC010E94EC1418821A82F3
:102AD000DF91CF910895DF92EF92FF920F931F93B2
:102AE000CF93DF93CDB7DEB7E7970FB6F894DEBF8D
:102AF0000FBECDBF7C018B015FAB4EABD22E1982D6
:102B00001A821B82FC018081882379F080E0E7969D
:102B10000FB6F894DEBF0FBECDBFDF91CF911F91EE
:102B20000F91FF90EF90DF900895FB018081807DF1
:102B300069F3EEA9FFA980818F32D9F4EEA9FFA92C
:102B400080818F3221F43196FFABEEABF7CFF801E5
:102B500066817781811104C0C7010E942A11D7CFF5
:102B6000CE0101960E942A11882381F28E010F5F07
:102B70001F4F6EA97FA99E012A5C3F4FAE014F5D9A
:102B80005F4FC7010E94C81B882309F4BFCFEEA97D
:102B9000FFA980818823A1F020E0AE014F5D5F4F47
:102BA000B801C7010E944B1A882309F4AFCFB701BF
:102BB000CE0101960E945110C7010E946115D6CF27
:102BC0002D2DAE014F5D5F4FB801C7010E944B1A1A
:102BD0009ECF6115710521F0605D7D4F0C946B15E2
:102BE00080E00895CF92DF92EF92FF92CF93DF9330
:102BF000EC014115510561057105C9F18A8181FF1B
:102C000036C08C8D9D8DAE8DBF8D892B8A2B8B2BE5
:102C100071F56A017B018E819F819E01245E3F4F89
:102C20004150510961097109DC011496EC91E75F8B
:102C300004C07695679557954795EA95D2F74F5F0B
:102C40005F4F6F4F7F4F0E94A31F882381F0C88E74
:102C5000D98EEA8EFB8E8A81806E8A83CE01DF91C7
:102C6000CF91FF90EF90DF90CF900C94EC1480E028
:102C7000DF91CF91FF90EF90DF90CF9008952F924A
:102C80003F924F925F926F927F928F929F92AF92FC
:102C9000BF92CF92DF92EF92FF920F931F93CF9349
:102CA000DF93CDB7DEB728970FB6F894DEBF0FBE1F
:102CB000CDBF9E838D834B015A01DC0112968C910E
:102CC00081FF1AC083FD23C0A50170E060E0ED81A3
:102CD000FE8180899189A289B38980959095A0957C
:102CE000B09565011F01FCE02F0E311C841795077C
:102CF000A607B70708F0EFC0AD81BE8111968C9191
:102D00001197816011968C93B12CA12C53C0AD8189
:102D1000BE8158964D915D916D917C915B97CD01EF
:102D20000E940A138111D0CFE7CF91018F8198853E
:102D30000E94491D87FDE0CF81110FC18D819E81C9
:102D40000E945C10811109C1D7CFED81FE81848D75
:102D5000958DA68DB78D0097A105B10581F4CF01A2
:102D60000E945C10882341F2ED81FE818485958567
:102D7000A685B785848F958FA68FB78FEEC0ED811E
:102D8000FE8184879587A687B787E7C021E075C055
:102D9000ED81FE81808D918DA28DB38D8415950579
:102DA000A605B70508F5408E518E628E738E82811E
:102DB00080688283C50128960FB6F894DEBF0FBEE7
:102DC000CDBFDF91CF911F910F91FF90EF90DF90DA
:102DD000CF90BF90AF909F908F907F906F905F90BB
:102DE0004F903F902F90089580912A0690912B0646
:102DF000892B01F3ED81FE81828180688283DACFA5
:102E0000EF81F8854250510961097109848104C03C
:102E1000440F551F661F771F8A95D2F781899289C3
:102E2000A389B489480F591F6A1F7B1F80E092E075
:102E3000801B910B76018C159D0508F47C01011512
:102E4000110509F0A3CFAD81BE8150964D905D90E4
:102E50006D907C90539758968D919D910D90BC915B
:102E6000A02D481659066A067B0630F4AD81BE8156
:102E700012968C9185FF8ACF25E0CF0184960E941F
:102E80009B27009709F438CFA701B401800F911F49
:102E90000E94512B0E0D1F1D0115124051F4ED81A2
:102EA000FE818681978184960E944B27882309F4AE
:102EB00023CFED81FE8180899189A289B3898E0D0E
:102EC0009F1DA11DB11D808B918BA28BB38B8E0C8E
:102ED0009F1CCE18DF08ED81FE81408851886288F2
:102EE0007388C114D10409F453CF868197819887E0
:102EF0008F83DC011396FC90B301A20199E07695D3
:102F00006795579547959A95D1F7F42282011170EC
:102F1000F11023C044855585668577850115110517
:102F200009F06ECF411551056105710509F40DCF0A
:102F3000228126FFFACE808D918DA28DB38D481609
:102F400059066A067B0608F0F0CE4F5F5F4F6F4F61
:102F50007F4F4487558766877787AD81BE811696F8
:102F6000ED91FC9117971C964D915D916D917C911F
:102F70001F974250510961097109848104C0440FAF
:102F8000551F661F771F8A95D2F781899289A38979
:102F9000B489840F951FA61FB71FAC01BD014F0D4B
:102FA000511D611D711D0115110509F03FCFC1149F
:102FB000B2E0DB0608F43ACF87A190A5A1A5B2A59F
:102FC000481759076A077B0741F414A28FEF9FEF58
:102FD000DC0187A390A7A1A7B2A785A196A1DC01D8
:102FE000ED91FC910088F189E02D940109958823E9
:102FF00009F482CEE12C82E0F82E5BCFFC019C012B
:10300000255F3F4F80E080FB879587F99191890F7D
:10301000E217F307C1F70895CF93DF93EC01AB01FB
:1030200070E060E085E0440F551F661F771F8A95AA
:10303000D1F7CE010E940A13882329F0CE01DF9137
:10304000CF910C94EE1290E080E0DF91CF91089543
:103050007F928F929F92AF92BF92CF92DF92EF9228
:10306000FF920F931F93CF93DF93CDB7DEB7A09757
:103070000FB6F894DEBF0FBECDBF7C015B018A01A5
:10308000722E80E2F701DE01119601900D928A9571
:10309000E1F7DA018D919C91119713969C938E9391
:1030A000129799249394791408F453C0B5016919BF
:1030B0007109CE0101960E940C186C01892B11F444
:1030C00020E014C0812C482DB601C7010E94B91C14
:1030D000D8011296ED91FC91139714962D913C9185
:1030E0002E173F07C1F421E0892B51F7822FA096BC
:1030F0000FB6F894DEBF0FBECDBFDF91CF911F9109
:103100000F91FF90EF90DF90CF90BF90AF909F9086
:103110008F907F9008958038910590F62FE9280FC1
:103120002A3108F480529F012F5F3F4FD801139638
:103130003C932E93129790812FE9290F2A3108F49E
:1031400090529813BDCF8394BDE08B12BCCF939463
:10315000AACF21E0CBCF9F92AF92BF92CF92DF92C6
:10316000EF92FF920F931F93CF93DF93CDB7DEB70C
:10317000A0970FB6F894DEBF0FBECDBFFC016B0168
:103180007A01B22E90E2DE01119601900D929A958D
:10319000E1F7CA010A960E94FE17A82ED7018D9169
:1031A0009C91119713969C938E93129711E000E0D7
:1031B0008FE0982EB11608F451C0B601611B710959
:1031C000CE0101960E940C18FC01892B09F459C00C
:1031D000AF81B88594968C919497816094968C93E6
:1031E000812F1B1101C08064808393861486A5867D
:1031F000138E128ED70114964D915C9160E0D70129
:1032000012962D913C9113972417350779F40023DA
:10321000C9F00F5F2FEF3FEF6530C0F43283218399
:103220006F5F32966D3059F71F5FC4CFC9010196A9
:1032300013969C938E931297D9012C91022E000C19
:10324000330BEACF30E020E001E0E6CF6B3018F43A
:1032500035832483E5CF37832683E2CF81E0A096B0
:103260000FB6F894DEBF0FBECDBFDF91CF911F9197
:103270000F91FF90EF90DF90CF90BF90AF909F9015
:10328000089580E0ECCFFF920F931F93CF93DF93CD
:10329000FC010481158120813181DC011A9645965B
:1032A00040E24D93A817B907E1F781E0D9019C915D
:1032B0009E3209F480E0E9012F5F3F4F98819E32F2
:1032C000D1F3980121503109C217D30720F4D90155
:1032D0009C919E32B9F750E067E0A0E040E078E0D2
:1032E000C017D10708F045C098819E3241F42C17D1
:1032F0003D0769F46AE0A8E070E12196F1CF9232CF
:10330000A1F09C3791F0B5EAB90FB33070F0B6ED8B
:10331000B90FB63010F49D3241F4B6ECB90FB630A7
:1033200020F0BFEDB90FBE3528F0907C9038E9F55C
:1033300080E0E3CF6A1740F46A30D1F02C173D07E4
:10334000B8F0E9012197F4CFBFE9B90FBA3188F598
:103350009052572BFF24F394FA0EAE0FBF2FB11DDE
:103360001A969C93B6E0BF1508F0F086AF2DC5CF36
:1033700080E092859032B9F0882351F0452309F01E
:1033800052E05187DF91CF911F910F91FF900895E7
:1033900081E081878085E80FF11D8EE7828781E3D8
:1033A000838781E0EFCF80E0EDCF9FE580E06A1773
:1033B00018F2BFEBB90FBA3168F6472BCBCF9F920B
:1033C000AF92BF92CF92DF92EF92FF920F931F9333
:1033D000CF93DF937C018B01FB01B08422E6A22E08
:1033E000D0E0C0E03EE7932E6B01FAE0CF0ED11C97
:1033F0000E948328C60FD71F83E08B1510F493E03B
:10340000B92E94E09B0D8C2F8F708A3068F5805D0B
:10341000F801E90FF11D828784E0D695C7958A955A
:10342000E1F79150B91678F3F801EB0DF11D928692
:1034300040E050E0BA01C7010E940A13C7010E9490
:10344000EE12009799F481E0F7019181911180E0EB
:10345000DF91CF911F910F91FF90EF90DF90CF9070
:10346000BF90AF909F900895895CD2CFFC012081DE
:10347000222379F0238523FDE1CF4BE050E0BC010E
:10348000C6010E94442B892BC9F6AA94A110B0CF83
:10349000DECF81E0DDCF2F923F924F925F926F920D
:1034A0007F928F929F92AF92BF92CF92DF92EF92D4
:1034B000FF920F931F93CF93DF93CDB7DEB72F9774
:1034C0000FB6F894DEBF0FBECDBF8C017B01FA01B1
:1034D000DB018C91807DD1F480E02F960FB6F894BB
:1034E000DEBF0FBECDBFDF91CF911F910F91FF9037
:1034F000EF90DF90CF90BF90AF909F908F907F9094
:103500006F905F904F903F902F900895D8018C91CD
:103510008111E2CF868197810C966DE070E00E9468
:10352000E3296B8781858370772473948111760EEC
:103530002E836F011F870E87F7010680F781E02D2C
:10354000F987E88740E050E0BA01C7010E940A13FA
:10355000912C812C1F82612C10E000E01A86C6019C
:103560000A969D878C87D70150962D903D904D905F
:103570005C90539785E056944794379427948A95A6
:10358000D1F75101C7010E94EE12FC01892BA9F568
:10359000F70181818111A0CFEE81E4FF9DCF8E2FB5
:1035A00083708150823008F097CF111101C045011E
:1035B000171558F4C7010E94EE12892B09F083C039
:1035C000D70111968C91811187CF012F10E0A72C84
:1035D000B12C0A151B0508F078C0C7010E94941091
:1035E000882309F479CFE885F9858281F0E18F9FFE
:1035F000C0011124080F191FECCF9081953E11F0E6
:1036000091110CC0111101C04101171508F41F5F81
:10361000992311F2953E29F400E0A5CF171508F47F
:1036200010E09E32C9F383858F3019F5011119C05E
:10363000292F2F71622E8B85821395CF96FF93CF02
:1036400095859F83082FB1E06B128DCFB1016F5F1D
:103650007F4F202FA601C7010E942818811183CF18
:10366000DBCF6A949611D8CF8585AF818A1759F33D
:10367000D3CF83FDD1CF0023A1F021E062122CCF64
:10368000CF010E94FE179F81891326CFBE81B6FD10
:1036900023CF2E81A501B7018E859F850E94DA1365
:1036A0001CCF4BE050E06C857D85CF010E94442B00
:1036B000892B09F058CFD60119968C9180FFE6CF5F
:1036C00091E09A8750CF1F5F73CF2A8521114AC09E
:1036D0000FEF070D5401A00EB11C202FA601B5015C
:1036E000C7010E94AB18882309F4F6CEB501C701C3
:1036F0000E940C184C01892B09F4EECE80E2D40113
:103700001D928A95E9F7F6013A968BE0D401019073
:103710000D928A95E1F7F60181858871D4011C9696
:103720008C931C97E0912A06F0912B06309709F1B3
:10373000AE014B5F5F4FBE016F5F7F4FCE010396BF
:1037400009958B819C81F401918B808B89819A8171
:10375000978786878D818587E885F98584A1816033
:1037600084A397CFB601C7010E94DF198111B0CFA2
:10377000B3CE81E29CE551969C938E9350975996D7
:103780009C938E93589753969C938E935297E4CF25
:10379000CF93DF93DA01FB01AF014F5F5F4F808171
:1037A000803291F11196FC93EE9317961C921E9223
:1037B0001697BF01EB019991AE01992339F19F3220
:1037C00029F19032E4F1892F877F8232C1F19A3357
:1037D000B1F1892F8F7B8C3391F182EC890F82308C
:1037E00070F19C3561F1BE016E1B7F0B9E3251F072
:1037F000903241F017967C936E9316971596DC9352
:10380000CE931497BA01D6CFFA01C6CF16968D91F2
:103810009C91179701978F3F910588F4462F972F1A
:10382000FB018191BF018032C9F38F32B9F3E90105
:1038300048839983CD01DF91CF910C94431980E0A7
:10384000DF91CF910895BF92CF92DF92EF92FF92D6
:103850000F931F93CF93DF93CDB7DEB7A0970FB62B
:10386000F894DEBF0FBECDBF19821A821B82DC0125
:1038700012962C9121FF12C08C01FC01448D558DB4
:10388000668D778D411551056105710549F461E03B
:10389000C8010E940D117C01009749F480E059C0D5
:1038A000868197810E9462208111F1CFF7CF0E941B
:1038B000FE17D82E85EEF7018083D8011C92129650
:1038C0001C92129716968D919C910E943A10882313
:1038D00029F3F80193819923E1F1B801CE01019612
:1038E0000E9447118823D1F2EE24E394F12C95EE47
:1038F000C92ED80113968C9113978E1578F21496D1
:103900006D917C916E197F09CE0101960E940C1871
:10391000FC01892B19F283858F3009F0BFCF90818C
:10392000892F8F71E812BACF85858D11B7CFC082EC
:10393000D8011696ED91FC9184A1816084A3BFEF1C
:10394000EB1AFB0A96FFD5CFF801868197810E947A
:103950003A10A0960FB6F894DEBF0FBECDBFDF9130
:10396000CF911F910F91FF90EF90DF90CF90BF907C
:103970000895453048F450E0440F551F460F571F37
:10398000FA018181928108954B3050F44550550BD6
:10399000440F551F460F571FFA01868597850895D6
:1039A0004D3050F44B50550B440F551F460F571FC9
:1039B000FA01848D958D089590E080E00895CF926E
:1039C000DF92EF92FF920F931F93CF93DF93FC014F
:1039D000EB018A019081992309F44FC0907C91F00A
:1039E0004230510508F449C08FE28883198281E092
:1039F00090E0DF91CF911F910F91FF90EF90DF90BA
:103A0000CF90089560E0CF010E940D11DC01009776
:103A1000A1F16C0130E068E090E0F60120813830DF
:103A200099F4203221F160E12EE2492F50E07A0131
:103A30008FEFE81AF80AE016F106F8F49F5F4C0FD2
:103A40005D1FFA01208310C0FFEFCF1ADF0A8FEB52
:103A5000820F8A3138F41C968C911C97862311F0C2
:103A6000205EE3CF203209F73F5F3C30B1F6892F6B
:103A700090E0C80FD91F1882BCCF188290E080E078
:103A8000B8CFFC013681323009F4226084960C9460
:103A90009B276F927F928F929F92AF92BF92CF920D
:103AA000DF92EF92FF920F931F93CF93DF934230F9
:103AB00051056105710580F48FEFDF91CF911F9162
:103AC0000F91FF90EF90DF90CF90BF90AF909F90BD
:103AD0008F907F906F900895FC01C18CD28CE38C05
:103AE000F48CC416D506E606F70630F339016A01F0
:103AF0008C0185818032A1F585899689A789B08D51
:103B0000E7E07695679557954795EA95D1F7480F81
:103B1000591F6A1F7B1F20E0C8010E94411D0097AA
:103B200059F2CC0CDD1CCC0CDD1CF1E0DF228C0D3D
:103B30009D1DFC0180819181A281B381F801418D9D
:103B4000528D638D748D481759076A077B0708F4F7
:103B50006DC0F30180839183A283B38381E0ADCFF5
:103B60008031D9F4458956896789708D4D0D511D75
:103B7000611D711D20E0CF010E94411D009709F4D5
:103B80009BCFCC0CDD1CF1E0DF228C0D9D1DFC01D8
:103B900080819181B0E0A0E0D1CF8C3009F08CCF52
:103BA000EA01D695C795C40FD51FCE01892F992755
:103BB000869585889688A788B08C880E991EA11C4A
:103BC000B11C20E0B501A401CF010E94411D009766
:103BD00009F472CF9E013170FC01E20FF31FC08126
:103BE000D0E02F5F3F4F2115F2E03F0779F4B50198
:103BF000A4014F5F5F4F6F4F7F4F20E0C8010E94CD
:103C0000411D009709F458CF30E020E0820F931F48
:103C1000FC018081D82BC0FE07C084E0D695C795F3
:103C20008A95E1F7CE01B6CFDF70FCCF80E045CFBB
:103C30004F925F926F927F928F929F92AF92BF92BC
:103C4000CF92DF92EF92FF920F931F93CF93DF9368
:103C500000D000D000D0CDB7DEB7423051056105AD
:103C60007105C0F480E026960FB6F894DEBF0FBE53
:103C7000CDBFDF91CF911F910F91FF90EF90DF901B
:103C8000CF90BF90AF909F908F907F906F905F90FC
:103C90004F900895DC015996CD90DD90ED90FC9009
:103CA0005C97C416D506E606F706E0F2480159010E
:103CB0006A017B019E838D83FC018581803231F511
:103CC00085899689A789B08D17E076956795579570
:103CD00047951A95D1F7480F591F6A1F7B1F21E09E
:103CE000CF010E94411D009709F4BCCFCC0CDD1C14
:103CF000CC0CDD1CF1E0DF228C0D9D1DDC018D92D2
:103D00009D92AD92BC92139781E0ADCF8031D9F4F2
:103D1000ED81FE81458956896789708D4D0D511D54
:103D2000611D711D21E0CF010E94411D009709F422
:103D300099CFCC0CDD1CF1E0DF228C0D9D1DDC0148
:103D40000D931C93E1CF8C3009F08CCF8A0116952E
:103D50000795040F151FC801892F99278695ED81B6
:103D6000FE81458856886788708C480E591E611CF4
:103D7000711C21E0B301A201CF010E94411D0097F7
:103D800009F470CF1170382DFC01E00FF11FB7015D
:103D9000A601417055276627772749835A836B838D
:103DA0007C83C0FE08C040814F7050E1859E900129
:103DB0001124342F322B3083F8013196E11562E063
:103DC000F60781F4B301A2014F5F5F4F6F4F7F4F42
:103DD00021E08D819E810E94411D009709F442CF10
:103DE000F0E0E0E024E0B694A794979487942A95B5
:103DF000D1F7082DE80FF91F89819A81AB81BC8129
:103E0000892B8A2B8B2B31F40081007F82948FE0E9
:103E100088220829008378CF3F924F925F926F9259
:103E20007F928F929F92AF92BF92CF92DF92EF924A
:103E3000FF920F931F93CF93DF9300D000D0CDB7A5
:103E4000DEB75C012A013B014901FC01C184D28437
:103E5000E384F484C414D504E604F70410F011E0FC
:103E600003C07B016A0110E0FFEFCF1ADF0AEF0AFF
:103E7000FF0AF501818D928DA38DB48D8C159D0562
:103E8000AE05BF0538F4111131C0C184D284E3847A
:103E9000F484E5CF4C145D046E047F0439F19E0177
:103EA0002F5F3F4FB701A601C5010E94491D87FD45
:103EB0001DC08823C9F289819A81AB81BC81892B7D
:103EC0008A2B8B2B89F6112329F0F501C186D28626
:103ED000E386F4860FEF1FEF2FEF3FE0B701A60157
:103EE000C5010E94181E382E811118C0312C832D57
:103EF0000F900F900F900F90DF91CF911F910F9126
:103F0000FF90EF90DF90CF90BF90AF909F908F90F9
:103F10007F906F905F904F903F90089541145104AF
:103F20006104710431F4F401C082D182E282F3822F
:103F3000DECF97018601B301A201C5010E94181EC0
:103F40008111F1CFD3CF2F923F924F925F926F9218
:103F50007F928F929F92AF92BF92CF92DF92EF9219
:103F6000FF920F931F93CF93DF93CDB7DEB72A97BE
:103F70000FB6F894DEBF0FBECDBF1C012A013B0176
:103F80003A872987DC011996CD90DD90ED90FC9061
:103F90001C97BFEFCB1ADB0AEB0AFB0A460157015D
:103FA000E1E0ED83F101818D928DA38DB48D8C15AF
:103FB0009D05AE05BF0508F446C09E012F5F3F4F2B
:103FC000B701A601C1010E94491D87FD3CC0B70190
:103FD000A6014F5F5F4F6F4F7F4F09811A812B8181
:103FE0003C81012B022B032B11F481110BC08C148B
:103FF0009D04AE04BF0409F01D824A015B016A0101
:104000007B01D0CFDB01CA0188199909AA09BB0934
:1040100084159505A605B70591F7FD81FF2339F0B5
:10402000D1011996CD92DD92ED92FC921C970FEF83
:104030001FEF2FEF3FE0B701A601C1010E94181E3C
:10404000782E81111BC0712C872D2A960FB6F894FB
:10405000DEBF0FBECDBFDF91CF911F910F91FF90BB
:10406000EF90DF90CF90BF90AF909F908F907F9018
:104070006F905F904F903F902F9008958C149D0407
:10408000AE04BF04B8F4D701C6010197A109B10974
:104090008D839E83AF83B88797018601AC01BD01F4
:1040A000C1010E94181ECD80DE80EF80F88481114E
:1040B000E5CFC9CFA985BA858D929D92AD92BC926C
:1040C0001397C2CF9F92AF92BF92CF92DF92EF929F
:1040D000FF920F931F93CF93DF9300D000D0CDB703
:1040E000DEB75C016A017B019E012F5F3F4FB70184
:1040F000A601C5010E94491D982E87FD34C000E02D
:1041000010E09801B701A601C5010E94181E88237E
:1041100051F1F5014185528563857485C416D50634
:10412000E606F70650F4F1E0CF1AD108E108F108ED
:10413000F501C186D286E386F486C980DA80EB80F9
:10414000FC809110D1CF0F900F900F900F90DF91C6
:10415000CF911F910F91FF90EF90DF90CF90BF9084
:10416000AF909F90089580E0EECF4F925F926F9254
:104170007F928F929F92AF92BF92CF92DF92EF92F7
:10418000FF920F931F93CF93DF93EC01B42E68013E
:104190007901798368831D8281E090E0A0E0B0E03E
:1041A00089879A87AB87BC878E010C5D1F4F7EA3E2
:1041B0006DA31CA28FEF9FEFDC018FA398A7A9A787
:1041C000BAA74423B1F124E0241790F480E0DF91F2
:1041D000CF911F910F91FF90EF90DF90CF90BF9004
:1041E000AF909F908F907F906F905F904F900895C9
:1041F00020E040E050E0BA01C8010E949B270097F0
:1042000029F382549E4F2B2D30E02150304F44E053
:10421000220F331F4A95E1F7FC01E20FF31F84815F
:104220008823A1F280818F7789F6C084D184E284CB
:10423000F38420E0B701A601C8010E949B27FC017E
:10424000892B21F2838594858115924009F0BECF98
:1042500020898FEF820F823008F0B8CF2E8335850A
:104260003A838FEF830F8B831C8249E050E081E01B
:10427000381749F04150510909F4A8CF9C819F5F3C
:104280009C83880FF5CF86899789B0E0A0E08D8761
:104290009E87AF87B88B892B8A2B8B2B41F484A107
:1042A00095A1A6A1B7A18D879E87AF87B88B86857C
:1042B000978526013701480E591E611C711C4D8AD5
:1042C0005E8A6F8A788E0189128918870F838D84A0
:1042D0009E84AF84B888A22FB0E0A50194010E940B
:1042E0000C2A460E571E681E791E4D8E5E8E6F8EEE
:1042F00078A285E0000F111F8A95E1F701501E4F4B
:10430000012F11270695400E511E611C711C498A10
:104310005A8A6B8A7C8A83899489B0E0A0E00097EE
:10432000A105B10521F480A191A1A2A1B3A1C41856
:10433000D508E608F7088C0D9D1DAE1DBF1D2C810C
:104340006C017D0104C0F694E794D794C7942A9534
:10435000D2F7D701C6010196A11DB11D898F9A8F91
:10436000AB8FBC8F85EFC8168FE0D806E104F1044F
:1043700040F48CE08D838BA69CA6ADA6BEA681E002
:1043800026CF80E125EFC2162FEFD206E104F1041B
:1043900088F384A595A5A6A5B7A58D8F9E8FAF8F11
:1043A000B8A380E2E7CFDC01ED91FC910684F785AC
:1043B000E02D0994DC01ED91FC910084F185E02D64
:1043C00009940F931F93DC01ED91FC910284F38516
:1043D000E02D09951F910F910895DC01ED91FC915D
:1043E0000088F189E02D09940F931F93DC01ED9172
:1043F000FC910288F389E02D09951F910F91089592
:104400000F931F93DC01ED91FC910284F385E02D65
:1044100001E010E009951F910F910895089562E160
:1044200070E00C943F28CF93DF93FC01C081D181D1
:104430000E948328C61BD70B8D2F881F8827881FB3
:10444000DF91CF910895CF93DF93FC012385222341
:1044500059F0EC010190F081E02D0684F785E02D04
:1044600009950E9419281B86DF91CF9108958EBD72
:1044700000000DB407FEFDCF8EB508958FEF0C94AC
:104480003722FC018685811124C0348125818091E9
:104490002E06882381F09FB7F89480912E068130F4
:1044A000A9F48DB380932C064DB380912D06809591
:1044B00084238DBB9FBF3CBD2DBD81E0868760E01E
:1044C00084850E9449278FEF0C94372290932C0605
:1044D000F2CF0895CF93DF93FC0126852223B9F014
:1044E000EC0161E084850E9449278FEF0E9437220A
:1044F00080912E06882351F09FB7F89420912E06C4
:1045000080912C06213031F48DBB9FBF1E86DF9138
:10451000CF9108958FBFFACF0F931F93CF93DF935F
:10452000FC01278510E0213089F0EC01068501119E
:1045300002C00E9441220E943E2211E08F3F09F4F6
:1045400010E0011103C0CE010E946A22812FDF9189
:10455000CF911F910F910895CF92DF92EF92FF922A
:104560000F931F93CF93DF9300D0CDB7DEB78C01AD
:104570006B017A010E948328645D7E4F7A83698390
:104580000E943E22F801808B8F3FC1F4CE0101963C
:104590000E9413228823A1F38EE1F8018587C801C8
:1045A0000E946A2280E00F900F90DF91CF911F91BF
:1045B0000F91FF90EF90DF90CF9008958E3F11F014
:1045C00089E1EBCFE114F104D9F08FEF8EBDF60154
:1045D000C7013FEF019749F0000000000DB407FE4E
:1045E000FDCF2EB53EBD2193F5CFF1E0EF1AF108D6
:1045F000EC0CFD1C0DB407FEFDCF8EB5F7018083DA
:10460000F801108A0E943E220E943E2281E0CBCF18
:1046100040E052E00C94AC220F931F93CF93DF93B2
:1046200000D0CDB7DEB78B010E948328600F711FC9
:104630007A8369830E943E228F3F71F0CE010196FA
:104640000E9413228823B1F380E00F900F90DF9136
:10465000CF911F910F91089581E0F7CFDF92EF92F4
:10466000FF920F931F93CF93DF93EC01162F022F2E
:10467000F32EE42ED52EE881F9810684F785E02D0E
:1046800009958823C9F18E85811103C0CE010E944E
:104690004122111128C0812F80640E9437228D2D64
:1046A0000E9437228E2D0E9437228F2D0E943722A2
:1046B000802F0E94372287E8111101C085E90E94EE
:1046C00037220E943E221AE00E943E22888B87FFFA
:1046D00002C01150C9F7DF91CF911F910F91FF9048
:1046E000EF90DF9008951C30B1F26CE271E0CE01E2
:1046F0000E940C238111CFCF8FEFEDCFCF92DF92AD
:10470000EF92FF921F93CF93DF93EC01162F690175
:104710007A0120E030E0A90167E30E942E23A7017F
:104720009601612FCE01DF91CF911F91FF90EF9005
:10473000DF90CF900C942E238F929F92AF92BF92D6
:10474000DF92EF92FF920F931F93CF93DF93CDB73A
:10475000DEB72A970FB6F894DEBF0FBECDBF7C013F
:104760001C832D833E834F835887FC011386168656
:104770001786108A118A1586802F04870E94462783
:1047800061E0F70184850E94492782E5F70184836F
:1047900015820E94E32781E0F7018387C7010E9409
:1047A000412261E0F70184850E9449271AE00E94B6
:1047B0003E221150E1F760E0F70184850E9449270D
:1047C0000E9483286053784F7A83698320E030E029
:1047D000A90160E0C7010E942E23D82EF1E08F17B7
:1047E000F9F0CE0101960E941322882379F381E02B
:1047F000F7018587C7010E946A2280E02A960FB6DA
:10480000F894DEBF0FBECDBFDF91CF911F910F9106
:10481000FF90EF90DF90BF90AF909F908F900895A2
:104820002AEA31E040E050E068E0C7010E942E2310
:1048300082FD11C014E00E943E22F701808B1150CE
:10484000D1F78A3AE9F0CE0101960E94132288231B
:1048500039F386E0CDCF01E0812C912C5401A501E4
:10486000940169E2C7010E947E23182F882379F002
:10487000CE0101960E941322882389F387E1B8CFE5
:1048800002E0812C912CA12C30E4B32EE8CF023031
:10489000C1F420E030E0A9016AE3C7010E942E23A1
:1048A000882311F082E1A4CF0E943E22807C803CCC
:1048B00009F403E00E943E220E943E220E943E2212
:1048C000D02EC7010E946A224D815E816F8178855A
:1048D00080E896E9A8E9B0E0481759076A077B071E
:1048E00040F4B695A795979587951F5F1630A1F769
:1048F00017E0812F806A8695F701848310951170E7
:104900001583D18A8C818170828781E077CF0F9364
:104910001F93CF93DF93EC018A0120E030E0A901DF
:104920000E942E23882339F08CE18D87CE010E94CE
:104930006A2210E00CC040E150E0B801CE010E94B4
:10494000AC22182F882391F3CE010E946A22812F76
:10495000DF91CF911F910F9108950F931F93CF93E4
:10496000DF93CDB7DEB760970FB6F894DEBF0FBE0A
:10497000CDBFAE014F5F5F4F69E00E94872488235F
:1049800009F483C08981829586958695837009F0A4
:1049900055C06F8170E090E080E03AE0660F771FCD
:1049A000881F991F3A95D1F766277C708827992729
:1049B000098510E046E0159507954A95E1F7012E27
:1049C000000C220B330B062B172B282B392B888539
:1049D00090E0B0E0A0E0BC01CD0152E0660F771F8F
:1049E000881F991F5A95D1F7602B712B822B932B1F
:1049F0006F5F7F4F8F4F9F4F2A85220F322F367068
:104A00002B85221F2227221F232B3E813F70230F3D
:104A10003327331F2750310904C0660F771F881FC3
:104A2000991F2A95D2F760960FB6F894DEBF0FBE95
:104A3000CDBFDF91CF911F910F910895813029F55E
:104A40006885062F10E030E020E09801112700274C
:104A5000002711272F73332789859A85982789275F
:104A60009827B0E0A0E0BC01CD01602B712B822B18
:104A7000932B6F5F7F4F8F4F9F4F2AE0660F771FFB
:104A8000881F991F2A95D1F7CECF60E070E0CB0147
:104A9000CACFCF93DF93EC018989833039F089E065
:104AA000440F551F661F771F8A95D1F79A01AB01F6
:104AB00062E1CE010E942E23882349F08CE08D878D
:104AC000CE010E946A2280E0DF91CF91089581E0BB
:104AD0008F87FACFCF93DF93EC011F8620E030E081
:104AE000A9016CE00E942E23882349F089E08D877C
:104AF000CE010E946A2280E0DF91CF910895CE011D
:104B00000E946A2281E0F8CF8F929F92AF92BF926B
:104B1000CF92DF92EF92FF920F931F93CF93DF9389
:104B2000EC014A015B0169018F85813049F48E8176
:104B30009F81A885B98588159905AA05BB05C9F087
:104B4000B501A401CE010E94492581110EC080E06B
:104B5000DF91CF911F910F91FF90EF90DF90CF9059
:104B6000BF90AF909F908F9008958E829F82A8866D
:104B7000B986F12CE12CE016F10661F0B601CE0108
:104B80000E940823882319F38FEFE81AF80A8EEFA2
:104B9000D81AF1CF8E819F81A885B9858E0D9F1D72
:104BA000A11DB11D8E839F83A887B9878A85811136
:104BB000CFCFCE01DF91CF911F910F91FF90EF905A
:104BC000DF90CF90BF90AF909F908F900C946A250C
:104BD0000F931F93CF93DF938C01862FEA010E94DE
:104BE0003722FE0181918EBDDE5FEC17FD0741F09B
:104BF0008191000000000DB407FEFDCF8EBDF5CF02
:104C00000DB407FEFDCF8FEF0E9437228FEF0E9479
:104C100037220E943E22F801808B8F71853059F037
:104C200081E28587C8010E946A2280E0DF91CF91EE
:104C30001F910F91089581E0F9CF0F931F93CF93A8
:104C4000DF93EC018B0168E572E00E940C23811177
:104C500007C085E28D87CE010E946A2280E007C0EE
:104C6000A8016CEFCE010E94E8258823A1F3DF9113
:104C7000CF911F910F910895EF92FF920F931F9381
:104C8000CF93DF93EC0179011A85112389F0E88134
:104C9000F9810288F389E02D01E010E00995182FD1
:104CA000812FDF91CF911F910F91FF90EF90089589
:104CB0008989833039F089E0440F551F661F771FBB
:104CC0008A95D1F79A01AB0168E1CE010E942E23AB
:104CD000882331F08DE08D87CE010E946A22E0CFDB
:104CE000A7016EEFCE010E94E8258823A9F368E5AD
:104CF00072E0CE010E940C23082F84E2002359F3B6
:104D000020E030E0A9016DE0CE010E942E2388232F
:104D100011F08AE0E0CF0E943E228111FACFCE014D
:104D20000E946A22102FBCCFCF93DF93EC018989B8
:104D3000833039F089E0440F551F661F771F8A952D
:104D4000D1F79A01AB0169E1CE010E942E2388239D
:104D500049F08EE08D87CE010E946A2280E0DF91CB
:104D6000CF91089582E08F8781E0F9CF1F93CF9391
:104D7000DF93EC0168E572E00E940C23182F882372
:104D800061F08DEF0E943722CE010E946A221F86B9
:104D9000812FDF91CF911F9108958FE18D87CE01F3
:104DA0000E946A22F5CFFC012785223011F40C9471
:104DB000B626213011F40C946A2581E008958F9273
:104DC0009F92AF92BF92CF92DF92EF92FF920F939A
:104DD0001F93CF93DF93EC014A015B0169018F853B
:104DE000823049F48E819F81A885B98588159905FF
:104DF000AA05BB0559F0B501A401CE010E94942675
:104E0000882399F18E829F82A886B986F12CE12CA5
:104E1000E016F10661F0B601CE010E941D2688233E
:104E200021F18FEFE81AF80A8EEFD81AF1CF8E81B0
:104E30009F81A885B9858E0D9F1DA11DB11D8E83F3
:104E40009F83A887B9878A85811113C0CE01DF911E
:104E5000CF911F910F91FF90EF90DF90CF90BF9077
:104E6000AF909F908F900C94B626CE010E946A223C
:104E700080E0DF91CF911F910F91FF90EF90DF9035
:104E8000CF90BF90AF909F908F90089561E00C9469
:104E90006C290C94A8298F929F92AF92BF92EF92A7
:104EA000FF921F93CF93DF93DC012C9111E020FF41
:104EB00017C0EC0189819A817D01BCE0EB0EF11CE9
:104EC0004B815C816D817E81DC01ED91FC910088DC
:104ED000F189E02D97010995182F81110CC010E080
:104EE000812FDF91CF911F91FF90EF90BF90AF90F6
:104EF0009F908F900895888181FD04C088818E7F66
:104F00008883EECF89819A814B815C816D817E811E
:104F10008F809884A984BA84480D591D6A1D7B1D11
:104F2000DC01ED91FC910088F189E02D9701099554
:104F30008111E4CFD4CFCF92DF92EF92FF921F93F3
:104F4000CF93DF93DC011196ED91FC91EF2B51F49F
:104F500090E080E0DF91CF911F91FF90EF90DF9084
:104F6000CF900895122F6A017B01EC018B819C8107
:104F7000AD81BE818C159D05AE05BF0561F0CE01EA
:104F80000E944B27882321F312FF0CC01882CB828A
:104F9000DC82ED82FE8213702881122B1883CE01F1
:104FA0000C96D8CF89819A81DC01ED91FC91008427
:104FB000F185E02D9E01245F3F4FB701A6010995C1
:104FC0008111E4CFC5CFCF93CFB7F89480912F064E
:104FD000811127C0E0EAF0E08491E9E8F0E09491E3
:104FE000E82FF0E0EE0FFF1FE954FF4FA591B491B9
:104FF000EC91E92321F461E08AE00E94A82961E0B4
:105000008AE00E946C298CB580618CBD8CB580646F
:105010008CBD61E08DE00E946C2961E08BE00E9414
:105020006C2980912F068F5F80932F06CFBFCF9181
:1050300008959FB7F89480912F06882319F0815026
:1050400080932F0680912F06811105C08CB58F7B30
:105050008CBD10922E069FBF089508950E941B29B3
:105060000E942D280E946F0EC0E0D0E00E94750FB4
:105070002097E1F30E940000F9CF0C94B32A0C941E
:105080003D281F920F920FB60F9211244F935F93FA
:105090006F937F938F939F93409132065091330685
:1050A00060913406709135068091310690913006FA
:1050B000943019F5109230069091300690FD21C081
:1050C0008A598D3728F08D574F5F5F4F6F4F7F4F55
:1050D0008093310640933206509333066093340632
:1050E000709335069F918F917F916F915F914F9152
:1050F0000F900FBE0F901F9018959F5F90933006F2
:10510000DBCF8959DECF2FB7F894609132067091CA
:10511000330680913406909135062FBF0895CF92C3
:10512000DF92EF92FF926FB7F894809132069091E0
:105130003306A0913406B09135065091310626B55C
:1051400035B3432F417030FF04C041E02F3F09F4D5
:1051500040E06FBF6C017D0137E0CC0CDD1CEE1C24
:10516000FF1C3A95D1F7C50ED11CE11CF11CC81AE1
:10517000D90AEA0AFB0A880F991FAA1FBB1FC81A7F
:10518000D90AEA0AFB0A63E0CC0CDD1CEE1CFF1C0A
:105190006A95D1F730E0A3E3B3E00E94FD29672FC1
:1051A000782F892F99276C0D7D1D8E1D9F1D4423FF
:1051B00021F06D5C7C4F8F4F9F4FFF90EF90DF9001
:1051C000CF9008958F929F92AF92BF92CF92DF922D
:1051D000EF92FF926B017C010E948F284B015C01D2
:1051E000C114D104E104F104E9F00E94D6290E941F
:1051F0008F28681979098A099B09683E73408105DF
:10520000910570F321E0C21AD108E108F10888EE97
:10521000880E83E0981EA11CB11CC114D104E104C6
:10522000F10429F7FF90EF90DF90CF90BF90AF90FF
:105230009F908F900895789484B5836084BD85B5E0
:10524000836085BDEEE6F0E0808181608083E1E8E7
:10525000F0E082E08083808181608083E0E8F0E09C
:10526000808181608083E1EBF0E0808184608083D5
:10527000E0EBF0E080818160808387E880937A00B2
:105280001092C1000895843081F028F48230E9F052
:105290008330F9F00895883071F0893091F08530CD
:1052A000B9F4809180008F7D03C0809180008F775A
:1052B0008093800008958091B0008F778093B00034
:1052C00008958091B0008F7DF9CF84B58F7784BD2C
:1052D000089584B58F7DFBCFCF93DF9390E0FC01E1
:1052E000E158FF4F24918A569F4FFC0184918823F7
:1052F000C9F090E0880F991FFC01E954FF4FA59178
:10530000B491FC01E355FF4FC591D49161110DC0DB
:105310009FB7F8948C91209582238C9388812823C1
:1053200028839FBFDF91CF910895623051F49FB7DA
:10533000F8943C91822F809583238C93E8812E2BC7
:10534000EFCF8FB7F894EC912E2B2C938FBFEACF31
:105350001F93CF93DF93282F30E0F901E859FF4FD7
:105360008491F901E158FF4FD491F901EA56FF4FBA
:10537000C491CC23A9F0162F81110E944329EC2F50
:10538000F0E0EE0FFF1FE355FF4FA591B4918FB7EB
:10539000F894EC91111108C0D095DE23DC938FBFF7
:1053A000DF91CF911F910895DE2BF8CF0895991BBF
:1053B00079E004C0991F961708F0961B881F7A950C
:1053C000C9F780950895AA1BBB1B51E107C0AA1F0E
:1053D000BB1FA617B70710F0A61BB70B881F991F96
:1053E0005A95A9F780959095BC01CD010895EE0FCF
:1053F000FF1F0590F491E02D0994A29FB001B39F87
:10540000C001A39F700D811D1124911DB29F700DCD
:10541000811D1124911D08950E94FD29A59F900DC5
:10542000B49F900DA49F800D911D112408950F939A
:105430001F93CF93DF938230910510F482E090E0C8
:10544000E0913806F091390630E020E0B0E0A0E0CD
:10545000309799F42115310509F44AC0281B390BFE
:1054600024303105D8F58A819B816115710589F158
:10547000FB0193838283FE0111C04081518102812F
:10548000138148175907E0F04817590799F4109706
:1054900061F012960C93129713961C933296CF01DB
:1054A000DF91CF911F910F910895009338061093CB
:1054B0003906F4CF2115310551F04217530738F062
:1054C000A901DB019A01BD01DF01F801C1CFEF01A4
:1054D000F9CF9093390680933806CDCFFE01E20FC5
:1054E000F31F819391932250310939832883D7CFB9
:1054F0002091360630913706232B41F4209102018A
:105500003091030130933706209336062091000135
:10551000309101012115310541F42DB73EB740917D
:10552000040150910501241B350BE0913606F091E2
:105530003706E217F307A0F42E1B3F0B2817390795
:1055400078F0AC014E5F5F4F2417350748F04E0FDF
:105550005F1F5093370640933606819391939FCFF8
:10556000F0E0E0E09CCFCF93DF930097E9F0FC01FF
:10557000329713821282A0913806B0913906ED015C
:1055800030E020E01097A1F420813181820F931F39
:1055900020913606309137062817390709F061C087
:1055A000F0933706E0933606DF91CF910895EA0134
:1055B000CE17DF07E8F54A815B819E014115510551
:1055C000B1F7E901FB83EA8349915991C40FD51FD3
:1055D000EC17FD0761F4808191810296840F951F7D
:1055E000E90199838883828193819B838A83F0E098
:1055F000E0E012968D919C9113970097B9F52D914B
:105600003C911197CD010296820F931F209136068F
:10561000309137062817390739F6309751F510922F
:10562000390610923806B0933706A0933606BCCFE1
:10563000D383C28340815181840F951FC817D90736
:1056400061F44E5F5F4F88819981480F591F5183E4
:1056500040838A819B81938382832115310509F0E0
:10566000B0CFF0933906E09338069ECFFD01DC0100
:10567000C0CF13821282D7CF9111089581568A51DB
:1056800008F4805285580895FB01DC0104C08D9117
:105690000190801921F441505040C8F7881B990BA4
:1056A0000895FB01DC0102C001900D924150504071
:1056B000D8F70895FB01DC018D9181341CF08B3506
:1056C0000CF4805E619161341CF06B350CF4605E0B
:1056D000861B611189F3990B0895FB01DC010D9084
:1056E0000020E9F7119701900D920020E1F708954D
:1056F000FC018191861721F08823D9F79927089515
:105700003197CF010895FB01DC0101900D9200203B
:10571000E1F70895FB01DC014150504030F08D91DC
:105720000190801919F40020B9F7881B990B08958E
:10573000F999FECF92BD81BDF89A992780B5089559
:10574000262FF999FECF1FBA92BD81BD20BD0FB69D
:10575000F894FA9AF99A0FBE01960895F894FFCF3B
:1057600000003A068000FFFFFFFF2E44534B00303D
:105770002E322053657020323320323032360D0AFB
:10578000534420006F6B00696E696369616E646FDA
:10579000006E6F20636F6E7465737461006E6F20AE
:1057A000657320464154006572726F722030783004
:1057B0003000222A2B2C2F3A3B3C3D3E3F5B5C5D68
:1057C0007C00525443007364662D31206172726113
:1057D0006E636F0D0A002F0000000000D300D000A0
:1057E0008C00CD00AB002D01CA00444F4D4C554EEE
:1057F0004D41524D49454A55455649455341420050
:105800000003020500030501040602040000000075
:105810000000000000000000000000000000000088
:105820000000000000000000000000000000000078
:105830000000000000000000000000000000000068
:105840000000000000000000000000003031323392
:10585000343536373839414243444546000000006C
:10586000000E220F2223228C2200228425AD24D375
:10587000263C26DF26D321DA21E121ED21F4210087
:00000001FF
